:020000040800F2
:10000000C8060020ED0100088F1200085B110008EF
:100010008D12000805040008031400080000000009
:100020000000000000000000000000009312000823
:100030000704000800000000911200089512000853
:10004000070200080702000807020008070200086C
:10005000070200080702000807020008070200085C
:10006000070200080702000807020008070200084C
:10007000070200080702000807020008070200083C
:10008000070200080702000807020008070200082C
:10009000070200080702000807020008070200081C
:1000A000070200080702000807020008070200080C
:1000B00007020008051300080702000807020008ED
:1000C00007020008070200080702000807020008EC
:1000D00007020008070200080702000807020008DC
:1000E00007020008070200080702000800000000DD
:1000F0000000000000000000000000000000000000
:1001000000000000000000000702000807020008CD
:10011000070200080702000807020008070200089B
:10012000070200080702000807020008070200088B
:10013000070200080000000000000000070200089D
:10014000070200080702000807020008070200086B
:1001500000F002F800F03AF80AA090E8000C82449F
:100160008344AAF10107DA4501D100F02FF8AFF27C
:10017000090EBAE80F0013F0010F18BFFB1A43F085
:1001800001031847DC130000FC130000103A24BFE1
:1001900078C878C1FAD8520724BF30C830C144BFEC
:1001A00004680C607047000000230024002500262E
:1001B000103A28BF78C1FBD8520728BF30C148BFCA
:1001C0000B6070471FB51FBD10B510BD00F0CFF814
:1001D0001146FFF7F7FF01F025F900F0EDF803B441
:1001E000FFF7F2FF03BC00F0F5F800000948804774
:1001F00009480047FEE7FEE7FEE7FEE7FEE7FEE709
:10020000FEE7FEE7FEE7FEE704480549054A064B20
:10021000704700000113000851010008C8000020C9
:10022000C8060020C8020020C802002053EA020CC1
:1002300000F069802DE9F04B4FF00006002B1FBF46
:10024000B3FA83F503FA05F424FA05F65E4012BF0B
:100250001643B2FA82F502FA05F4C5F120051EBF75
:1002600022FA05FC44EA0C04203556EA044C4FEA15
:10027000144418BF641C4FF000084FF0000990426E
:1002800071EB030C39D3002919BFB1FA81F701FAD8
:1002900007F6B0FA80F700FA07F6C7F120071EBF8D
:1002A00020FA07FC46EA0C062037B6FBF4FCA7EB65
:1002B0000507103F07F01F0BCBF120060CFA0BFBD4
:1002C0002CFA06F644BFB3460026202FA4BF5E4694
:1002D0004FF0000B5BEA060C08BF4FF0010B19EB67
:1002E0000B09ABFB027C48EB0608C01B06FB02CCEB
:1002F0000BFB03CC71EB0C01C1E70B4602464146F8
:100300004846BDE8F08B13B54FF000004FF00001F8
:10031000AFF30080BDE81C4070474FF0000200B50D
:10032000134694469646203922BFA0E80C50A0E818
:100330000C50B1F12001BFF4F7AF090728BFA0E8C6
:100340000C5048BF0CC05DF804EB890028BF40F892
:10035000042B08BF704748BF20F8022B11F0804FD4
:1003600018BF00F8012B70477047704770477546FB
:1003700000F02CF8AE4605006946534620F0070011
:10038000854618B020B5FFF73FFFBDE820404FF08D
:1003900000064FF000074FF000084FF0000B21F06F
:1003A0000701AC46ACE8C009ACE8C009ACE8C0093C
:1003B000ACE8C0098D46704710B50446AFF3008025
:1003C0002046BDE81040FFF70ABF00000048704714
:1003D0006800002001491820ABBEFEE7260002009D
:1003E0007047000000228021014800F004B900009D
:1003F000000C014001228021014800F0FCB80000FF
:10040000000C0140FEE7704772B6FEE72DE9F84F99
:10041000DFF8B8910024A9F1040B23460F2709F156
:10042000040AABF1040EC9E00125A5402A40AA4206
:100430007DD1674ED1F804C0ACEB0608B44532D08C
:1004400014DCBCF1030F3AD009DCBCF1000F2AD058
:10045000BCF1010F1CD0BCF1020F31D11DE0BCF189
:10046000110F17D0BCF1120F2AD119E0B8F5881F6F
:1004700019D006DCB8F5803F15D0B8F5801F1FD124
:1004800011E0B8F5001F0ED0B8F5041F18D10AE02E
:10049000CB6815E0CB681B1D12E0CB6808330FE07A
:1004A000CB680C330CE08B682BB1012B4FF00803A9
:1004B00003D0456104E0042302E0056100E000236D
:1004C000FF2A01D8064601E000F104064FEA840540
:1004D00001D9A5F12005D6F8008007FA05FC28EA25
:1004E0000C0803FA05F548EA0508C6F800804D68CF
:1004F000ED0062D5374DAE6946F00106AE61AD69DB
:1005000024F0030605F001050095334D06EB050CBC
:10051000DCF80850A607360F07FA06F825EA0805A2
:10052000DFF8B880404503D14FF0000817E044E001
:10053000DFF8AC80404502D14FF001080FE0DFF852
:10054000A480404502D14FF0020808E0DFF898800F
:10055000404502D14FF0030801E04FF0040808FACB
:1005600006F848EA0508CCF808804D68D9F800601C
:10057000ED024D4601D5164300E096432E604D68CE
:10058000DAF80060AD02554601D5164300E0964307
:100590002E604D68DBF80060AD035D4601D5164363
:1005A00000E096432E604D68DEF80060ED0375466E
:1005B00001D5164300E096432E60641C0D682A4660
:1005C000E5407FF431AFBDE8F88F0000080401403A
:1005D000000011100010024000000140000801401E
:1005E000000C0140001001400014014080680840E8
:1005F00000D0012070470AB1016170470904FBE790
:1006000001488068704700000400002002488168AB
:10061000027811448160704704000020074810B53B
:10062000016841F010010160032000F075F80F200F
:1006300000F006F800F024F8002010BD0020024071
:1006400070B50D4D04464FF47A712878B1FBF0F087
:100650000A490968B1FBF0F000F03EFB48B9102CE4
:1006600007D200222146501E00F036F800206C60B0
:1006700070BD012070BD00000400002010000020AB
:100680000C4808B5816941F001018161816901F07F
:1006900001010091C16941F08051C161C06900F060
:1006A000805000900448416821F0E06141F0007101
:1006B000416008BD0010024000000140002809DB35
:1006C00000F01F02012191404009800000F1E0206C
:1006D000C0F8001170470000F0B40E4B1B680C46C8
:1006E000C3F30223C3F10705042D00D90425191D06
:1006F000072901D2002300E0DB1E012606FA05F1DE
:10070000491E214099409E40761E16403143F0BC60
:1007100000F078BE0CED00E0064900F00702086822
:100720004FF6FF03184040EA0220034A10430860D6
:10073000704700000CED00E00000FA052DE9F047DD
:100740000F46050061D0434E306800F00700B84204
:1007500009D2306820F0070038433060306800F07C
:100760000700B84251D128683B4C810712D5400799
:1007700003D5606840F4E06060602878000703D526
:10078000606840F4605060606068A96820F0F00024
:10079000084360602878C00728D06868012810D016
:1007A0002168022810D0890700292EDA616821F01B
:1007B000030101436160FFF723FF804641F288395E
:1007C0000DE021688903EFE78901EDE7FFF718FFE6
:1007D000A0EB0801494502D90320BDE8F087606815
:1007E000696800F00C00B0EB810FEFD1306800F0C9
:1007F0000700B8420BD9306820F00700384330605A
:10080000306800F00700B84201D00120E5E7287801
:10081000400705D56068E96820F4E060084360603F
:100820002878000706D56068296920F4605040EAFE
:10083000C100606000F018F86168084AC1F3031154
:10084000515CC8400649086006480068FFF7F8FE9A
:100850000020C2E700200240001002404E150008B0
:1008600010000020080000202DE9F0411D494A68D1
:100870001D4802F00C03042B2ED0082B2CD11B4852
:10088000C2F38343C45CD00328D5C86A174A00F07A
:100890000F000E32105CCA6AD20316D5CA6AC96A42
:1008A000C2F30312C1F30321521C891CA2FB0023D3
:1008B000A1FB04150C4F0026A1FB070C05FB07C587
:1008C00001FB0651FFF7B2FC03E007496143B1FBAE
:1008D000F0F00D2C00D14008BDE8F08104486043E1
:1008E000FAE700000010024000127A0030150008FC
:1008F00000093D002DE9F84F040070D02078F14D3B
:10090000C00749D06868C0F38100012807D0686833
:10091000C0F38100022809D16868C00306D52868A1
:10092000800339D5A0680028E7D035E0A068B0F58D
:10093000803F0BD010B1B0F5A02F11D0286820F463
:1009400080302860286820F4802002E0286840F485
:1009500080302860A06890B1FFF752FE06460AE09A
:10096000286840F480202860F0E700BFFFF748FEC9
:10097000801B642876D828688003F7D50CE0FFF741
:100980003FFE064605E000BFFFF73AFE801B6428E5
:10099000F0D828688003F7D42078CB4E80074FF03A
:1009A00001094FF000073AD5686810F00C0F07D026
:1009B0006868C0F38100022809D16868C00306D4C2
:1009C0002868800715D56069012808D111E06069A1
:1009D000B8B1C6F80090FFF713FE804606E042E18A
:1009E000FFF70EFEA0EB08000228C3D82868800796
:1009F000F6D52868A16920F0F80040EAC100286017
:100A00000DE03760FFF7FCFD804605E0FFF7F8FDDD
:100A1000A0EB08000228ADD828688007F6D420781B
:100A200000072ED5A948E169E9B1C0F80090FFF7A9
:100A3000E7FD804606E000BFFFF7E2FDA0EB0800FF
:100A4000022897D8686A8007F6D5A1484FF4FA5172
:100A50000068B0FBF1F0009000BF0098411E0091CB
:100A6000FAD20EE0B0E00760FFF7CAFD804605E06D
:100A7000FFF7C6FDA0EB0800022889D8686A800746
:100A8000F6D42078400763D5E8694FF00008C0002D
:100A900009D4E86940F08050E861E8694FF0010846
:100AA00000F0805000908B480168C90512D401689D
:100AB000834641F480710160FFF7A2FD824605E0A4
:100AC000FFF79EFDA0EB0A0064287DD8DBF800004C
:100AD000C005F5D5206901280AD008B1052813D032
:100AE000286A20F001002862286A20F0040002E051
:100AF000286A40F001002862206941F2883B98B1E1
:100B0000FFF77EFD82460BE0286A40F00400286271
:100B1000EEE700BFFFF774FDA0EB0A01594553D87B
:100B2000286A8007F6D50CE0FFF76AFD824605E0EB
:100B3000FFF766FDA0EB0A01594545D8286A8007F2
:100B4000F6D4B8F1000F03D0E86920F08050E861D6
:100B5000E06AD0B36968C90307D56968C1F3810148
:100B6000022902D1E96AC9037DD4022808D0E86AC3
:100B700020F48030E862B766FFF742FD80463BE034
:100B80002868C00005D5E86A616B00F0F000884273
:100B900069D1B766FFF734FD804605E0FFF730FD09
:100BA000A0EB0800642874D828680001F6D4E86A2D
:100BB000616B20F0F0000843E862E86A216B20F4E2
:100BC00070600843E86201E063E018E0C6F86890EE
:100BD000FFF716FD804605E0FFF712FDA0EB0800C9
:100BE000642856D828680001F6D508E0FFF708FD0C
:100BF000A0EB080064284CD828680001F6D4206ACD
:100C000090B36968C1F38101022949D0022837668F
:100C100003D0FFF7F5FC04463EE0FFF7F1FC074682
:100C200005E000BFFFF7ECFCC01B022831D82868A4
:100C30008001F7D4606AB0F5803F09D1E86A616845
:100C40000843E862E86AE16820F00F000843E862C0
:100C5000D4E909010843696821F474110843686004
:100C6000C6F8609001E028E029E0FFF7C9FC0446DF
:100C700005E000BFFFF7C4FC001B022809D8286864
:100C80008001F7D51BE000BFFFF7BAFC001B02286C
:100C900002D90320BDE8F88F28688001F4D40EE063
:100CA0000128F7D06868626A00F48031914204D16B
:100CB000A16A00F47010884201D00120EAE7002008
:100CC000E8E7000000100240000042428004424277
:100CD000100000200070004010B5401EB0F1807F71
:100CE00001D3012010BD4FF0E02460610F21601797
:100CF00000F088FB0020A06107202061002010BDCB
:100D00007047704770B590F83C20012A29D0012423
:100D100080F83C40022280F83D2003685A689D68B4
:100D200022F070060A6832435A600F4B02689A42FA
:100D30000BD0B2F1804F08D00C4B9A4205D00C4B2F
:100D40009A4202D00B4B9A4204D1496825F08003A5
:100D50001943916080F83D40002180F83C1008461E
:100D600070BD022070BD0000002C01400004004056
:100D700000080040000C004010B5040003D094F8B7
:100D80003D0010B107E0012010BD002084F83C00B8
:100D9000204600F01FF8022084F83D00211D206845
:100DA00000F0B6FA012084F8460084F83E0084F88A
:100DB0003F0084F8400084F8410084F8420084F841
:100DC000430084F8440084F8450084F83D00002086
:100DD00010BD000008B500680B49884212D10B48CD
:100DE000C16941F00201C161C069002200F0020046
:100DF000009001211D20FFF76FFCBDE808401D2079
:100E0000FFF75CBC08BD0000000400400010024079
:100E100090F83D10012901D001207047022180F88F
:100E20003D100168CA6842F00102CA6000680D49BD
:100E300088420BD0B0F1804F08D00B49884205D0D2
:100E40000A49884202D00A49884204D1816801F0E7
:100E50000701062903D0016841F00101016000206B
:100E600070470000002C01400004004000080040D2
:100E7000000C004070B5044690F83C0000250128A5
:100E800017D0012684F83C60022084F83D002068D9
:100E9000826822F0770222F47F428260086850283C
:100EA00038D00DDC20284FD005DC90B3102811D1AC
:100EB0004AE0022070BD302846D040280AD13BE0ED
:100EC00060282FD070280DD0B0F5805F03D0B0F52A
:100ED000005F12D0012584F83D60002084F83C00BA
:100EE000284670BDCB68D1E90121206800F054FA92
:100EF0002068816841F0770109E0CB68D1E90121E0
:100F0000206800F049FA2068816841F480418160DE
:100F1000E1E719E0CA684968206800F04FFA5021FB
:100F2000206806E0CA684968206800F058FA602125
:100F3000206800F03BFACEE7CA684968206800F0F4
:100F40003DFA40212068F4E7226801461046F0E7A8
:100F500070472DE9F04104460068C66805694FF006
:100F60000007A90713D5B10711D5F91E01610120AA
:100F70002077206880698007204602D0FFF7E8FFCD
:100F800004E000F07EF8204600F07CF82777680740
:100F900016D5700714D521686FF00400086102208F
:100FA00020772068806910F4407F204602D0FFF748
:100FB000CFFF04E000F065F8204600F063F82777E3
:100FC000280715D5300713D521686FF00800086190
:100FD000042020772068C0698007204602D0FFF7F0
:100FE000B7FF04E000F04DF8204600F04BF82777FB
:100FF000E80616D5F00614D521686FF010000861D8
:10100000082020772068C06910F4407F204602D075
:10101000FFF79EFF04E000F034F8204600F032F8BD
:101020002777E80708D0F00706D021686FF00100A5
:101030000861204600F028F8280608D5300606D5B5
:1010400021686FF0800008612046FFF759FE6806AE
:1010500008D5700606D521686FF04000086120466B
:1010600000F07AF8A8060AD5B00608D521686FF016
:10107000200008612046BDE8F041FFF742BEBDE810
:10108000F0817047704700000068314988425DD1A7
:1010900030484FF000024178491C11F0FF034370C3
:1010A000014604D042700B7843F001030B70837843
:1010B0005B1CDBB28370022B04D382700B7843F08D
:1010C00002030B70C3785B1CDBB2C370052B04D327
:1010D000C2700B7843F004030B7003795B1CDBB226
:1010E00003710A2B04D302710B7843F008030B70D1
:1010F00043795B1CDBB24371322B04D342710B7812
:1011000043F010030B7083795B1CDBB28371642B9B
:1011100004D382710B7843F020030B7003895B1CAE
:101120009BB20381B3F5FA7F04D302810B7843F0BD
:1011300040030B7043895B1C9BB24381B3F57A7FFC
:1011400004D34281087840F08000087070470000A6
:1011500000040040140000207047FEE72DE9F04134
:1011600086B000242B480094019402940394816972
:1011700041F040018161816901F040010491816980
:1011800041F020018161816901F0200104918169B0
:1011900041F004018161816901F0040104918169D8
:1011A00041F0080181618069012200F008001A4FB6
:1011B0001502049029463846FFF71DFADFF85C80D7
:1011C000002280214046FFF716FA012251024046D4
:1011D000FFF711FA0620CDE9000469461048029491
:1011E000FFF714F90095022601250396CDE9015475
:1011F00069463846FFF70AF94FF42070CDE900053B
:10120000CDE9024669464046FFF700F906B0BDE861
:10121000F08100000010024000140140000C014069
:101220000018014010B586B00024174800940194BE
:1012300002940394049413490594016041F61F41FC
:10124000C0E901140921C0E903148461FFF794FD8A
:1012500008B1FFF7D9F84FF48050009069460A486A
:10126000FFF708FE08B1FFF7CFF8049404A9064879
:101270000594FFF747FD002801D0FFF7C5F806B039
:1012800010BD00000004004020000020FEE7FEE743
:1012900070477047FFF7BAB970B594B03821684607
:1012A000FFF73BF814210EA8FFF737F801250024BB
:1012B0002804CDE902040226CDE9086000950595D1
:1012C00001944FF4E010CDE90A046846FFF712FBE1
:1012D00008B172B6FEE70F20CDE90E064FF480602C
:1012E000CDE9104002210EA81294FFF727FA08B1A9
:1012F00072B6FEE70148056714B070BD00004242B7
:10130000704700000148FFF724BE000020000020C5
:10131000F0B502681C4B1D4C1D4D1E4E4FF0804712
:10132000984207D0B84205D0A04203D0A84201D0CD
:10133000B04204D122F0700C4A6842EA0C02984292
:1013400007D0B84205D0A04203D0A84201D0B04295
:1013500003D122F44074CA6822434C6922F080020F
:10136000224302608A68C2620A688262984201D19E
:1013700009690163012141610169C90703D001695C
:1013800021F001010161F0BD002C0140000400408A
:1013900000080040000C004010B5846842EA0322B7
:1013A00024F47F440A432243826010BD826822F005
:1013B00070020A4342F007018160704710B5036A6A
:1013C000046A24F001040462846924F0F00444EA0D
:1013D000021423F00A020A438461026210BD10B5B0
:1013E000036A046A24F010040462846923F0A003F1
:1013F00024F4704444EA023243EA0111826101623A
:1014000010BDFEE70907090E002804DB00F1E0200B
:1014100080F80014704700F00F0000F1E02080F821
:10142000141D7047FFF7FAF8FFF736FFFFF796FE37
:10143000FFF7F8FE00F076F80021012000F062F8D6
:10144000DFF8B0A04FF48079012249465046FFF7FB
:10145000D2F8FEF7C7FF284DDFF8A0B0284C4FF0B8
:10146000010800262878410610D520F04000287099
:10147000207828B10021012000F044F8267005E012
:101480000121084600F03EF884F800802878010623
:1014900008D520F0800028706078012802D1A0785B
:1014A000401CA07002215846FFF7A0F818B1002791
:1014B000E07810B10CE00127FAE74FB184F8018021
:1014C000A670002249465046FFF795F8FEF792FFB6
:1014D000607801280BD1A078032808D3012249465F
:1014E0005046FFF788F8FEF77DFF6670A670E7703C
:1014F000B8E700000014014014000020001801406B
:1015000000000020002809D005484FF4007309B1FD
:10151000002200E001221946FFF76DB87047000075
:10152000000C01400148FFF773BC000020000020C0
:10153000000004050607080900000000000D010274
:10154000030405060708090A0B0C0D0E0F10000016
:101550000000000000000102030406070809000063
:101560008015000800000020200000008C01000809
:10157000A015000820000020A8060000A80100080F
:10158000000000000100000010000000000000004A
:1015900000127A00000000000000000000000000BF
:04000005080001519D
:00000001FF
