:020000040800F2
:100000002008002011020008C3420008E53F000854
:10001000C1420008E1170008B946000800000000CE
:10002000000000000000000000000000C7420008BF
:10003000191C000800000000C5420008C942000861
:100040002B0200082B0200082B0200082B020008DC
:100050002B0200082B0200082B0200082B020008CC
:100060002B0200082B0200082B02000821190008AF
:100070002B0200082B0200082B0200082B020008AC
:100080002B0200082B0200082B020008F1170008C1
:10009000E51700082B0200082B0200082B020008BD
:1000A0002B0200082B0200082B0200082B0200087C
:1000B0002B020008554300082B0200082B02000801
:1000C0002B0200082B0200082B0200082B0200085C
:1000D0002B020008AD4600082B0200082B02000886
:1000E0002B0200082B0200082B0200080000000071
:1000F0000000000000000000000000000000000000
:1001000000000000000000002B0200082B02000885
:100110002B0200082B0200082B0200082B0200080B
:100120002B0200082B0200082B0200082B020008FB
:100130002B02000800000000000000000918000861
:10014000FD1700082B0200082B0200082B020008F4
:1001500000F002F800F04DF80AA090E8000C82448C
:100160008344AAF10107DA4501D100F042F8AFF269
:10017000090EBAE80F0013F0010F18BFFB1A43F085
:1001800001031847DC4F0000FC4F0000103A24BF69
:1001900078C878C1FAD8520724BF30C830C144BFEC
:1001A00004680C607047000000230024002500262E
:1001B000103A28BF78C1FBD8520728BF30C148BFCA
:1001C0000B607047662904F04287642900F0FE80C6
:1001D000632900F08084002070471FB500F088FC80
:1001E00004000020002104F01DFCE0601FBD10B5DC
:1001F00010BD00F07DFD1146FFF7EFFF04F0A6FBF8
:1002000000F09BFD03B4FFF7F2FF03BC00F0DEFD3E
:100210000948804709480047FEE7FEE7FEE7FEE79A
:10022000FEE7FEE7FEE7FEE7FEE7FEE704480549D6
:10023000054A064B70470000514300085101000871
:10024000200200202008002020040020200400209C
:1002500053EA020C00F069802DE9F04B4FF00006E4
:10026000002B1FBFB3FA83F503FA05F424FA05F651
:100270005E4012BF1643B2FA82F502FA05F4C5F1E8
:1002800020051EBF22FA05FC44EA0C04203556EA7C
:10029000044C4FEA144418BF641C4FF000084FF0A0
:1002A0000009904271EB030C39D3002919BFB1FA50
:1002B00081F701FA07F6B0FA80F700FA07F6C7F1FE
:1002C00020071EBF20FA07FC46EA0C062037B6FBC3
:1002D000F4FCA7EB0507103F07F01F0BCBF120063E
:1002E0000CFA0BFB2CFA06F644BFB3460026202F6F
:1002F000A4BF5E464FF0000B5BEA060C08BF4FF050
:10030000010B19EB0B09ABFB027C48EB0608C01B89
:1003100006FB02CC0BFB03CC71EB0C01C1E70B46D7
:10032000024641464846BDE8F08B13B54FF0000049
:100330004FF00001AFF30080BDE81C4070470000A3
:100340000FB47CB50C0009AA009001D02044401ED7
:10035000084B7B4469460190089800F092FB0546E3
:100360001CB10020694600F09FFB28467CBC5DF86C
:1003700014FB00005D07000070B50C460546012A1D
:1003800005D02878800600D5EA69002302E0012321
:1003900005E05B1C934202D2E05C0028F9D1A86919
:1003A000E618C01AA861286A184428622846AFF3E4
:1003B000008004E0D5E9012114F8010B9047B44214
:1003C000F8D32846AFF3008070BD00002DE9F0415E
:1003D0000646002410687529314616A510D0AFF3E3
:1003E0000080002802DA404213A507E031688A073E
:1003F00001D512A502E0490704D511A5012401E0A9
:10040000AFF3008000210A2206F1240709E0B0FBC7
:10041000F2FCB0FBF2F302FB1C00303078541846BB
:10042000491C0028F3D123462A463046BDE8F04156
:1004300000F0B9B8000000002D0000002B00000003
:10044000200000002DE9F0474FF0000A89460446DD
:10045000C0F820A02046E1688847002876D02528EB
:1004600006D0D4E901219047206A401C2062F1E7C0
:10047000E168204600258847C4F81CA006460027EE
:10048000C4F818A02A2E09D0304604F057FA38B321
:1004900004EB8708303EC8F8186019E059F8041BCF
:1004A000204604EB87029161E1688847012F0646E8
:1004B00018D1E069002820DA25F020051DE0D8F8E1
:1004C000180000EB800006EB40003038C8F8180038
:1004D0002046E1688847064604F030FA0028EED14D
:1004E000012F0AD02E2E08D12046E16888477F1CB4
:1004F0000646022F45F02005C4DBA069002803DA78
:10050000404245F00105A061E80701D025F0100543
:10051000B6B1A6F14100192802D8203645F400658D
:100520004A463146204625604D46FFF74BFE58B1FE
:10053000012806D0ED1D25F0070000F1080989E724
:1005400004E005F1040985E730468AE7206ABDE842
:10055000F0874FF0000200B51346944696462039C6
:1005600022BFA0E80C50A0E80C50B1F12001BFF46C
:10057000F7AF090728BFA0E80C5048BF0CC05DF8D2
:1005800004EB890028BF40F8042B08BF704748BF20
:1005900020F8022B11F0804F18BF00F8012B704794
:1005A0007047704770472DE9F0470D4699469246CF
:1005B000044600F124080168880604D5E06921F0AA
:1005C0001001216000E00120A84201DD471B00E08E
:1005D0000027A1697A1902EB0900081AA0612078A6
:1005E000C00602D42046AFF30080002608E0D4E91C
:1005F00001211AF806009047206A401C761C2062F0
:100600004E45F4DB2078C0060AD52046AFF30080C3
:1006100006E0D4E9012130209047206A401C206286
:10062000381EA7F10107F4DC07E0D4E9012118F82E
:1006300005009047206A401C2062281EA5F1010594
:10064000F3DC2046AFF300802078000602D50220BC
:10065000BDE8F0870120FBE770472DE9FF4F0C460E
:100660001E464FF0FF378BB0D2E90001DDF8608005
:100670000A908A46C1F30A5505B93D46002108464D
:100680004FF00000BAF1000F00F4400005DA00EB73
:1006900080004FF4400101EA50004FEA9059B9F14F
:1006A000010F00DDB9460A9850EA4A000ED044F620
:1006B0001050A5F2FF3545432F14B8F1000F1ED09E
:1006C0007542291E1EDDC9F100021CE0B8F1010FC0
:1006D0004FF0000001D0302103E0F24305E0215447
:1006E000401CB042FBDB30460022002121540B9914
:1006F000C1F80880C1E900200FB0BDE8F08FBD1B34
:100700006D1CDEE74A4600DA694206A800F07AFA74
:1007100006AB93E8070003AB83E8070050460A994D
:1007200000F05BFB8DE80700A0F500501F3800903B
:100730000398002D0ADD42F21F014A4608440023B7
:1007400003A90390684600F0C4FD09E0A0F500503D
:100750004A461F38002303A90390684600F0CEFDE7
:100760008DE807000004000C03D04FF0FF30410873
:1007700000E01046B8F1000F03D0002200921546A9
:100780001EE0751E05D400F0B7F9303262556D1EBB
:10079000F9D5B3460122084302D000227F1C04E0B1
:1007A0002078302801D100227F1E002A099784D0AA
:1007B0001DE0112D07DA00F09FF9303262556D1CF3
:1007C00050EA0102F5D1084302D00098C8B10EE00A
:1007D0000021681E05E0235C625C63542254401EC5
:1007E000491C8142F7DBAB46A81B401E0990002044
:1007F00004F80B000B98099AC0F80880C0E9002B98
:100800007AE711264FF0000857E72DE9F04F8846A8
:100810000446D21D22F0070191B0D1E90001CDE9D3
:100820000A0104F067F802460B98C00F01D02D2092
:1008300007E02068810701D52B2002E0202101EA92
:10084000C000032A099001D0072A05DB0346414670
:10085000204600F097F90BE12078800601D5E06989
:1008600000E00620B8F1650F814606D0B8F1660FAA
:1008700018D0B8F1670F70D131E00020B9F1110F35
:10088000009001DB112301E009F101030AAA01A98B
:100890000CA8FFF7E2FEDDE90C70002609F1010566
:1008A000834647E001204B4600904FF000470AAADC
:1008B00001A90CA8FFF7D1FEDDE90DB00C995D464A
:1008C000002610B909F101000D18B9EB050003D499
:1008D000C0F1FF3609F10105A5EB09002BE0B9F1E4
:1008E000010F01DA4FF001090020B9F1110F00905A
:1008F000484601DD112300E003460AAA01A90CA81D
:10090000FFF7ABFEDDE90C704D46002683462078EC
:1009100000070AD4AB4500DA5D4601A8012D04DDCD
:10092000411911F8011C302907D04F4502DA17F19F
:10093000040F04DA012082460FE06D1EEEE7002F5F
:1009400002DCED1B3E4403E0781CA84200DD7D1C68
:10095000B81B00F1010A4FF000472078000703D4CC
:10096000AA4501DB4FF0FF3A0021B7F1004F0DF12E
:1009700043088DF8431024D002202B23002F01DAE6
:100980007F422D230A21021EA0F1010000DC5FB18D
:1009900097FBF1FC97FBF1F201FB1C7C17460CF175
:1009A000300C08F801CDEEE7A8F1010003702188B2
:1009B000090501D5452100E06521A0F1010800F8F5
:1009C000011C09980FA9A1EB0807FF1D00B1012028
:1009D000411901EBEA70A1693844081A401EA06170
:1009E0002078C00602D42046AFF30080099828B1D1
:1009F000D4E901219047206A401C20622078C0067B
:100A000022D52046AFF300801EE0002E04DBB34564
:100A100002DD01A8805D00E03020D4E9012190478B
:100A2000206A401C2062761CAAF101005FEA000ADD
:100A30000AD100F05DF8C0680168405CD4E901218A
:100A40009047206A401C2062281EA5F10105DCDCCD
:100A500007E0D4E9012118F8010B9047206A401CF7
:100A60002062381EA7F10107F3DC2046AFF30080B7
:100A7000032011B041E6000001694A1C02610878B8
:100A8000704700B58FB0CDE90131002105910549CE
:100A90007944CDE9031011466846FFF7D3FC0FB047
:100AA00000BD0000E5FFFFFF0A6802F8010B0A60C5
:100AB0007047D1E900239A4202D2531C0B60107098
:100AC000704710B5436913B1AFF3008001E0FFF741
:100AD00053FC012010BD127800F124010A7000229D
:100AE0004A700122EDE711684FF0FF32E9E700009C
:100AF00000487047DC01002030B5B0F10A024FEA2F
:100B0000900E71F100034EEA817EB0EB0E0061EBB6
:100B100091014FEA101E4EEA017E10EB0E0041EBF0
:100B200011114FEA102E4EEA016E10EB0E0041EB50
:100B300011214FEA104E4EEA014E10EB0E0041EB30
:100B40001141401841F100014FEAD00040EA4170E4
:100B50004FEAD10110EB80054FEA810444EA90741A
:100B600044EB01046D1944EB0404521BA3414FF004
:100B7000000348BF0A3200D530BD401C41F10001DE
:100B800030BD00002DE9F0411F46044603260168F0
:100B9000072A01F4006004DB08B116A505E016A5DC
:100BA00003E008B115A500E015A521F010002060B4
:100BB000A069C01EA0610FB1401EA0612046AFF326
:100BC00000804FB1D4E9012138469047206A401C8B
:100BD0002062C01C206206E0206AFAE7D4E9012105
:100BE00015F8010B9047761EF8D22046AFF300802F
:100BF000BDE8F0814E414E006E616E00494E4600E8
:100C0000696E66002DE9F047814616468AB0354880
:100C100078440DC88DE80D0032487844801C03AC40
:100C20000DC884E80D0041F69B300844372190FB45
:100C3000F1F290FBF1F5A5F1800501FB12041B3CDC
:100C400002D56442012000E00020DFF898A0804631
:100C50000027FA44AAF1BE0A0EE0E0070AD03246A5
:100C6000684607EB470101230AEB810100F046FBD0
:100C70008DE8070064107F1C002CEED1194F7F44D3
:100C8000AE3F19E0E80715D007EB04100DF1180A84
:100C900090E80E008AE80E00C068F04201D1981971
:100CA00008903246012306A903A800F027FB03ABF6
:100CB00083E807006D10641C002DE3D14FF00103A1
:100CC00032466946B8F1000F03A802D000F001FBDC
:100CD00001E000F013FBC9E90001C9F808200AB0DF
:100CE000BDE8F087F044000000487047BC010020D8
:100CF0007546FFF7F9FFAE4605006946534620F0FA
:100D00000700854618B020B5FFF790FABDE82040EF
:100D10004FF000064FF000074FF000084FF0000BB7
:100D200021F00701AC46ACE8C009ACE8C009ACE86A
:100D3000C009ACE8C0098D46704710B50446AFF352
:100D400000802046BDE81040FFF75CBA4FF0013C40
:100D500050F8042B51F8043B9A4221D1A2EB0C032A
:100D6000934313EACC1317D150F8042B51F8043BEA
:100D70009A4215D1A2EB0C03934313EACC130BD187
:100D800050F8042B51F8043B9A4209D1A2EB0C0312
:100D9000934313EACC13DBD04FF00000704700BF41
:100DA000D01A01BAB1FA81F101F0180122FA01F06A
:100DB000CB40C1F12001DBB2C0B2C01A2CFA01F362
:100DC000D11A914311EAC311E6D1704701491820A5
:100DD000ABBEFEE72600020070475FEA400C08BF8A
:100DE00091F0000F4FEA8C234FEAC12243EA5151A0
:100DF0004FEA1C5018BF00F5F0404FEA300018BF12
:100E000041F000415FEA6C5C00F02980BCF1FF3FDB
:100E100008BF40F080407047130C06BF12044FF02B
:100E2000100C4FF0000C130E04BF12020CF1080C52
:100E3000130F04BF12010CF1040C930F04BF9200B6
:100E40000CF1020CD30F04BF52000CF1010C11463F
:100E50004FF00002A0F11F00A0EB0C00704711F052
:100E6000004F08BF704731F000413FF4D5AF0B0C85
:100E700006BF09044FF0100C4FF0000C0B0E04BF1E
:100E800009020CF1080C0B0F04BF09010CF1040C52
:100E90008B0F04BF89000CF1020CCB0F04BF49007B
:100EA0000CF1010CCCF12003A0EB0C0022FA03F3AF
:100EB00002FA0CF241EA030100F10100704720F050
:100EC0007F4C80EA030023F07F47ACEB070303F578
:100ED0007C5300F0004003F1FF032DE980494FEA05
:100EE000154B09B44FEA144325EA0B4E24EA034894
:100EF0000FF2042606EB132749083E785FEA320218
:100F000003FB0667C7F5000707FB06F64FEA5437F1
:100F10004FEAD64606F1020607FB066CCCF1005CF0
:100F20004FEA1C472CEA074C07FB06F40CFB06F5BE
:100F300004EB15464FEA961634BF00204FF00040F0
:100F40004FEAD13706FB07FC4FEA1C4C0CFB0BF7B2
:100F5000D21B03FB0CF761EB07010CFB0EF7B0EBA8
:100F6000074072EB17420CFB08F734BFA2EB0742B5
:100F7000B2EB074261EB17414FEA0C444FEA91078D
:100F800006FB07FC4FEA1C4C0CFB0BF7B0EBC74011
:100F900072EB573203FB0CF734BFA2EBC742B2EB44
:100FA000C74261EB57310CFB0EF7B0EBC70072EB99
:100FB00057720CFB08F734BFA2EBC702B2EBC702B3
:100FC00061EB5771039F4FEA816141EA921104EB93
:100FD000CC044FEAD1374FEA826206FB07FC42EAB3
:100FE00090124FEA80604FEA1C4C0CFB0BF7D21BAF
:100FF00003FB0CF761EB07010CFB0EF7B0EB0740AE
:1010000072EB17420CFB08F734BFA2EB0742B2EBBE
:10101000074261EB17414FEA8C554FEA910704EB09
:101020009C2406FB07FC4FEA1C4C0CFB0BF7B0EBB7
:10103000C74072EB573203FB0CF734BFA2EBC74239
:10104000B2EBC74261EB57310CFB0EF7B0EBC700B8
:1010500072EB57720CFB08F734BFA2EBC702B2EB7E
:10106000C70261EB577115EB4C254FEA816141EAEC
:1010700092114FEA82624FEAD13742EA901206FBA0
:1010800007FC44F100044FEA80604FEA1C4C0CFB63
:101090000BF7D21B03FB0CF761EB07010CFB0EF700
:1010A000B0EB074072EB17420CFB08F734BFA2EB22
:1010B0000742B2EB074261EB174115EB1C154FEAF3
:1010C000813141EA92414FEA823242EA90424FEA4C
:1010D00080304FEA0C7644F1000448EA03434EEABC
:1010E0000B484FF0000EB2EB080C71EB030724BF66
:1010F000624639464EEB0E0E4FF0000B001852417F
:1011000049414BEB0B0BB2EB080C71EB03077BF186
:10111000000B24BF624639464EEB0E0E4FF0000B1B
:101120000018524149414BEB0B0BB2EB080C71EB31
:1011300003077BF1000B24BF624639464EEB0E0ECF
:1011400051EA020718BF46F0010616EB0E7655F17C
:10115000000254F1000103D5BDE88901BDE8008813
:10116000BDE88901BDE80048B619524141EB0101D3
:10117000A3F10103704780807F7E7D7C7B7A797844
:10118000777676757473727171706F6E6E6D6C6C4C
:101190006B6A6A69686867666665646463636261EE
:1011A0006160605F5F5E5E5D5D5C5C5B5B5A5A596F
:1011B00059585857575656555555545453535252DB
:1011C0005251515050504F4F4F4E4E4D4D4D4C4C33
:1011D0004C4B4B4B4A4A4A4949494848484747477C
:1011E00047464646454545444444444343434342B9
:1011F000424242414141002B9C4630D477002BD0E3
:101200001CB54FEA370703B44FF010004FF0100140
:10121000BAF1000F06D0BCF1000FDCBF40F00800AF
:1012200040F008014FF000000FBCBDE810400BF18A
:10123000010BBBF1010F08BF5FEA170722BF12F1D4
:10124000010211F101014FF0004143F1000300F0F0
:10125000004043EA00007047F9D35708D0E746EA58
:10126000064613F1400F4FEA16461FDD13F1200F1B
:10127000DFBF16430A46002120335B42BED0C3F1D4
:10128000200746EA064602FA07F74FEA164646EAFC
:101290000706C3F1200722FA03F201FA07F721FA41
:1012A00003F14FF0000342EA0702A7E746EA02060D
:1012B00046EA06464FEA164646EA0106BCBF46EA3B
:1012C0000646360C4FF000034FF000024FF00001CD
:1012D00094E72DE9804C9A46934670B491E8380023
:1012E00007C831EA400C48BF34EA430C03D5FFF786
:1012F000E6FDFFF780FFF0BCBDE8008C2DE9804CD7
:101300009A46934670B491E8380007C810F0804FB1
:1013100008BF13F0804F03D100F005F8FFF76BFF13
:10132000F0BCBDE8008C20F07F4780EA030023F08A
:101330007F4C07EB0C03A3F57C5300F00040A3F1B6
:10134000FE0392F0000F00F0B38095F0000F00F064
:1013500077802DE901494FEA11404FEA144621EA0E
:10136000004800FB06FC24EA064708FB06F607FBDC
:1013700008F800FB07F718EB06484CEB164C4FEA51
:10138000124B18EB07484FEA15464CEB174022EA80
:101390000B4E0BFB06FC25EA06470EFB06F607FB89
:1013A0000EFE0BFB07F71EEB064E4CEB164C4FF0F8
:1013B00000061EEB074E4CEB174B18EB0B0840F1E9
:1013C000000018EB0E0B58EB000840F100008F1ADC
:1013D0004FF000013CBFC943661B14BFB5EB040CC2
:1013E00000213CBFC943F61B4FEA17444EEA8E0E5C
:1013F00027EA04454FEA1C4704FB07622CEA074C26
:1014000005FB07F70CFB05F604FB0CFC16EB074687
:1014100042EB174216EB0C4642EB1C421BEB060656
:1014200058EB0202414146EA9E0601D5BDE801891A
:10143000B619524141EB0101A3F10103BDE8018955
:101440004FEA14454FEA114724EA054621EA074CC2
:1014500005FB07F406FB07F70CFB06F105FB0CFC8C
:1014600011EB074144EB17444FEA124711EB0C41D3
:1014700044EB1C4422EA074C05FB07F206FB07F786
:101480000CFB06F605FB0CFC16EB074642EB17427D
:1014900016EB0C4642EB1C456A1854F1000148BF9C
:1014A0007047B619524141EB0101A3F101037047A6
:1014B00095F0000F37D04FEA11424FEA144721EA66
:1014C000024624EA074C02FB07F106FB07F70CFB78
:1014D00006F402FB0CFC14EB074441EB17414FEA06
:1014E000154714EB0C4441EB1C4125EA074C02FB69
:1014F00007F506FB07F70CFB06F602FB0CFC16EBE8
:10150000074645EB174516EB0C4645EB1C421219F6
:1015100051F1000148BF7047B619524141EB01013A
:10152000A3F1010370474FEA14454FEA114724EA3B
:10153000054621EA074C05FB07F106FB07F70CFB04
:1015400006F24FF0000605FB0CFC12EB074241EBE4
:10155000174112EB0C4251EB1C4148BF70479218E7
:1015600041EB0101A3F10103704770B50446006827
:101570008168C943C90716D1816821F001018160E2
:1015800001F098FC054609E001F094FC401B02289C
:1015900004D920688068C043C00706D020688068EE
:1015A000C043C007F0D0002070BDA06A40F010001A
:1015B000A062E06A40F00100E062012070BD10B559
:1015C0000146406A826A12F0500F05D0006A026B31
:1015D000BDE8104008461047816A41F400718162FD
:1015E00001688968C1F3424107290CD1017B51B9D7
:1015F000816A21F480718162816AC90403D4816A9D
:1016000041F00101816200F089FB10BD10B5406A14
:10161000816A41F040018162C16A41F00401C16206
:1016200000F091FB10BD10B5406A00F08BFB10BDBF
:10163000F8B500260446009600688168C943C907CA
:101640002CD0816841F0010181601548154900687E
:10165000B0FBF1F000E0401E00900028FBD101F04B
:1016600029FC054615E001F025FC401B022810D995
:1016700020688068C043C0070BD0A06A40F010000B
:10168000A062E06A40F00100E06284F8246001207A
:10169000F8BD20688068C043C007E4D10020F8BDD1
:1016A0003800002040420F00002808D004490A8872
:1016B00002804A8842808A888280C988C1807047B7
:1016C0000E000020004870474C00002070B5040058
:1016D00000D1344C04F11400FFF7E6FFA08A054660
:1016E00003F060FB304903F071FB304903F044FA2A
:1016F0002060B5F58D6F01D8012000E00020207139
:10170000E08A2B4DC82801D800200EE040F252316B
:10171000884201D3284608E0C83803F043FB294635
:1017200003F054FB234903F027FAA060208BC8285C
:1017300001D800200DE0B0F5C87F01D3284608E0AD
:10174000C83803F02FFB294603F040FB1A4903F089
:1017500013FAE060608B40F2AE7188420BD2A0F2C7
:10176000AE70404203F01EFB144903F02FFB1449F6
:1017700003F002FA13E040F65201884201D800203B
:101780000DE0A0F6520003F00DFB0E4D294603F0CC
:101790001DFB0D4903F0F0F9A84200DD2846206149
:1017A00070BD00004C0000200000204100008D446E
:1017B0000000C84200802244000048430000F0C1FD
:1017C00000C0F5440000F04100A0F54404220249A5
:1017D000024800F08FBB00000600002068000020D7
:1017E000FEE70000014800F07DBD0000DC000020A5
:1017F000014800F077BD0000DC000020014800F047
:1018000071BD000004010020014800F06BBD000024
:101810000401002010B58AB028216846FEF799FE21
:101820000020012103900490CDE906010E24CDE9AA
:101830000814009001900290059069460D4800F050
:101840004FFC0C4800F0BFFF02210A4800F0D8FB13
:10185000084869462830059400F042FC05482830C5
:1018600000F0B1FF03480221283000F0C9FB0AB0A4
:1018700010BD0000DC000020F0B587B00C46074624
:101880001D46164618216846FEF763FE00200094A8
:101890000290CDE9030506AB32466946384600F0B2
:1018A000C1FB07B0F0BD00007CB5044600200090ED
:1018B000019001F00F0040EA82108DF80000164EF2
:1018C000E0681D46B04201DD012000E000208DF8F7
:1018D00001004FF07C51A06803F0ECF803F02AFA05
:1018E000C0B28DF80200642802D964208DF802008D
:1018F0008DF803503146206903F068FA03F0FEF9D1
:101900008DF80400000A8DF8050008236A461121AD
:101910000248FFF7B1FF7CBD00002041DC00002041
:10192000014801F03DB800009800002030B590F863
:1019300040500124AC40C56B6C6004686360436830
:10194000102B036803D099600068C26030BD9A60B4
:101950000068C16030BD0000124810B5B0F9021037
:10196000801D0029B0F9020001DA494209B20028BD
:1019700001DA404200B2084400EBD070401003F09E
:10198000F9F9094903F022FA10F1FF4F01D30020C1
:1019900003E00649884200DD084603F0CBF9C0B2F7
:1019A00010BD00001E000020A69B443B00007F43AA
:1019B00000B589B000200690019001210290CDE988
:1019C00003018DF81400009107AB06AA69460E4882
:1019D00000F028FB28B107AB06AA69460A4800F0C8
:1019E00021FB0220009007AB06AA6946064800F0DA
:1019F00019FB002805D007AB06AA6946024800F08B
:101A000011FB09B000BD00000401002005490020C1
:101A1000088048800871891D08804880087108394D
:101A2000088070471E00002010B588B015A0022461
:101A300000680690002001900290CDE903048DF823
:101A400014000120009007AB06AA69460E4800F07A
:101A5000E9FA28B107AB06AA69460B4800F0E2FA9A
:101A600007AB06AA69460848009400F0DBFA002894
:101A700005D007AB06AA6946034800F0D3FA08B0C0
:101A800010BD00000F0100000401002010B588B057
:101A900002F08CFE012836D11C48032101ABB0F9BD
:101AA0000040002003900490CDE905018DF81C0052
:101AB00001208DF80000210A8DF8011002908DF8A8
:101AC00002406A4602A9124800F0ACFA28B101AB04
:101AD0006A4602A90E4800F0A5FA6042010A8DF894
:101AE00001108DF802000220029001AB6A4602A9A3
:101AF000074800F097FA002805D001AB6A4602A912
:101B0000034800F08FFA08B010BD00001C00002050
:101B10000401002000B589B000200790089008213A
:101B200002900390CDE904018DF8180018486B4627
:101B300007AA40888DF82200000A8DF8230040F2A1
:101B40000320019001A9134800F06CFA28B16B46FC
:101B500007AA01A90F4800F065FA0D486B46801DE1
:101B600007AA40888DF82200000A8DF823004FF460
:101B70000170019001A9074800F054FA002805D02F
:101B80006B4607AA01A9034800F04CFA09B000BD52
:101B90001E000020DC00002070B5FFF793FD044616
:101BA00002F00AFE054602F001FE0021042D12D1CA
:101BB000012810D1A068B0F5000F00DA0BE00A4947
:101BC000884202DB4FF4FA7105E0084903F0FEF8A1
:101BD00003F094F801B206480180801C018048425D
:101BE00003490831088070BD0000C8420000A040D1
:101BF0001C0000200122A0F50073033B06D0B0F5C5
:101C0000017F02D103484180027170470148801F63
:101C1000F9E7000024000020704772B6FEE70000DC
:101C2000F8B50023009390F824201C46012A12D016
:101C3000012280F824204A681F26072A0DD2056851
:101C40006F6B521E02EB82029640B7430E689640BD
:101C500037436F6319E00220F8BD05680D2A0AD2E8
:101C60002F6BD21F02EB82029640B7430E6896405C
:101C700037432F6309E0EF6A0D3A02EB8202964088
:101C8000B7430E6896403743EF620A680726056837
:101C90000A2A0AD3EF680A3A02EB42029640B74397
:101CA0008E6896403743EF6008E02F6902EB4202EE
:101CB0009640B7438E68964037432F610A68102AD2
:101CC00001D0112A20D1124D0268AA4217D195687D
:101CD0002D0219D4956845F400059560096810290E
:101CE00012D10C490C4A0968B1FBF2F101EB8101F8
:101CF000490000E0491E00910029FBD104E0816AFF
:101D000041F020018162012380F824401846F8BD8B
:101D1000002401403800002040420F0000680749BD
:101D200088420AD1064800F1080102880A804288E8
:101D30004A8082888A80C088C88070470024014019
:101D400006000020704770472DE9F0414FF0000673
:101D5000040035467DD0A06A002728B9E76284F8E0
:101D60002470204600F07EF82046FFF7FEFBA16AB3
:101D7000C90600D420B1A06A40F01000A06268E05B
:101D8000A16A21F4885141F00201A1626268E1690F
:101D9000237B0A4346EA43010A43A1684FF4807655
:101DA000B14208D0012906D0002194F814C0BCF13A
:101DB000010F02D00AE03146F7E7F3B1A36A43F01E
:101DC0002003A362E36A43F00103E3622368D3F8CC
:101DD00004C02CF4694C4CEA010CC3F804C021681F
:101DE0008B68DFF874C003EA0C0313438B60A168AF
:101DF000B1420BD0012909D00CE0DFF860C0A36923
:101E00000CEB43330B4343F40061DFE7218A0D05FC
:101E1000A5F580152168CB6A23F470032B43CB62B0
:101E2000216889680E4B1940914208D1E762A16A86
:101E300021F0020141F00101A162BDE8F081A06A38
:101E400020F0020040F01000A062E06A40F00100C3
:101E5000E0620120F1E70000FDF7E1FF00E0FFFF95
:101E6000FE0E1FFF70B586B0002406460094019454
:101E70000294039400681A4988422ED1194988694E
:101E800040F400708861886900F4007004908869EB
:101E900040F0100088618869694600F010000490E5
:101EA0001D200090032001900F4800F013FF104DFB
:101EB0000E48C5E900048020C5E9024040002861C1
:101EC000800068612020C5E90604284600F08CFEE9
:101ED00008B1FFF7A2FE35626E6206B070BD000069
:101EE00000240140001002400010014008000240A0
:101EF000980000202DE9F047894604463B490068D8
:101F00003B4F0E1D9046884201D0B84207D1306841
:101F100010F4702F03D001252846BDE8F08794F80F
:101F2000240001280CD0012084F824002046FFF76B
:101F30007FFB05004FF0000104D084F82410EBE78C
:101F40000220EAE7A06A40F60162904340F4807004
:101F5000A0622068B84218D1326812F4702F14D0F1
:101F6000A06A40F48010A0623068400505D5A06AE0
:101F700020F4005040F48050A062A06AC0040AD54A
:101F8000E06A20F00600E06206E0A26A22F4801215
:101F9000A2624068E9E7E16284F82410216A1548EA
:101FA0008862216A1448C862216A1448086321685B
:101FB0006FF0020008602068816841F480718160E0
:101FC000216843464A464C31206A00F04BFE2068A7
:101FD0008168C1F342410729816803D041F480112F
:101FE000816099E741F4A001FAE700000024014074
:101FF00000280140BF150008271600080D1600082C
:1020000090F82020012A07D0022A05D0416A41F425
:102010008021416201207047006842690A434261A1
:1020200000207047F0B590F820500468A468012D96
:1020300005D0022D03D0416A41F480214DE014F017
:10204000406F01D1E50045D5C4F301640125A540E9
:102050001D608B684FF4C0759BB1CE6833434E68EA
:1020600043EAC603066805EB0417F3514FF4C27345
:10207000076803EB04130E69FE50097D012905D0A2
:1020800009E00E88CB6843EA4653EBE70168CE5877
:1020900046F48076CE501179D2F805304FF4C676EA
:1020A00041EA0321036806EB041699511178D2F82E
:1020B00001204FF4C47341EA0221026803EB0413C8
:1020C000D150006805EB0411425842F00102425021
:1020D0000020F0BD416A41F4001141620120F0BDD1
:1020E00010B590F82020012A07D0022A05D0416AB5
:1020F00041F480214162012010BD3B48D0F800220C
:1021000042F00102C0F80022D0F8002222F47C52F2
:10211000C0F80022D0F800224B6A42EA0322C0F83D
:1021200000220A7D02F01F0301229A40D0F81C32DF
:102130009343C0F81C32CB69B3B9D0F80C32934347
:10214000C0F80C328C894B6864F31F434C6900EB78
:10215000C404C4F840320C890B6864F31F434C6913
:1021600000EBC404C4F84432CB69012B16D1D0F87B
:102170000C321343C0F80C320C884B6864F31F43D5
:102180004C6900EBC404C4F840320C89CB6864F39A
:102190001F434C6900EBC404C4F844328B69002B24
:1021A000D0F804320ED01343C0F804320B69002B70
:1021B000D0F8143208D01343C0F81432096A012948
:1021C00004D008E09343EFE79343F5E7D0F81C12FF
:1021D0001143C0F81C12D0F8001221F00101C0F820
:1021E0000012002010BD00000064004000F094BA0E
:1021F00070B590F82040012C05D0022C03D0416A24
:1022000041F4802128E0046809B32469A40720D0A0
:102210004FF4D874056804EB01142D5915F004052A
:10222000956005682D591AD0ED08556005682C5940
:1022300004F00204D4604FF4DA74056804EB01146E
:102240002E5906F00F06082E0CD308250DE0E46881
:10225000DCE7416A41F400114162012070BD6D0D5F
:102260001560E3E72D5905F00F05156105682D5937
:10227000C5F30725956105682C59240C54614FF46A
:10228000DC72046802EB0112A4581C700468A458A4
:10229000240A5C700468A458240C9C700468A2583A
:1022A000120EDA704FF4DE72046802EB0112A458C9
:1022B0001C710468A458240A5C710468A458240C96
:1022C0009C710468A258120EDA71006829B1016984
:1022D00041F020010161002070BDC16841F0200182
:1022E000C160F8E72DE9F05F054600680024466903
:1022F000D0F804908768D0F80CB0D0F810A0D0F8CF
:102300001880F10748D0F90714D001218160B8077F
:1023100003D5284600F083FA0CE0780702D54FF485
:10232000006407E0380702D54FF4805402E02846E5
:1023300000F074FAF80516D529684FF480708860AB
:10234000B80503D5284600F06CFA0CE0780502D5F4
:1023500044F4005407E0380502D544F4804402E018
:10236000284600F05DFAF80316D529684FF480304E
:102370008860B80303D5284600F055FA0CE07803CE
:1023800002D544F4004407E0380302D544F4803415
:1023900002E0284600F046FA300707D55FEACB6036
:1023A00004D52968102044F40074C86070074FF009
:1023B000080707D55FEA0B7004D52868C760284670
:1023C00000F0BBF9B00706D52868C068800702D0C6
:1023D000284600F0B3F9700607D55FEACA6004D555
:1023E0002968102044F480640861B00607D55FEACC
:1023F0000A7004D528680761284600F0D9F9F0066C
:1024000006D528680069800702D0284600F0D1F977
:10241000B00308D55FEAC96005D529681020486077
:10242000284600F0CFF9F00307D55FEA097004D51C
:1024300028684760284600F0F7F9300446D55FEA7F
:10244000497040D5F00504D55FEAC87001D044F06A
:102450000104B00504D55FEA887001D544F0020498
:10246000700504D55FEA487001D544F004043005D6
:1024700029D518F0700F26D008F07000402815D02C
:1024800006DC102809D020280AD0302816D10AE00E
:1024900050280ED0602811D10EE044F008040DE061
:1024A00044F010040AE044F0200407E044F0400443
:1024B00004E044F0800401E044F4807428688169F9
:1024C00021F070018161296804204860002C05D04A
:1024D000686A204368622846FFF788FEBDE8F09FDF
:1024E00070B5040003D094F8200010B104E001207E
:1024F00070BD204600F082F82068016841F00101BB
:10250000016000F0D7FC0546052604E000F0D2FC8F
:10251000401B0A2811D820684068C007F6D0206800
:10252000016821F00201016000F0C4FC05460BE0E7
:1025300000F0C0FC401B0A2806D9606A40F4003055
:10254000606284F82060D2E7206840688007EFD49A
:10255000207E0128206801683DD021F080010160C3
:10256000607E01282068016838D021F040010160B8
:10257000A07E01282068016833D021F0200101608D
:10258000E07E0128206801682ED041F01001016032
:10259000207F01282068016829D021F0080101600E
:1025A000607F01282068016824D021F004010160C7
:1025B000D4E902010843D4E90412114308436168D5
:1025C000491E08432168C86100206062012084F828
:1025D0002000002070BD41F08001C0E741F04001C3
:1025E000C5E741F02001CAE721F01001CFE741F033
:1025F0000801D4E741F00401D9E70000F0B585B047
:102600000021404B009101910291039101683C4FE0
:102610001868BC14022503263B4A401CB94230D13D
:102620001860012807D1D06940F00070D061D069EE
:1026300000F000700490906940F00400906190698F
:10264000324F00F0040004904FF40060009069469F
:10265000384600F03FFB694638460396CDE9004511
:1026600000F038FB00221146132000F08FFC1320ED
:1026700000F07EFC00220121142000F087FC1420D1
:1026800039E0234FB94238D1D16941F08061D1613D
:10269000D169012801F080610491186007D1D069E7
:1026A00040F00070D061D06900F000700490906933
:1026B00040F0080090619069009400F00800154C0B
:1026C00004906946204600F005FB6014CDE9000542
:1026D00069460396204600F0FDFA002211463F208D
:1026E00000F054FC3F2000F043FC00220121402078
:1026F00000F04CFC402000F03BFC05B0F0BD0000B9
:102700000064004018000020001002400008014052
:1027100000680040000C014090F820200021012AB0
:1027200008D0022A06D0416A41F480214162012189
:102730000846704700224262FAE7704710B58AB037
:10274000044607AB6A460021FFF752FD002827D157
:1027500016492068884223D10098012801D0022818
:102760001ED1049806281BD19DF81C000F2817D1F4
:102770009DF81D00012813D1DDF81E009DF82110E1
:1027800000BA20F0FF000843C11700EB91708010E1
:1027900001B20098012805D04FF40170FFF72AFA22
:1027A0000AB010BD40F20320F8E7000000680040C6
:1027B000704700B589B007AB6A460121FFF718FDE5
:1027C00009B000BD704770B5044690F8200001289C
:1027D00004D0606A40F40020606217E0022084F8B0
:1027E00020002068016821F00101016000F062FB17
:1027F00005460DE000F05EFB401B0A2808D9606A20
:1028000040F400306062052084F82000012070BD93
:1028100020684068C007EDD1606270BD70477047A6
:102820007047704770477047704710B590F8211097
:102830000022022905D00421816380F82020012094
:1028400010BD01680B6823F00E030B6001680B6874
:1028500023F001030B6090F84030012404FA03F1E7
:10286000C36B596080F8214080F82020104610BDCD
:102870002DE9F05F90F821100024022903D00421F3
:102880008163012485E001680A6822F00E020A6073
:1028900001680A6822F001020A603F4E3E4FB215FD
:1028A000DFF8F4C0DFF8F090DFF8ECA0DFF8E8B074
:1028B000DFF8E4E00168783F13011502ACF1640C25
:1028C000A9F15009AAF13C0AABF1280BAEF1140EA4
:1028D0004FF48018B14227D9B9420ED0614512D0C9
:1028E00049451DD0514518D0594518D0714501D1E1
:1028F000424615E0294EB14201D1012210E0274E97
:102900001436B14201D110220AE0244E2836B142D9
:1029100006D0224A3C32914201D11A4600E02A46B2
:102920001E49091F0A602BE0B94213D0614517D038
:10293000494522D051451DD059451DD0714501D181
:1029400042461AE0B14202D14FF0807215E0134EB8
:10295000B14201D1012210E0104E1436B14201D132
:1029600010220AE00D4E2836B14206D00B4A3C3206
:10297000914201D11A4600E02A46074980394A604F
:10298000012180F82110002180F82010416B01B155
:1029900088472046BDE8F09F8000024008040240BE
:1029A0002DE9F05FC16B0B6801680A68046C4FF099
:1029B000040808FA04F8844D844E854FDFF814C2E9
:1029C000DFF81492DFF814A2DFF814B2DFF814E293
:1029D00018EA030F65D05FEA427862D50A6892066A
:1029E00003D40A6822F004020A60DFF8F0814FF491
:1029F0008062016808F1140813011402414524D9CA
:102A0000A9420DD0B1420FD0B9421AD0614515D0BC
:102A1000494515D0514501D1120312E0594501D164
:102A200004220EE0714501D140220AE06D4D1435BB
:102A3000A94206D06B4A2832914201D11A4600E0E1
:102A400022466749091F0A6029E0A94213D0B14212
:102A500015D0B94220D061451BD049451BD0514506
:102A600002D14FF4800217E0414502D14FF080625D
:102A700012E0594501D104220EE0714501D14022F6
:102A80000AE0584D1435A94206D0564A28329142E0
:102A900001D11A4600E022464B4908394A60C16A12
:102AA00071E04FF0020808FA04F818EA030F70D03A
:102AB0005FEA82786DD50A68920606D40A6822F029
:102AC0000A020A60012180F82110DFF810814FF41A
:102AD0000072016808F1140813011402414524D959
:102AE000A9420DD0B1420FD0B9421AD0614515D0DC
:102AF000494515D0514501D1120312E0594501D184
:102B000002220EE0714501D120220AE0354D143534
:102B1000A94206D0334A2832914201D11A4600E038
:102B200022462F49091F0A6029E0A94213D0B14269
:102B300015D0B94220D061451BD049451BD0514525
:102B400002D14FF4001217E0414502D14FF000725C
:102B500012E0594501D102220EE0714501D1202237
:102B60000AE0204D1435A94206D01E4A283291426F
:102B700001D11A4600E02246134908394A60002173
:102B800080F82010816A00291CD0BDE8F05F08475A
:102B9000FFE70825A5401D4214D0120712D50A6888
:102BA00022F00E020A6090F84020C36B012101FA66
:102BB00002F25A60816380F82110002180F8201011
:102BC000016BE0E7BDE8F09F080002401C000240F6
:102BD0003000024044000240580002406C000240B5
:102BE000080402401C04024030B560B11A4B016871
:102BF0001422994209D2194B0B44B3FBF2F2920012
:102C00000264174A0AE0012030BD134B5B420B44BB
:102C1000B3FBF2F2920002640F4A083AC263022246
:102C200080F821200A6843F6F0739A43F0E90134F2
:102C30002343D0E902452C432343046923434469D9
:102C400023438469234313430B6000214163012222
:102C500042770177084630BD08040240F8FFFDBF07
:102C60000000024070B5044690F8200000250128BD
:102C70000CD0012084F8200094F821600020012E5F
:102C800006D084F820000225284670BD022070BDC1
:102C9000022684F82160A0632068066826F00106F9
:102CA00006602046FEF742FEE06A002820680168C0
:102CB00002D041F00E0106E021F00401016020681D
:102CC000016841F00A0101602068016841F00101DA
:102CD0000160D9E72DE9F84FDFF8A4910024A9F1AC
:102CE000040B23464FF00F0809F1040AABF1040E60
:102CF000BEE00127A7403A40BA4272D1DFF884C152
:102D00004D68A5EB0C0665452BD00DDC032D34D0AA
:102D100005DC35B3012D19D0022D2FD11BE0112D6B
:102D200016D0122D2AD119E0B6F5881F19D006DC6D
:102D3000B6F5803F15D0B6F5801F1FD111E0B6F56E
:102D4000001F0ED0B6F5041F18D10AE0CB6815E0BD
:102D5000CB681B1D12E0CB6808330FE0CB680C3347
:102D60000CE08B682BB1012B4FF0080303D04761B7
:102D700004E0042302E0076100E00023FF2A01D8F9
:102D8000064601E000F104064FEA840501D9A5F1E9
:102D90002005376808FA05FC27EA0C0703FA05F551
:102DA00047EA050737604D68ED0060D5364DAE69DE
:102DB00046F00106AE61AD6924F0030605F0010599
:102DC0000095324D7719BE68A5072D0F08FA05FC4E
:102DD00026EA0C06DFF8B8C0604503D14FF0000CBE
:102DE00017E044E0DFF8ACC0604502D14FF0010CC1
:102DF0000FE0DFF8A4C0604502D14FF0020C08E0FC
:102E0000DFF898C0604502D14FF0030C01E04FF0AD
:102E1000040C0CFA05FC4CEA060CC7F808C04D6817
:102E2000D9F80060ED024D4601D5164300E0964307
:102E30002E604D68DAF80060AD02554601D51643A4
:102E400000E096432E604D68DBF80060AD035D4600
:102E500001D5164300E096432E604D68DEF8006011
:102E6000ED03754601D5164300E096432E60641CC1
:102E70000A6832FA04F57FF43CAFBDE8F88F000031
:102E80000804014000001110001002400000014041
:102E900000080140000C01400010014000140140F6
:102EA0008068084000D0012070470AB10161704776
:102EB0000904FBE701488068704700002C000020EF
:102EC0000248816802781144816070472C0000201C
:102ED000074810B5016841F010010160032000F0BF
:102EE00075F80F2000F006F800F024F8002010BD5F
:102EF0000020024070B50D4D04464FF47A712878D9
:102F0000B1FBF0F00A490968B1FBF0F000F022FCD7
:102F100048B9102C07D200222146501E00F036F886
:102F200000206C6070BD012070BD00002C000020EE
:102F3000380000200C4808B5816941F00101816129
:102F4000816901F001010091C16941F08051C161C5
:102F5000C069064900F080500090486820F0E060A9
:102F600040F00070486008BD0010024000000140C1
:102F7000002809DB00F01F02012191404009800078
:102F800000F1E020C0F8001170470000F0B40E4BD3
:102F90001B68C3F30223C3F10704042C00D90424E3
:102FA0001D1D072D01D2002300E0DB1E012606FABD
:102FB00004F56D1E0D409D409E40761E164045EA6C
:102FC0000601F0BC01F0AABC0CED00E0064A00F0DE
:102FD000070110684FF6FF03184040EA012003493B
:102FE00008431060704700000CED00E00000FA0597
:102FF0002DE9F84F044600785C4D4FF00008C007FB
:103000004FF0010A4FD0E8690026C00008D4E869F3
:1030100040F08050E861E869012600F0805000909F
:1030200053480168C90511D40168814641F4807193
:103030000160FFF73FFF074604E0FFF73BFFC01BBF
:10304000642879D8D9F80000C005F6D5286A10F4AC
:1030500040701DD0A18801F44071814218D0286AC7
:10306000444920F44070C1F800A000220A602862A0
:10307000C0070DD0FFF71EFF074641F2883904E074
:10308000FFF718FFC11B494556D8286A8007F7D5B6
:10309000286A616820F44070084328621EB1E8691C
:1030A00020F08050E8612078800705D56868A16825
:1030B00020F44040084368602078400705D5E86A5E
:1030C000E16820F400300843E8622078000705D565
:1030D000E86A216920F480200843E862E86A8003F6
:1030E00005D4E86A400302D4B8F1000F33D0286851
:1030F000C00028D42868400105D5E86AA16900F01D
:10310000F000884225D1E86AA16920F0F000084368
:10311000E862E86A616920F470400843E862164991
:10312000C1F870A0FFF7C6FE064608E004E0FFF70E
:10313000C1FE801B642802D90320BDE8F88F2868EF
:103140008000F4D507E0E86A616900F470408842C5
:1031500001D00120F1E72078C00605D56868E16953
:1031600020F48000084368600020E6E70010024079
:103170000070004040044242000042422DE9F04706
:103180000D46040067D0DFF81881D8F8000000F081
:103190000700A8420CD2D8F8001021F007012943FB
:1031A000C8F80010D8F8000000F00700A84252D17B
:1031B00020683C4E810712D5400703D5706840F463
:1031C000E06070602078000703D5706840F46050BC
:1031D00070607068A16820F0F0000843706020788B
:1031E000C00727D06068012810D03168022810D0AD
:1031F000890700292FDA716821F00301014371600A
:10320000FFF758FE074641F288390CE03168890320
:10321000EFE78901EDE7FFF74DFEC11B494502D9F4
:103220000320BDE8F0877068616800F00C00B0EB27
:10323000810FF0D1D8F80010404601F00701A942F3
:103240000BD9016821F0070129430160006800F0F3
:103250000700A84201D00120E3E72078400705D508
:103260007068E16820F4E06008437060207800072F
:1032700006D57068216920F4605040EAC100706092
:1032800000F038F87168084AC1F30311515CC84076
:103290000649086006480068FFF72CFE0020C0E7DA
:1032A000002002400010024070500008380000204A
:1032B000300000200448054900684968044AC1F309
:1032C0000221515CC84070473800002000100240C5
:1032D000805000080448054900684968044AC1F361
:1032E000C221515CC84070473800002000100240E5
:1032F000805000082DE9F0411D4B59681D4801F030
:103300000C02042A2ED0082A2CD11B48C1F3834278
:10331000845CC80328D5D86A174900F00F000E3125
:10332000085CD96AC90316D5D96AC1F30312D96AF0
:10333000521CC1F30321891CA2FB0023A1FB04172B
:103340000C4D0026A1FB050C07FB05C501FB065132
:10335000FCF77EFF03E007496143B1FBF0F00D2C61
:1033600000D14008BDE8F08104486043FAE700005E
:103370000010024000127A005250000800093D007F
:103380002DE9F84F04006ED02078ED4DC00747D0EE
:103390006868C0F38100012807D06868C0F3810025
:1033A000022809D16868C00306D52868800337D58C
:1033B000A0680028E7D033E0A068B0F5803F0BD0CC
:1033C00010B1B0F5A02F11D0286820F4803028600B
:1033D000286820F4802002E0286840F480302860CB
:1033E000A06888B1FFF766FD064609E0286840F44A
:1033F00080202860F0E7FFF75DFD801B642874D80B
:1034000028688003F7D50BE0FFF754FD064604E07B
:10341000FFF750FD801B6428F1D828688003F7D49B
:103420002078C84E80074FF0010A4FF000073AD5C8
:10343000686810F00C0F07D06868C0F3810002289C
:1034400009D16868C00306D42868800715D560696B
:10345000012808D111E06069B8B1C6F800A0FFF7F3
:1034600029FD804606E041E1FFF724FDA0EB0800BE
:103470000228C4D828688007F6D52868A16920F0FA
:10348000F80040EAC10028600DE03760FFF712FD48
:10349000804605E0FFF70EFDA0EB08000228AED83D
:1034A00028688007F6D4207800072DD5A648E16962
:1034B000E1B1C0F800A0FFF7FDFC804605E0FFF792
:1034C000F9FCA0EB0800022899D8686A8007F6D5B5
:1034D0009E484FF4FA510068B0FBF1F0009000BF35
:1034E0000098411E0091FAD20EE0B1E00760FFF7AC
:1034F000E1FC804605E0FFF7DDFCA0EB08000228B8
:103500008AD8686A8007F6D42078400762D5E869CF
:103510004FF00009C00009D4E86940F08050E8612C
:10352000E8694FF0010900F0805000908848016878
:10353000C90512D40168834641F480710160FFF728
:10354000B9FC804605E0FFF7B5FCA0EB0800642855
:103550007ED8DBF80000C005F5D5206901280AD027
:1035600008B1052813D0286A20F001002862286AD3
:1035700020F0040002E0286A40F00100286220697F
:1035800041F2883B90B1FFF795FC80460AE0286A3B
:1035900040F004002862EEE7FFF78CFCA0EB080186
:1035A000594555D8286A8007F6D50CE0FFF782FC0C
:1035B000804605E0FFF77EFCA0EB0801594547D89F
:1035C000286A8007F6D4B9F1000F03D0E86920F02B
:1035D0008050E861E06AE0B36968C90307D56968AB
:1035E000C1F38101022902D1E96AC9037ED402280C
:1035F00008D0E86A20F48030E862B766FFF75AFC2A
:1036000080463BE02868C00005D5E86A616B00F0A1
:10361000F00088426AD1B766FFF74CFC804605E0AF
:10362000FFF748FCA0EB0800642871D82868000167
:10363000F6D4E86A616B20F0F0000843E862E86ABB
:10364000216B20F470600843E862C6F868A001E0CE
:103650005EE016E0FFF72EFC804605E0FFF72AFC4F
:10366000A0EB0800642853D828680001F6D508E0CC
:10367000FFF720FCA0EB0800642849D82868000167
:10368000F6D4206A98B36968C1F38101022946D053
:103690000228376603D0FFF70DFC04463BE0FFF736
:1036A00009FC074604E0FFF705FCC01B02282FD8E1
:1036B00028688001F7D4606AB0F5803F09D1E86AD4
:1036C00061680843E862E86AE16820F00F00084397
:1036D000E862D4E909010843696821F474110843D8
:1036E0006860C6F860A0FFF7E5FB01E024E025E094
:1036F000044604E0FFF7DEFB001B022808D8286818
:103700008001F7D51AE0FFF7D5FB001B022802D98C
:103710000320BDE8F88F28688001F4D40EE001286A
:10372000F7D06868626A00F48031914204D1A16ADE
:1037300000F47010884201D00120EAE70020E8E799
:103740000010024000004242800442423800002043
:103750000070004010B5401EB0F1807F01D3012001
:1037600010BD4FF0E02460610F21601701F0D6F822
:103770000020A06107202061002010BD7047704725
:1037800070B590F83C20012A29D0012580F83C50E2
:10379000022280F83D2002685368946823F0700686
:1037A0000B68334353600F4B02689A420BD0B2F15F
:1037B000804F08D00C4B9A4205D00C4B9A4202D055
:1037C0000B4B9A4204D1496824F08003194391605D
:1037D00080F83D50002180F83C10084670BD022062
:1037E00070BD0000002C01400004004000080040B3
:1037F000000C004010B5040003D094F83D0010B157
:1038000007E0012010BD002084F83C00204600F0B5
:103810001FF8022084F83D00211D206800F0A0FD63
:10382000012084F8460084F83E0084F83F0084F8C4
:10383000400084F8410084F8420084F8430084F892
:10384000440084F8450084F83D00002010BD0000CD
:1038500008B500680B49884212D10B48C16941F094
:103860000201C161C069002200F002000090032142
:103870001D20FFF78BFBBDE808401D20FFF778BB3C
:1038800008BD0000000400400010024090F83D1008
:10389000012901D001207047022180F83D10016804
:1038A000CA6842F00102CA6000680D4988420BD024
:1038B000B0F1804F08D00B49884205D00A498842B0
:1038C00002D00A49884204D1816801F00701062923
:1038D00003D0016841F00101016000207047000041
:1038E000002C01400004004000080040000C004093
:1038F00070B5044690F83C000025012817D0012639
:1039000084F83C60022084F83D002068826822F040
:10391000770222F47F4282600868502838D00DDC9C
:1039200020284FD005DC90B3102811D14AE00220A6
:1039300070BD302846D040280AD13BE060282FD007
:1039400070280DD0B0F5805F03D0B0F5005F12D0C5
:10395000012584F83D60002084F83C00284670BDB5
:10396000CB68D1E90121206800F03EFD2068816824
:1039700041F0770109E0CB68D1E90121206800F02E
:1039800033FD2068816841F480418160E1E719E0FE
:10399000CA684968206800F039FD5021206806E0B7
:1039A000CA684968206800F042FD6021206800F084
:1039B00025FDCEE7CA684968206800F027FD402150
:1039C0002068F4E7226801461046F0E770472DE9C9
:1039D000F04104460068C66805694FF00007A90772
:1039E00013D5B10711D5F91E016101202077206898
:1039F00080698007204602D0FFF7E8FF04E000F06E
:103A00007EF8204600F07CF82777680716D5700707
:103A100014D521686FF00400086102202077206827
:103A2000806910F4407F204602D0FFF7CFFF04E00A
:103A300000F065F8204600F063F82777280715D5D1
:103A4000300713D521686FF0080008610420207743
:103A50002068C0698007204602D0FFF7B7FF04E066
:103A600000F04DF8204600F04BF82777E80616D511
:103A7000F00614D521686FF0100008610820207747
:103A80002068C06910F4407F204602D0FFF79EFFF7
:103A900004E000F034F8204600F032F82777E80719
:103AA00008D0F00706D021686FF0010008612046B9
:103AB00000F028F8280608D5300606D521686FF0F2
:103AC000800008612046FFF759FE680608D5700699
:103AD00006D521686FF040000861204600F084F8A8
:103AE000A8060AD5B00608D521686FF02000086145
:103AF0002046BDE8F041FFF742BEBDE8F0817047C7
:103B00007047000000683649884267D1354B4FF056
:103B100000011878401C10F0FF021A7003F1080031
:103B200004D01970027842F0010202705A78521CD7
:103B3000D2B25A70022A04D35970027842F00202BB
:103B400002709A78521CD2B29A70052A04D39970E6
:103B5000027842F004020270DA78521CD2B2DA70B3
:103B60000A2A04D3D970027842F0080202701A7946
:103B7000521CD2B21A71322A04D31971027842F05F
:103B8000100202705A79521CD2B25A71642A04D3BC
:103B90005971027842F0200202709A79521CD2B216
:103BA0009A71C82A04D39971027842F040020270D7
:103BB0005A89521C92B25A81B2F5FA7F04D35981C4
:103BC000027842F0800202709A89521C92B29A8165
:103BD000B2F57A7F02D399810121417070470000CC
:103BE000000400403C000020704770477047000010
:103BF000F8B5016804460868CA684B6910F00F0FF1
:103C00004FF0000559D003F0010602F490773743D6
:103C100065D0C10705D0D10503D5616C41F0010124
:103C20006164410705D5D90703D0616C41F00201F9
:103C30006164810705D5D90703D0616C41F00401A7
:103C40006164010707D502F02001314303D0616CA4
:103C500041F008016164616C00293AD0800604D506
:103C6000900602D5204600F02CFC20684069616C6B
:103C7000C0F38010090700D460B3204600F0FAFBBF
:103C800020684069400621D52068143050E8001FA4
:103C900021F0400140E80012002AF5D1E06BA8B104
:103CA0006D494163E06BFEF7E3FD002811D0E06B46
:103CB000416B01B0BDE8F040084783060FD593067D
:103CC0000DD52046BDE8F84000F0FBBB2046FFF7CD
:103CD0008DFFF8BD2046FFF789FF6564F8BD266BB0
:103CE0002023012E7CD1C6067AD5D60678D5086861
:103CF0004868009048694FF00206400640D5E16BE5
:103D0000086840680004000CE8D0A28D8242E5D922
:103D1000E085886920282DD020680C3050E8001FED
:103D200021F4807140E80012002AF5D12068143097
:103D300050E8001F21F0010140E80012002AF5D1EF
:103D40002068143050E8001F21F0400140E80012C4
:103D5000002AF5D184F84230256320680C3050E801
:103D6000001F21F0100140E80012002AF5D1E06B9D
:103D7000FEF75BFD6663A08DE18D401A81B22AE0FB
:103D8000A08DE18D401A81B2E08D0028A6D00029D7
:103D9000A4D020680C3050E8002F22F4907240E844
:103DA0000027002FF5D12068143050E8002F22F0B2
:103DB000010240E80027002FF5D184F84230256346
:103DC00020680C3050E8002F22F0100240E8002359
:103DD000002BF5D166632046FFF707FFF8BDFFE72C
:103DE00005062BD5150629D594F841002128F5D1D3
:103DF000A068B0F5805F01D12069B0B1206A411C94
:103E00002162216800784860E08C401E0004000CAC
:103E1000E084E3D12068C16821F08001C16020689E
:103E2000C16841F04001C160D8E7206A0088C0F352
:103E300008004860206A801C2062E5E74006CDD576
:103E40005006CBD5CA68204622F04002CA6084F8EA
:103E5000413000F0C6F8C1E76544000870B50400C1
:103E600004D094F84100002510B106E0012070BD97
:103E700084F84050204600F023F8242084F84100C4
:103E80002068C16821F40051C160204600F07AFB2F
:103E90002068016921F4904101612068416921F0A5
:103EA0002A0141612068C16841F40051C160656424
:103EB000202084F8410084F842006563002070BD32
:103EC00030B585B0002400940194029403940068F6
:103ED000184988422CD11848816941F48041816198
:103EE000816901F480410491816941F0040181619B
:103EF0008069124D00F0040004904FF400700090AF
:103F0000022001900320039069462846FEF7E2FE56
:103F10002815CDE90004694628460294FEF7DAFE2A
:103F200000220F212520FFF731F82520FFF720F888
:103F300005B030BD003801400010024000080140CB
:103F400070472DE9F843044690F841001F46154696
:103F50000E46202802D00220BDE8F8838EB185B13C
:103F600000206064212084F84100FEF7A3FFA584AF
:103F70008146E584A0684FF02008B0F5805F02D04C
:103F800003E00120E8E7206910B1354600260EE085
:103F900000250CE08021204600F050FBA0B9BDB107
:103FA00015F8010B21684860E08C401EE084E08C2D
:103FB0004B464FF0000200970028EBD14FF0400134
:103FC000204600F03BFB40B184F841800320C3E76A
:103FD00036F8020BC0F30800E4E784F841800020C3
:103FE000BAE77047FEE700003EB500212248009185
:103FF0000191204A029102609215826001240473AB
:10400000017504254FF460220561C2614160FDF72E
:104010009BFE08B1FDF701FE0A20CDE90004032450
:10402000694615480294FDF7FBFD08B1FDF7F5FD63
:104030000C2000900220019069460F48FDF7F0FD2A
:1040400008B1FDF7EAFD0D20CDE9000469460A48F4
:10405000FDF7E6FD08B1FDF7E0FD0E20CDE9000516
:1040600069460548FDF7DCFD002801D0FDF7D5FDC8
:104070003EBD00000024014068000020104810B53B
:104080000E4901600621416000214FF4E022816069
:10409000C0E903124FF40012426101760122427618
:1040A0008276C17601774177FEF71AFA002803D0AD
:1040B000BDE81040FDF7B1BD10BD00000064004038
:1040C000DC000020104810B50E4901600621416057
:1040D00000214FF4E0228160C0E903124FF4001286
:1040E00042610176012242768276C176017741777C
:1040F000FEF7F6F9002803D0BDE81040FDF78DBDAE
:1041000010BD00000068004004010020094808B507
:10411000416941F0010141614069002200F0010064
:10412000009011460B20FEF731FFBDE808400B2040
:10413000FEF71EBF001002402DE9F04786B00024B4
:1041400033480094019402940394816941F0400142
:104150008161816901F040010491816941F01001A0
:104160008161816901F010010491816941F00801C8
:104170008161816901F008010491816941F02001A8
:104180008161816901F020010491816941F004019C
:1041900081618069012200F00400DFF87890170245
:1041A000049039464846FEF780FEDFF86CA00022F6
:1041B00080215046FEF779FE012251025046FEF75B
:1041C00074FE0225DFF85480CDE9005401266946CB
:1041D00040460296FEF77EFD04208DE831006946D8
:1041E0004046FEF777FDCDE9007669464846CDE9C1
:1041F0000245FEF76FFD4FF42070CDE900066946D9
:104200005046CDE90245FEF765FD06B0BDE8F087F2
:104210000010024000140140000C01400018014051
:1042200010B586B0002417480094019402940394BA
:10423000049413490594016041F61F41C0E901143B
:104240000921C0E903148461FFF7D4FA08B1FDF72E
:10425000E4FC4FF48050009069460A48FFF748FBA1
:1042600008B1FDF7DAFC049404A906480594FFF7A9
:1042700087FA002801D0FDF7D0FC06B010BD000081
:10428000000400402C0100200C4810B50A490160D0
:104290004FF4E1314160002181600C22C160C0E92E
:1042A00004128161C161FFF7D9FD002803D0BDE888
:1042B0001040FDF7B2BC10BD003801407401002071
:1042C000FEE7FEE770477047FEF7FABD70B59CB099
:1042D00038216846FCF73DF914210EA8FCF739F99E
:1042E000202113A8FCF735F9012500242804CDE985
:1042F00002040226CDE908600095059501944FF46B
:10430000E010CDE90A046846FFF73AF808B172B642
:10431000FEE70F20CDE90E064FF48060CDE9104096
:1043200002210EA81294FEF729FF08B172B6FEE72B
:104330004FF400401590139613A8FEF759FE08B1EC
:1043400072B6FEE7014805671CB070BD000042422E
:10435000704700000148FFF73ABB00002C01002025
:10436000F0B502681C4C1D4D1D4E1E4F4FF0804C89
:10437000A04207D0604505D0A84203D0B04201D08A
:10438000B84203D122F070034A681A43A04207D012
:10439000604505D0A84203D0B04201D0B84203D155
:1043A00022F44073CA681A434B6922F080021A4310
:1043B00002608A68C2620A688262A04201D1096909
:1043C0000163012141610169C90703D0016921F03D
:1043D00001010161F0BD0000002C0140000400401B
:1043E00000080040000C004010B5846842EA032237
:1043F00024F47F440A432243826010BD826822F085
:1044000070020A4342F007018160704710B5046AE8
:10441000036A23F001030362836923F0F00343EA94
:10442000021324F00A020A438361026210BD10B530
:10443000036A046A24F010040462846923F0A00370
:1044400024F4704444EA023243EA011182610162B9
:1044500010BD00000A46014664230148FFF771BD04
:104460007401002010B5406A0021C185C184FFF7A6
:10447000BDFB10BD01680C3151E8002F22F4907291
:1044800041E80023002BF5D10168143151E8002FD9
:1044900022F0010241E80023002BF5D1016B012934
:1044A00009D101680C3151E8002F22F0100241E8D7
:1044B0000023002BF5D1202180F842100021016358
:1044C000704708B590F84210222901D0022008BD9B
:1044D00081684FF48053994201D1026922B1826A06
:1044E00099421BD049B10AE00268816A5268C2F35E
:1044F00008020A80816A891C08E0016971B10168BB
:10450000496801F07F011170816A491C8162C18D87
:10451000491E0904090CC18503D01BE001684968E4
:10452000F1E70168CA6822F02002CA600168CA681F
:1045300022F48072CA6001684A6922F001024A616D
:10454000202180F8421000214163026B012A03D030
:10455000FFF7F6FC002008BD016301680C3151E84B
:10456000002F22F0100241E80023002BF5D1016852
:104570000A68D20602D50A6849680091818DFFF762
:1045800034FBE7E770B5044600680169E26821F48E
:10459000405111430161A1682069014360690143F1
:1045A0002068C26841F20C639A430A43C2602068E3
:1045B0004169A26921F44071114341611E4920689B
:1045C000884202D1FEF786FE01E0FEF773FE00EBA3
:1045D000C00101EB0011606864228000B1FBF0F3C0
:1045E000B3FBF2F36FF018067343B1FBF0F5B1FBC8
:1045F000F0F605EB8305322303EB0515B5FBF2F569
:10460000B6FBF2F605F0F00505EB0615B1FBF0F68A
:10461000B1FBF0F0B0FBF2F06FF01801484306EB8D
:10462000800003EB0010B0FBF2F0216800F00F00F7
:104630002844886070BD0000003801402DE9F8432F
:104640001F4690460D460446089E23E0701C21D06C
:10465000FEF730FCC01BB0421AD8CEB12068C1684A
:10466000490717D5802D15D0402D13D00168C943B7
:1046700009070FD401680025406800902046FFF725
:10468000F9FE0820606484F840500120BDE8F883FA
:104690000320FBE72068006835EA000004D0002012
:1046A0004045D3D00020F1E70120F9E70148FFF7AA
:1046B0009FBA000074010020FEE7000010B5FDF76E
:1046C00001F8094BC26809484FF480719A4201DD34
:1046D000002203E0064B9A4204DA0122BDE81040B2
:1046E000FEF7E3BB10BD0000CDCC4C3E00140140F2
:1046F000CDCCCC3D2DE9F041FCF7E4FF1D4E054645
:1047000002213046FEF7CCFBB8B10024042130462C
:10471000FEF7C6FB012812D000221749174E0023CE
:10472000487870B1002C22D14B708B70002230463B
:10473000BDE8F0418021FEF7B8BB0124E6E7012285
:10474000EBE7E8680E4D0127A84200DD5CB191F867
:1047500003C0BCF1000F07D034B12AB14F708B7089
:10476000CB700122E3E7CF70A84200DACB70BDE83E
:10477000F08100000018014000000020000C014002
:10478000CDCCCC3D0749487801280AD18878401C17
:10479000C0B28870032804D3002280210248FEF7AB
:1047A00084BB704700000020000C014001484078A5
:1047B00070470000000000200148007970470000A9
:1047C0000000002010B50C4C012251022046FEF7DB
:1047D0006CFB012211020948FEF767FB00228021D1
:1047E0002046FEF762FB064800210170417081708F
:1047F000C170017110BD0000000C014000140140A7
:104800000000002010B5084C08484FF400712278D1
:1048100022B10122FEF749FB002003E00022FEF74F
:1048200044FB0120207010BD00000020000C01405E
:104830002DE9F047ACB0FCF745FF0446006900F0F5
:104840000DF981468A46E06800F008F90746884677
:10485000A06800F003F905460E46206800F0FEF857
:104860000246104803794078012818D05020CDE93D
:104870000A030DF1100C8CE8E0072079CDE9002146
:104880000290094A80210CA8FBF75AFD002803DD9D
:1048900081B20CA8FFF7DEFD2CB0BDE8F087442004
:1048A000E5E70000000000201C51000810B5FCF7EF
:1048B00009FF0F4903220B79052B17D2DFE803F01C
:1048C00003050A0B110001230B710079002807D1A1
:1048D000022008710A714878012801D1042008716A
:1048E00010BD48780028FBD10A7110BD0020F6E702
:1048F00000000020490050EAC12018BF04204A0DE2
:1049000018BF40F0010040F2FF72B2EB515F08BFE8
:1049100040F00200012808BF052070470907090E72
:10492000002804DB00F1E02080F80014704700F05C
:104930000F0000F1E02080F8141D704730380A287D
:1049400001D201207047002070470000FEF7C0FA36
:10495000FFF7BCFCFFF7F0FBFFF7D8FBFFF760FCAD
:10496000FFF742FBFFF790FCFFF788FBFFF7AAFB7E
:1049700000F052F8FCF72AFFFFF724FFFCF74AFF8C
:10498000FDF744F8234C0020FCF7A0FE2078010737
:1049900004D520F008002070FDF778F82078810613
:1049A00008D520F020002070FDF73EF8FDF700F854
:1049B000FFF77CFF2078410604D520F040002070EE
:1049C000FDF7EAF82078010616D520F08000207067
:1049D000FFF718FFFCF7C0FF0746FFF7E7FE0646A4
:1049E000FFF7EAFE0546FCF76DFE3B4632462946D8
:1049F000FCF75AFFFDF78EF86078C00705D000205D
:104A00006070FFF7BFFEFFF713FFFFF773FEFFF7BE
:104A100055FEB8E7440000200148FEF737BF00000C
:104A20002C01002010B500290AD00878002807D0F2
:104A300005487844FCF78AF9002801D0002010BD11
:104A40000248784410BD00004E07000046070000F1
:104A50000808A0F500114FEA3101704743004FEA02
:104A6000D30C4FEA3C0C43401FBF40070CF1605190
:104A700013F0FE4F70471CF0006F03D100200CF0C4
:104A8000004170470CF0004343EA507010B540EA13
:104A9000CC0000F01CFA00BF000000924FEA0001B9
:104AA000FFF7D6BF4FF000414FF00000A1F5002105
:104AB0007047000090EA010F48BF81F0004100F10B
:104AC0005882421A3CBF801A89184FEAD0524FF0E0
:104AD0007F4C1CEA410FA2EBD15318BF9CEA026F36
:104AE00000F03B804FF0004C4CEA00204CEA0121E2
:104AF00021FA03FC10EB0C0C1ED202F1FF325FEA2C
:104B00001C2040EBC25038BF70471CF07F0F4FEAAB
:104B1000400C18BFBCF17F4F38BF7047C3F1200372
:104B2000994008BF20F00100BCF17F4F38BF7047AB
:104B3000A0F1C04000F011BA4FEA3C00000A40EB7F
:104B4000C25028BF1CF0FF0F4FEA400CE6D018BF40
:104B5000BCF17F4F38BF7047EAE79CEA026F05D08F
:104B600010EA5C0F08BF00F00040704710B500F07D
:104B7000AEF900BF64FBBE3E4FF47F0C1CEAD012BE
:104B80001EBF1CEAD11392EA0C0F93EA0C0F00F03F
:104B9000858090EA010F48BF42F4807240F4000C17
:104BA00041F400002CF07F4120F07F4000B58142AD
:104BB000A2EB03020FF2081CACEB504EC0F1000058
:104BC0009EF800E04FEA4E0E00FB0EFC38BF490095
:104BD0004FEA2C1C02F5FA020CFB0EF34FEACE1E34
:104BE0004FEA112C4FEAC1210EEB635E42EB2242E9
:104BF0000EFB0CFC4FEA1C5300FB03114FEA112C77
:104C00004FEA01310EFB0CFC4FEADC4C00FB0C11AF
:104C1000C14228BF09184CEB03335DF804EB10EBDD
:104C2000410143EBC250B2F57C0F38BF704729D524
:104C300012F0F00F1CBF00F1C04000F000407047C0
:104C4000008182838485868788898B8C8D8E8F9165
:104C50009293959697999A9C9D9FA0A2A3A5A7A889
:104C6000AAACAEB0B2B3B5B7B9BCBEC0C2C5C7C9B5
:104C7000CCCED1D4D7D9DCDFE2E6E9ECF0F3F7FA19
:104C8000FE0000004FEA400C0CF1807CBCF17E4F2E
:104C900028BF7047B0F1C04000F05FB990EA010F43
:104CA0000CEAD11348BF42F48072624538BF6345B5
:104CB00007D213F47F0F16D080EA010000F0004005
:104CC000704710B500F003F9097EFC3E00F005B80E
:104CD00080EA010000F00040704780EA010000F027
:104CE000004000F03AB912F47F0F04BF0248704749
:104CF00080EA010000F031B90000C07F41000B0ED6
:104D0000D3F19E0208D950F400034FEA032323FA9B
:104D100002F048BF4042704710B500F0D8F800BF1D
:104D200049922480002070476FF0004282EA200000
:104D300070470000C10DD1F19E0206DB4FEA00234F
:104D400043F0004323FA02F07047004207D54FEAD0
:104D50004001B1F1FE4F02D24FF00000704710B594
:104D600000F0B5F849922480002070476FEA2000D7
:104D70007047000010F0004148BF4042B0FA80F395
:104D800010FA03F2C3F19D030BD051EAC35101EBBA
:104D90001220530638BF704700F1010008BF20F011
:104DA00001007047B0FA80F310FA03F2C3F19D03DB
:104DB0000AD0D90501EB1220530638BF704700F125
:104DC000010008BF20F00100704700004FF47F0C85
:104DD0001CEAD0121EBF1CEAD11392EA0C0F93EA10
:104DE0000C0F00F0478090EA010F48BF42F4807238
:104DF0004FF0004C4CEA00204CEA012102EB030288
:104E0000A0FB0113A2F50002002918BF43F0010323
:104E10005B0028BF4FEA330342EB22425FEA132CC8
:104E20004CEBC2502EBFBCEB436FB2F57C0F70470A
:104E30004FEA036CBCF1004F08BF20F00100B2F54F
:104E40007C0F38BF70470BD582F0FF0212F5803F10
:104E5000C8BF704700F1C040D8BF00F000407047A5
:104E600000F5000C5FEA4C0C48BF7047B0F1C04041
:104E700000F073B890EA010F0CEAD11348BF42F476
:104E80008072624538BF634504D280EA010000F0B9
:104E90000040704710B500F01AF800BF8900013ECD
:104EA00000F007B800F009B85FEA410C5FEA1C6C3B
:104EB00008D080EA010000F050B85FEA400C5FEAD9
:104EC0001C6CF6D14FF00040A0F5800070470EF149
:104ED000020E2EF0030E5EF8044B244204D44FEA77
:104EE0004102B2F17F4F11D84FEA4003B3F17F4F37
:104EF0000CD80ED14FEAD07CB2F17F4F0CEB4C0CAA
:104F00000CF1020C08BF4CEBD17C04E04FF0080C14
:104F100001E04FEAD17C0CEB4C0324FA03F404F0DB
:104F20000704B4F1040C06D20EEB840CBDE810406B
:104F30004CF0010C6047DFE80CF0070802024FF06C
:104F40000040A0F5800010BD0846420018BFD2F115
:104F5000807288BF00F0004010BDFF2141EAD050B0
:104F6000C005704790EA010F48BF81F000413FF54E
:104F7000A8AD421A04D882F00042A0EB020011440E
:104F80004FEAD0524FF07F4C1CEA410FA2EBD153B5
:104F900018BF9CEA026F4AD04FF0004C4CEA002048
:104FA0004CEA012121FA03FCB0EB0C0C0FD412F0F7
:104FB000FE0F36D05FEA4C001DD5001240EBC25008
:104FC00038BF70471CF03F0F18BF70470BE0A2F1CD
:104FD00001025FEA1C2040EBC25038BF70471CF052
:104FE0007F0F18BF7047C3F12003994014BF401EC4
:104FF00020F00100704780084FEA122308BF704775
:10500000B0FA80FCA2EB0C02CCF1280C60FA0CF098
:1050100093EA122F04BF00EBC25070474FEAC370EF
:105020007047130A5FEADC1008BF7047F6E79CEA96
:10503000026F04D010EA5C0F08BF0020704710B563
:10504000FFF745FF40DFF63E81F000407047FBF779
:10505000DCBB000004050607080900000000000D85
:105060000102030405060708090A0B0C0D0E0F10B8
:105070000000000000000000010203040607080908
:10508000000000000102030402400000000000A034
:105090000000000005400000000000C80000000003
:1050A0000C4000000000409C00000000194000007F
:1050B0000020BCBE0000000034400000BFC91B8EB1
:1050C00000000004B5400000504BCFD06607E2CF8F
:1050D000010000006C4100003E8251AADFEEA734BF
:1050E00001000000D9420000DCB5A0E23A301F9771
:1050F000FFFFFFFFB4450000FD25A0C8E9A3C14F95
:10510000FFFFFFFFFF3F00000000008000000000E5
:10511000FF3F000000000080000000005662617444
:105120003A252E3166562055563A25642054687229
:105130003A252E316625252042726B3A252E31669E
:105140002525205374723A252E3166646567204701
:105150006561723A2563205643553A25640D0A006D
:105160009C510008000000204C0000008C01000849
:10517000E85100084C000020D4070000A8010008F6
:105180001C00000043000000F8FFFFFF0C000000BF
:105190000E0000000F0000002E00000000000000C4
:1051A00000000000000000000000000000000000FF
:1051B00000000000000000000000000000000000EF
:1051C00000000000000000000100000010000000CE
:1051D0000000000000127A00000000000000000043
:0851E0000000000000000000C7
:04000005080001519D
:00000001FF
