:020000040800F2
:10000000080800201D020008E7440008114200080B
:10001000E544000875190008E148000800000000E8
:10002000000000000000000000000000EB44000899
:10003000071C000800000000E9440008ED44000827
:1000400037020008370200083702000837020008AC
:10005000370200083702000837020008370200089C
:10006000370200083702000837020008D11B0008D9
:10007000370200083702000837020008370200087C
:100080003702000837020008370200088519000807
:100090007919000837020008370200083702000803
:1000A000370200083702000837020008370200084C
:1000B00037020008794500083702000837020008B7
:1000C000370200083702000837020008370200082C
:1000D00037020008D5480008370200083702000838
:1000E000370200083702000837020008000000004D
:1000F0000000000000000000000000000000000000
:10010000000000000000000037020008370200086D
:1001100037020008370200083702000837020008DB
:1001200037020008370200083702000837020008CB
:100130003702000800000000000000009D190008C0
:10014000911900083702000837020008370200083A
:1001500000F002F800F053F80AA090E8000C824486
:100160008344AAF10107DA4501D100F048F8AFF263
:10017000090EBAE80F0013F0010F18BFFB1A43F085
:10018000010318473851000058510000103A24BFAD
:1001900078C878C1FAD8520724BF30C830C144BFEC
:1001A00004680C607047000000230024002500262E
:1001B000103A28BF78C1FBD8520728BF30C148BFCA
:1001C0000B607047662904F0CF86642900F02A810D
:1001D000782900F06381632900F04385732900F0DA
:1001E0004885002070471FB500F048FD040000203E
:1001F000002104F0CFFCE0601FBD10B510BD00F081
:100200003DFE1146FFF7EFFF04F084FC00F05BFEBB
:1002100003B4FFF7F2FF03BC00F09EFE09488047DD
:1002200009480047FEE7FEE7FEE7FEE7FEE7FEE7D8
:10023000FEE7FEE7FEE7FEE704480549054A064BF0
:1002400070470000754500085101000808020020B1
:1002500008080020080400200804002053EA020CCB
:1002600000F069802DE9F04B4FF00006002B1FBF16
:10027000B3FA83F503FA05F424FA05F65E4012BFDB
:100280001643B2FA82F502FA05F4C5F120051EBF45
:1002900022FA05FC44EA0C04203556EA044C4FEAE5
:1002A000144418BF641C4FF000084FF0000990423E
:1002B00071EB030C39D3002919BFB1FA81F701FAA8
:1002C00007F6B0FA80F700FA07F6C7F120071EBF5D
:1002D00020FA07FC46EA0C062037B6FBF4FCA7EB35
:1002E0000507103F07F01F0BCBF120060CFA0BFBA4
:1002F0002CFA06F644BFB3460026202FA4BF5E4664
:100300004FF0000B5BEA060C08BF4FF0010B19EB36
:100310000B09ABFB027C48EB0608C01B06FB02CCBA
:100320000BFB03CC71EB0C01C1E70B4602464146C7
:100330004846BDE8F08B13B54FF000004FF00001C8
:10034000AFF30080BDE81C40704700000FB47CB5DF
:100350000C0009AA009001D02044401E084B7B44A9
:1003600069460190089800F052FC05461CB1002037
:10037000694600F05FFC28467CBC5DF814FB000079
:10038000DD08000070B5044685690068C10601D526
:10039000302600E02026C00707D070BDD4E9012137
:1003A00030469047206A401C20626D1EF6D570BD15
:1003B00070B5044685690078C00707D170BDD4E9DF
:1003C000012120209047206A401C20626D1EF6D536
:1003D00070BD70B50C460546012A05D02878800608
:1003E00000D5EA69002302E0012305E05B1C93428B
:1003F00002D2E05C0028F9D1A869E618C01AA86109
:10040000286A184428622846FFF7BCFF04E0D5E9B3
:10041000012114F8010B9047B442F8D32846FFF7A6
:10042000C7FF70BD2DE9F04106460024106875290C
:10043000314616A510D0AFF30080002802DA404202
:1004400013A507E031688A0701D512A502E0490724
:1004500004D511A5012401E0AFF3008000210A2298
:1004600006F1240709E0B0FBF2FCB0FBF2F302FB5B
:100470001C00303078541846491C0028F3D123461C
:100480002A463046BDE8F04100F054B900000000B3
:100490002D0000002B0000002000000070B5044675
:1004A0000D4621461068AFF300802188090502D56A
:1004B0000F4A7A4402E00E4A7A440E32002104F1D7
:1004C000240305E000F00F060009965D5E54491C08
:1004D0000028F7D120780023000704D5702D02D022
:1004E00009B1022311322046BDE8704000F022B964
:1004F000EC4A00002DE9F05F894604464FF0000AFF
:10050000DFF874B1FB44C0F820A02046E1688847BA
:10051000002874D0252806D0D4E901219047206A0C
:10052000401C2062F1E700265F462046E1688847CC
:100530002028054607DB312D05D2781910F8200C4C
:1005400008B10643F1E7B00701D526F00406C4F868
:100550001CA00027C4F818A02A2D09D0284604F0B2
:10056000D1FA38B304EB8708303DC8F8185019E0C9
:1005700059F8041B204604EB87029161E168884723
:10058000012F054618D1E069002820DA26F0200660
:100590001DE0D8F8180000EB800005EB4000303873
:1005A000C8F818002046E1688847054604F0AAFA12
:1005B0000028EED1012F0AD02E2D08D12046E16867
:1005C00088477F1C0546022F46F02006C4DBA06941
:1005D000002803DA404246F00106A061F00701D08E
:1005E00026F010066C2D0BD0682D09D04C2D39D07B
:1005F0006A2D35D0742D35D07A2D33D016E038E001
:10060000E1682F4620468847B842054609D16C2F3D
:1006100026D04FF48060E1680643204688470546AF
:1006200004E06C2F1AD04FF4807006430DB3A5F18F
:100630004100192802D8203546F400664A4629466A
:10064000204626604E46FFF7BDFD80B101280BD045
:10065000F61D26F0070000F1080956E74020E4E700
:100660008020D8E70020D6E706F104094DE72846A8
:1006700052E7206ABDE8F09FC24A000010B5203A58
:10068000C0F00B80B1E81850203AA0E81850B1E84B
:100690001850A0E81850BFF4F5AF5FEA027C24BF01
:1006A000B1E81850A0E8185044BF18C918C0BDE8F8
:1006B00010405FEA827C24BF51F8043B40F8043BC1
:1006C00008BF7047D20728BF31F8023B48BF11F876
:1006D000012B28BF20F8023B48BF00F8012B7047D0
:1006E0004FF0000200B5134694469646203922BFCB
:1006F000A0E80C50A0E80C50B1F12001BFF4F7AF16
:10070000090728BFA0E80C5048BF0CC05DF804EBF7
:10071000890028BF40F8042B08BF704748BF20F865
:10072000022B11F0804F18BF00F8012B7047704763
:10073000704770472DE9F0470D46994692460446AA
:1007400000F124080168880604D5E06921F0100151
:10075000216000E00120A84201DD471B00E00027E6
:10076000A1697A1902EB0900081AA0612078C00675
:1007700002D42046FFF706FE002608E0D4E9012156
:100780001AF806009047206A401C761C20624E45ED
:10079000F4DB2078C0060AD52046FFF7F3FD06E01B
:1007A000D4E9012130209047206A401C2062381E85
:1007B000A7F10107F4DC07E0D4E9012118F80500EE
:1007C0009047206A401C2062281EA5F10105F3DC39
:1007D0002046FFF7EDFD2078000602D50220BDE897
:1007E000F0870120FBE770472DE9FF4F0C461E46BE
:1007F0004FF0FF378BB0D2E90001DDF860800A903E
:100800008A46C1F30A5505B93D46002108464FF016
:100810000000BAF1000F00F4400005DA00EB8000A0
:100820004FF4400101EA50004FEA9059B9F1010F2D
:1008300000DDB9460A9850EA4A000ED044F610503E
:10084000A5F2FF3545432F14B8F1000F1ED07542B5
:10085000291E1EDDC9F100021CE0B8F1010F4FF0A6
:10086000000001D0302103E0F24305E02154401C98
:10087000B042FBDB30460022002121540B99C1F825
:100880000880C1E900200FB0BDE8F08FBD1B6D1CD2
:10089000DEE74A4600DA694206A800F079FA06ABBC
:1008A00093E8070003AB83E8070050460A9900F07D
:1008B0005AFB8DE80700A0F500501F380090039800
:1008C000002D0ADD42F21F014A460844002303A915
:1008D0000390684600F0C3FD09E0A0F500504A46C9
:1008E0001F38002303A90390684600F0CDFD8DE872
:1008F00007000004000C03D04FF0FF30410800E077
:100900001046B8F1000F03D00022009215461EE0F9
:10091000751E05D400F0B6F9303262556D1EF9D55A
:10092000B3460122084302D000227F1C04E0207855
:10093000302801D100227F1E002A099784D01DE0B3
:10094000112D07DA00F09EF9303262556D1C50EA25
:100950000102F5D1084302D00098C8B10EE0002191
:10096000681E05E0235C625C63542254401E491CEF
:100970008142F7DBAB46A81B401E0990002004F81B
:100980000B000B98099AC0F80880C0E9002B7AE7A1
:1009900011264FF0000857E72DE9F04F884604462E
:1009A000D21D22F0070191B0D1E90001CDE90A0181
:1009B00004F084F802460B98C00F01D02D2007E008
:1009C0002068810701D52B2002E0202101EAC00028
:1009D000032A099001D0072A05DB03464146204639
:1009E00000F096F90BE12078800601D5E06900E07F
:1009F0000620B8F1650F814606D0B8F1660F18D011
:100A0000B8F1670F70D131E00020B9F1110F0090FB
:100A100001DB112301E009F101030AAA01A90CA8D5
:100A2000FFF7E2FEDDE90C70002609F101058346BF
:100A300047E001204B4600904FF000470AAA01A969
:100A40000CA8FFF7D1FEDDE90DB00C995D4600263C
:100A500010B909F101000D18B9EB050003D4C0F17C
:100A6000FF3609F10105A5EB09002BE0B9F1010FF3
:100A700001DA4FF001090020B9F1110F009048464A
:100A800001DD112300E003460AAA01A90CA8FFF723
:100A9000ABFEDDE90C704D4600268346207800074A
:100AA0000AD4AB4500DA5D4601A8012D04DD4119E9
:100AB00011F8011C302907D04F4502DA17F1040F55
:100AC00004DA012082460FE06D1EEEE7002F02DC03
:100AD000ED1B3E4403E0781CA84200DD7D1CB81BE2
:100AE00000F1010A4FF000472078000703D4AA451F
:100AF00001DB4FF0FF3A0021B7F1004F0DF1430841
:100B00008DF8431024D002202B23002F01DA7F42DE
:100B10002D230A21021EA0F1010000DC5FB197FB2A
:100B2000F1FC97FBF1F201FB1C7C17460CF1300C39
:100B300008F801CDEEE7A8F101000370218809054E
:100B400001D5452100E06521A0F1010800F8011C54
:100B500009980FA9A1EB0807FF1D00B10120411959
:100B600001EBEA70A1693844081A401EA0612078A0
:100B7000C00602D42046FFF705FC099828B1D4E945
:100B800001219047206A401C20622078C00622D5AF
:100B90002046FFF7F7FB1EE0002E04DBB34502DD25
:100BA00001A8805D00E03020D4E901219047206A4F
:100BB000401C2062761CAAF101005FEA000A0AD1FB
:100BC00000F05CF8C0680168405CD4E901219047FE
:100BD000206A401C2062281EA5F10105DCDC07E02C
:100BE000D4E9012118F8010B9047206A401C2062CB
:100BF000381EA7F10107F3DC2046FFF7D9FB0320DD
:100C000011B041E601694A1C02610878704700B5DD
:100C10008FB0CDE901310021059105497944CDE935
:100C2000031011466846FFF765FC0FB000BD0000D9
:100C3000E5FFFFFF0A6802F8010B0A607047D1E97F
:100C400000239A4202D2531C0B601070704710B5FB
:100C5000436913B1AFF3008001E0FFF7BAFB012055
:100C600010BD127800F124010A7000224A7001229E
:100C7000EDE711684FF0FF32E9E7000000487047E8
:100C8000C801002030B5B0F10A024FEA900E71F1B0
:100C900000034EEA817EB0EB0E0061EB91014FEA5A
:100CA000101E4EEA017E10EB0E0041EB11114FEACF
:100CB000102E4EEA016E10EB0E0041EB11214FEAAF
:100CC000104E4EEA014E10EB0E0041EB1141401860
:100CD00041F100014FEAD00040EA41704FEAD101F2
:100CE00010EB80054FEA810444EA907444EB010460
:100CF0006D1944EB0404521BA3414FF0000348BF9D
:100D00000A3200D530BD401C41F1000130BD000069
:100D10002DE9F0411F46044603260168072A01F425
:100D2000006004DB08B116A505E016A503E008B1D4
:100D300015A500E015A521F010002060A069C01ED7
:100D4000A0610FB1401EA0612046FFF71BFB4FB111
:100D5000D4E9012138469047206A401C2062C01C1B
:100D6000206206E0206AFAE7D4E9012115F8010BB8
:100D70009047761EF8D22046FFF71AFBBDE8F081B7
:100D80004E414E006E616E00494E4600696E66002F
:100D90002DE9F047814616468AB0354878440DC89B
:100DA0008DE80D0032487844801C03AC0DC884E8FF
:100DB0000D0041F69B300844372190FBF1F290FB87
:100DC000F1F5A5F1800501FB12041B3C02D564423C
:100DD000012000E00020DFF898A080460027FA44B8
:100DE000AAF1BE0A0EE0E0070AD03246684607EBD9
:100DF000470101230AEB810100F046FB8DE8070063
:100E000064107F1C002CEED1194F7F44AE3F19E0D7
:100E1000E80715D007EB04100DF1180A90E80E0052
:100E20008AE80E00C068F04201D198190890324655
:100E3000012306A903A800F027FB03AB83E8070002
:100E40006D10641C002DE3D14FF00103324669465A
:100E5000B8F1000F03A802D000F001FB01E000F0A0
:100E600013FBC9E90001C9F808200AB0BDE8F08702
:100E7000B842000000487047A80100207546FFF7FF
:100E8000F9FFAE4605006946534620F00700854647
:100E900018B020B5FFF7D0F9BDE820404FF00006AC
:100EA0004FF000074FF000084FF0000B21F0070152
:100EB000AC46ACE8C009ACE8C009ACE8C009ACE895
:100EC000C0098D46704710B50446AFF30080204638
:100ED000BDE81040FFF79CB94FF0013C50F8042BDF
:100EE00051F8043B9A4221D1A2EB0C03934313EA3D
:100EF000CC1317D150F8042B51F8043B9A4215D16A
:100F0000A2EB0C03934313EACC130BD150F8042B40
:100F100051F8043B9A4209D1A2EB0C03934313EA24
:100F2000CC13DBD04FF00000704700BFD01A01BADD
:100F3000B1FA81F101F0180122FA01F0CB40C1F1C0
:100F40002001DBB2C0B2C01A2CFA01F3D11A9143CE
:100F500011EAC311E6D1704701491820ABBEFEE784
:100F60002600020070475FEA400C08BF91F0000FB6
:100F70004FEA8C234FEAC12243EA51514FEA1C50F9
:100F800018BF00F5F0404FEA300018BF41F00041B3
:100F90005FEA6C5C00F02980BCF1FF3F08BF40F0C5
:100FA00080407047130C06BF12044FF0100C4FF036
:100FB000000C130E04BF12020CF1080C130F04BF37
:100FC00012010CF1040C930F04BF92000CF1020CFF
:100FD000D30F04BF52000CF1010C11464FF0000278
:100FE000A0F11F00A0EB0C00704711F0004F08BFEC
:100FF000704731F000413FF4D5AF0B0C06BF090438
:101000004FF0100C4FF0000C0B0E04BF09020CF156
:10101000080C0B0F04BF09010CF1040C8B0F04BF6B
:1010200089000CF1020CCB0F04BF49000CF1010C3C
:10103000CCF12003A0EB0C0022FA03F302FA0CF22D
:1010400041EA030100F10100704720F07F4C80EA83
:10105000030023F07F47ACEB070303F57C5300F05C
:10106000004003F1FF032DE980494FEA154B09B415
:101070004FEA144325EA0B4E24EA03480FF20426F4
:1010800006EB132749083E785FEA320203FB066746
:10109000C7F5000707FB06F64FEA54374FEAD64676
:1010A00006F1020607FB066CCCF1005C4FEA1C4718
:1010B0002CEA074C07FB06F40CFB06F504EB15467F
:1010C0004FEA961634BF00204FF000404FEAD13768
:1010D00006FB07FC4FEA1C4C0CFB0BF7D21B03FB77
:1010E0000CF761EB07010CFB0EF7B0EB074072EB5E
:1010F00017420CFB08F734BFA2EB0742B2EB0742E2
:1011000061EB17414FEA0C444FEA910706FB07FCDD
:101110004FEA1C4C0CFB0BF7B0EBC74072EB57329D
:1011200003FB0CF734BFA2EBC742B2EBC74261EB43
:1011300057310CFB0EF7B0EBC70072EB57720CFB8C
:1011400008F734BFA2EBC702B2EBC70261EB5771DD
:10115000039F4FEA816141EA921104EBCC044FEA0C
:10116000D1374FEA826206FB07FC42EA90124FEA4F
:1011700080604FEA1C4C0CFB0BF7D21B03FB0CF7F7
:1011800061EB07010CFB0EF7B0EB074072EB174267
:101190000CFB08F734BFA2EB0742B2EB074261EB4E
:1011A00017414FEA8C554FEA910704EB9C2406FB4C
:1011B00007FC4FEA1C4C0CFB0BF7B0EBC74072EB83
:1011C000573203FB0CF734BFA2EBC742B2EBC74266
:1011D00061EB57310CFB0EF7B0EBC70072EB5772A7
:1011E0000CFB08F734BFA2EBC702B2EBC70261EBFE
:1011F000577115EB4C254FEA816141EA92114FEA94
:1012000082624FEAD13742EA901206FB07FC44F1B2
:1012100000044FEA80604FEA1C4C0CFB0BF7D21B1A
:1012200003FB0CF761EB07010CFB0EF7B0EB07407B
:1012300072EB17420CFB08F734BFA2EB0742B2EB8C
:10124000074261EB174115EB1C154FEA813141EA6A
:1012500092414FEA823242EA90424FEA80304FEAAE
:101260000C7644F1000448EA03434EEA0B484FF081
:10127000000EB2EB080C71EB030724BF624639463F
:101280004EEB0E0E4FF0000B0018524149414BEB54
:101290000B0BB2EB080C71EB03077BF1000B24BFC7
:1012A000624639464EEB0E0E4FF0000B00185241CD
:1012B00049414BEB0B0BB2EB080C71EB03077BF1D5
:1012C000000B24BF624639464EEB0E0E51EA020770
:1012D00018BF46F0010616EB0E7655F1000254F1E8
:1012E000000103D5BDE88901BDE80088BDE889019A
:1012F000BDE80048B619524141EB0101A3F10103D9
:10130000704780807F7E7D7C7B7A79787776767572
:101310007473727171706F6E6E6D6C6C6B6A6A69EA
:101320006868676666656464636362616160605F84
:101330005F5E5E5D5D5C5C5B5B5A5A5959585857FD
:101340005756565555555454535352525251515065
:1013500050504F4F4F4E4E4D4D4D4C4C4C4B4B4BB8
:101360004A4A4A49494948484847474747464646FE
:101370004545454444444443434343424242424139
:101380004141002B9C4630D477002BD01CB54FEA4E
:10139000370703B44FF010004FF01001BAF1000FFF
:1013A00006D0BCF1000FDCBF40F0080040F008019F
:1013B0004FF000000FBCBDE810400BF1010BBBF17A
:1013C000010F08BF5FEA170722BF12F1010211F1F6
:1013D00001014FF0004143F1000300F0004043EAF7
:1013E00000007047F9D35708D0E746EA064613F1E4
:1013F000400F4FEA16461FDD13F1200FDFBF1643E3
:101400000A46002120335B42BED0C3F1200746EAE2
:10141000064602FA07F74FEA164646EA0706C3F100
:10142000200722FA03F201FA07F721FA03F14FF03D
:10143000000342EA0702A7E746EA020646EA064632
:101440004FEA164646EA0106BCBF46EA0646360C97
:101450004FF000034FF000024FF0000194E72DE938
:10146000804C9A46934670B491E8380007C831EA38
:10147000400C48BF34EA430C03D5FFF7E6FDFFF705
:1014800080FFF0BCBDE8008C2DE9804C9A46934665
:1014900070B491E8380007C810F0804F08BF13F00F
:1014A000804F03D100F005F8FFF76BFFF0BCBDE8FB
:1014B000008C20F07F4780EA030023F07F4C07EB8D
:1014C0000C03A3F57C5300F00040A3F1FE0392F05F
:1014D000000F00F0B38095F0000F00F077802DE949
:1014E00001494FEA11404FEA144621EA004800FB47
:1014F00006FC24EA064708FB06F607FB08F800FB93
:1015000007F718EB06484CEB164C4FEA124B18EB5A
:1015100007484FEA15464CEB174022EA0B4E0BFBEF
:1015200006FC25EA06470EFB06F607FB0EFE0BFB44
:1015300007F71EEB064E4CEB164C4FF000061EEB69
:10154000074E4CEB174B18EB0B0840F1000018EB63
:101550000E0B58EB000840F100008F1A4FF000010D
:101560003CBFC943661B14BFB5EB040C00213CBF54
:10157000C943F61B4FEA17444EEA8E0E27EA04458C
:101580004FEA1C4704FB07622CEA074C05FB07F7F0
:101590000CFB05F604FB0CFC16EB074642EB17426E
:1015A00016EB0C4642EB1C421BEB060658EB020204
:1015B000414146EA9E0601D5BDE80189B61952416E
:1015C00041EB0101A3F10103BDE801894FEA144594
:1015D0004FEA114724EA054621EA074C05FB07F4C8
:1015E00006FB07F70CFB06F105FB0CFC11EB0741B2
:1015F00044EB17444FEA124711EB0C4144EB1C44F7
:1016000022EA074C05FB07F206FB07F70CFB06F680
:1016100005FB0CFC16EB074642EB174216EB0C469B
:1016200042EB1C456A1854F1000148BF7047B619D7
:10163000524141EB0101A3F10103704795F0000F06
:1016400037D04FEA11424FEA144721EA024624EA12
:10165000074C02FB07F106FB07F70CFB06F402FB45
:101660000CFC14EB074441EB17414FEA154714EB10
:101670000C4441EB1C4125EA074C02FB07F506FB35
:1016800007F70CFB06F602FB0CFC16EB074645EBD6
:10169000174516EB0C4645EB1C42121951F100019F
:1016A00048BF7047B619524141EB0101A3F1010354
:1016B00070474FEA14454FEA114724EA054621EAEC
:1016C000074C05FB07F106FB07F70CFB06F24FF092
:1016D000000605FB0CFC12EB074241EB174112EB35
:1016E0000C4251EB1C4148BF7047921841EB01017D
:1016F000A3F101037047000070B5044600688168DB
:10170000C943C90717D1816821F00101816001F047
:10171000F1FC05460AE000BF01F0ECFC401B02288A
:1017200004D920688068C043C00706D0206880685C
:10173000C043C007F0D0002070BDA06A40F0100088
:10174000A062E06A40F00100E062012070BD10B5C7
:101750000146406A826A12F0500F05D0006A026B9F
:10176000BDE8104008461047816A41F4007181626B
:1017700001688968C1F3424107290CD1017B51B945
:10178000816A21F480718162816AC90403D4816A0B
:1017900041F00101816200F0B7FA10BD10B5406A56
:1017A000816A41F040018162C16A41F00401C16275
:1017B00000F0BFFA10BD10B5406A00F0B9FA10BDD4
:1017C000F8B500260446009600688168C943C90739
:1017D0002DD0816841F001018160164816490068EA
:1017E000B0FBF1F000E0401E00900028FBD101F0BA
:1017F00081FC054616E000BF01F07CFC401B02287E
:1018000010D920688068C043C0070BD0A06A40F0A0
:101810001000A062E06A40F00100E06284F82460F9
:101820000120F8BD20688068C043C007E4D10020D3
:10183000F8BD00002800002040420F00002808D01A
:1018400004490A8802804A8842808A888280C9883E
:10185000C18070470C00002000487047380000200D
:1018600070B5040000D1344C04F11400FFF7E6FF1A
:10187000A58A284603F098FA304903F0A9FA3049BE
:1018800003F0D0F92060B5F58D6F01D8012000E09C
:1018900000202071E08A2B4DC82801D800200EE0DE
:1018A00040F25231884201D3284608E0C83803F09C
:1018B0007BFA294603F08CFA234903F0B3F9A060C0
:1018C000208BC82801D800200DE0B0F5C87F01D3D7
:1018D000284608E0C83803F067FA294603F078FA8A
:1018E0001A4903F09FF9E060608B40F2AE718842C4
:1018F0000BD2A0F2AE70404203F056FA144903F046
:1019000067FA144903F08EF913E040F65201884259
:1019100001D800200DE0A0F6520003F045FA0E4D6C
:10192000294603F055FA0D4903F07CF9A84200DD81
:101930002846206170BD00003800002000002041D2
:1019400000008D440000C84200802244000048434B
:101950000000F0C100C0F5440000F04100A0F544D3
:1019600004220249024800F0BBBA00000400002033
:1019700054000020FEE70000014800F0E7BC000032
:10198000C8000020014800F0E1BC0000C8000020B1
:10199000014800F0DBBC0000F0000020014800F02E
:1019A000D5BC0000F000002010B5C8B00020012117
:1019B0004390CDE94401419042900E24CDE9461474
:1019C0003E903F9040903EA91A4800F07FFB08B13E
:1019D00000F01AF9174800F075FF08B100F014F98B
:1019E0000321144800F002FB08B100F00DF9114882
:1019F0003EA92830439400F069FB08B100F004F9D7
:101A00000C48283000F05EFF08B100F0FDF80948EE
:101A10000321283000F0EAFA08B100F0F5F8F822C6
:101A200005496846FEF72AFEF621684602F024FEC4
:101A300048B010BDC80000207050000830B5B5B0E7
:101A400040F223102F900020454C08213090319017
:101A5000CDE932018DF8D00021782DAD0A182A5435
:101A6000401CC0B20828F9D39DF8B8000DF1140C41
:101A70009DF8BB309DF8BA209DF8B9108CE80F0096
:101A80009DF8B4000DF1040C9DF8B7309DF8B62018
:101A90009DF8B5108CE80F0033980090314A8021F2
:101AA0000CA82F9BFEF752FC002803DD81B20CA886
:101AB00002F0E2FD2CAB2DAA2FA92B4800F0A8FACA
:101AC00040B1302229A16846FEF7D8FD2D21684695
:101AD00002F0D2FD40F256402F90217800200A18E3
:101AE00080322A54401CC0B20828F8D39DF8B800B0
:101AF00005AD9DF8BB309DF8BA209DF8B91085E87A
:101B00000F009DF8B40001AD9DF8B7309DF8B620E8
:101B10009DF8B51085E80F00339800901F4A80218A
:101B20000CA82F9BFEF712FC002803DD81B20CA845
:101B300002F0A2FD0C482CAB2DAA2FA9283000F0F2
:101B400067FA40B1302216A16846FEF797FD2D21B5
:101B5000684602F091FD2078401C207035B030BD01
:101B60001400002014520008C80000202D2D2D2044
:101B700043414E31205458202D2D2D204552524F97
:101B8000523A2041646454784D65737361676520EF
:101B90006661696C6564210D0A00000068520008E6
:101BA0002D2D2D2043414E32205458202D2D2D20F7
:101BB0004552524F523A2041646454784D657373D4
:101BC000616765206661696C6564210D0A0000002B
:101BD000014800F0FBBF00008400002030B590F801
:101BE00040500124AC40C56B6C600468636043687E
:101BF000102B036803D099600068C26030BD9A6002
:101C00000068C16030BD704772B6FEE7F8B50024C9
:101C1000009490F824202546012A12D0012280F851
:101C200024204A681F23072A0DD20668776B521EAC
:101C300002EB820293409F430B6893401F437763FC
:101C400019E00220F8BD06680D2A0AD2376BD21FB0
:101C500002EB820293409F430B6893401F4337631C
:101C600009E0F76A0D3A02EB820293409F430B684A
:101C700093401F43F7620A68072306680A2A0AD3BB
:101C8000F7680A3A02EB420293409F438B68934005
:101C90001F43F76008E0376902EB420293409F431D
:101CA0008B6893401F4337610A68102A01D0112ABC
:101CB00020D1124B02689A4217D193681B0219D4A3
:101CC000936843F4000393600968102912D10C490A
:101CD0000C4A0968B1FBF2F101EB8101490000E017
:101CE000491E00910029FBD104E0816A41F02001E6
:101CF0008162012480F824502046F8BD0024014070
:101D00002800002040420F000068074988420AD19D
:101D1000064800F1080102880A8042884A808288C9
:101D20008A80C088C88070470024014004000020D9
:101D3000704770472DE9F0414FF0000704003D4621
:101D40007ED0A06A002628B9E66284F82460204686
:101D500000F07EF82046FFF7CFFCA16AC90600D448
:101D600020B1A06A40F01000A06269E0A16A21F4ED
:101D7000885141F00201A1626268E169237B0A4354
:101D800047EA43010A43A1684FF48077B94209D07A
:101D9000012907D05FF0000194F814C0BCF1010FD5
:101DA00002D00AE03946F7E7F3B1A36A43F0200313
:101DB000A362E36A43F00103E3622368D3F804C03B
:101DC0002CF4694C4CEA010CC3F804C021688B6800
:101DD000DFF870C003EA0C0313438B60A168B942BB
:101DE0000BD0012909D00CE0DFF85CC0A3690CEB33
:101DF00043330B4343F40061DFE7218A0D05A5F56A
:101E000080152168CB6A23F470032B43CB622168D1
:101E100089680E4B1940914208D1E662A16A21F00F
:101E2000020141F00101A162BDE8F081A06A20F049
:101E3000020040F01000A062E06A40F00100E062A1
:101E40000120F1E7FDF7E1FF00E0FFFFFE0E1FFFBD
:101E500070B586B00025064600950195029503955C
:101E600000681A4988422ED11949886940F40070E7
:101E70008861886900F400700490886940F010005F
:101E800088618869694600F0100004901D20009068
:101E9000032001900F4801F033F8104C0E48C4E9BC
:101EA00000058020C4E9025040002061800060618C
:101EB0002020C4E90605204600F0ACFF08B1FFF77A
:101EC000A3FE3462666206B070BD000000240140CB
:101ED0000010024000100140080002408400002071
:101EE0002DE9F047894604463B4900683B4F0E1DEB
:101EF0009046884201D0B84207D1306810F4702F64
:101F000003D001252846BDE8F08794F82400012875
:101F10000CD0012084F824002046FFF751FC050076
:101F20004FF0000004D084F82400EBE70220EAE739
:101F3000A16A40F60162914341F48071A162216877
:101F4000B94218D1326812F4702F14D0A16A41F44A
:101F50008011A1623168490505D5A16A21F40051BB
:101F600041F48051A162A16AC9040AD5E16A21F055
:101F70000601E16206E0A26A22F48012A2624968C8
:101F8000E9E7E06284F82400216A15488862216A42
:101F90001448C862216A1448086321686FF002007F
:101FA00008602068816841F480718160216843463F
:101FB0004A464C31206A00F06BFF20688168C1F30B
:101FC00042410729816803D041F48011816099E77B
:101FD00041F4A001FAE7000000240140002801407C
:101FE0004F170008B71700089D17000890F8202029
:101FF000012A07D0022A05D0416A41F480214162BA
:1020000001207047006842690A434261002070471E
:10201000F0B590F820500468A468012D05D0022D79
:1020200003D0416A41F480214DE014F0406F01D1AA
:10203000E50045D5C4F301640125A5401D608D6808
:102040004FF4C0739DB1CE6835434E6845EAC6056E
:10205000066803EB0417F5514FF4C275076805EBEA
:1020600004150E697E51097D012905D009E00E880D
:10207000CD6845EA4655EBE701684E5946F480764F
:102080004E511179D2F805504FF4C67641EA052138
:10209000056806EB0416A9511178D2F801204FF417
:1020A000C47541EA0221026805EB0415515100682C
:1020B00003EB0411425842F0010242500020F0BDEF
:1020C000416A41F4001141620120F0BD10B590F861
:1020D0002020012A07D0022A05D0416A41F480213C
:1020E0004162012010BD3B48D0F8002242F00102BD
:1020F000C0F80022D0F8002222F47C52C0F800225E
:10210000D0F800224B6A42EA0322C0F800220A7D7E
:1021100002F01F0301229A40D0F81C329343C0F80A
:102120001C32CB69B3B9D0F80C329343C0F80C32EF
:102130008C894B6864F31F434C6900EBC404C4F8FA
:1021400040320C890B6864F31F434C6900EBC404F4
:10215000C4F84432CB69012B16D1D0F80C321343AA
:10216000C0F80C320C884B6864F31F434C6900EBD9
:10217000C404C4F840320C89CB6864F31F434C6933
:1021800000EBC404C4F844328B69002BD0F804324D
:102190000ED01343C0F804320B69002BD0F8143270
:1021A00008D01343C0F81432096A012904D008E0AA
:1021B0009343EFE79343F5E7D0F81C121143C0F8BF
:1021C0001C12D0F8001221F00101C0F8001200200A
:1021D00010BD00000064004030B5044600680E49A0
:1021E00095B0884201D10DA500E00EA5204600F073
:1021F00031F800902B460DA2502101A8FEF7A6F859
:10220000002803DD81B201A802F036FA204600F072
:10221000B7FA15B030BD00000064004043414E31B4
:102220000000000043414E32000000002D2D2D2003
:10223000257320455252202D2D2D204572726F722C
:1022400020436F64653A2030782530386C580D0A89
:1022500000000000406A704770B590F82040012CE3
:1022600005D0022C03D0416A41F4802128E00468A3
:1022700009B32469A40720D04FF4D874056804EB8F
:1022800001142D5915F00405956005682D591AD0D3
:10229000ED08556005682C5904F00204D4604FF431
:1022A000DA74056804EB01142E5906F00F06082EA7
:1022B0000CD308250DE0E468DCE7416A41F4001125
:1022C0004162012070BD6D0D1560E3E72D5905F0E9
:1022D0000F05156105682D59C5F30725956105683A
:1022E0002C59240C54614FF4DC72046802EB011287
:1022F000A4581C700468A458240A5C700468A4588C
:10230000240C9C700468A258120EDA704FF4DE722E
:10231000046802EB0112A4581C710468A458240A32
:102320005C710468A458240C9C710468A258120EB5
:10233000DA71006829B1016941F0200101610020D2
:1023400070BDC16841F02001C160F8E72DE9F05F80
:102350000546006800244669D0F804908768D0F8E4
:102360000CB0D0F810A0D0F81880F10748D0F907C9
:1023700014D001218160B80703D5284600F0D0FAB7
:102380000CE0780702D54FF4006407E0380702D567
:102390004FF4805402E0284600F0C0FAF80516D544
:1023A00029684FF480708860B80503D5284600F08E
:1023B000EBFA0CE0780502D544F4005407E0380548
:1023C00002D544F4804402E0284600F0DBFAF8032A
:1023D00016D529684FF480308860B80303D52846A5
:1023E00000F006FB0CE0780302D544F4004407E05B
:1023F000380302D544F4803402E0284600F0F6FAAF
:10240000300707D55FEACB6004D52968102044F473
:102410000074C86070074FF0080707D55FEA0B70BB
:1024200004D52868C760284600F0BBF9B00706D578
:102430002868C068800702D0284600F0B3F970060B
:1024400007D55FEACA6004D52968102044F4806487
:102450000861B00607D55FEA0A7004D528680761ED
:10246000284600F0E5F9F00606D5286800698007DF
:1024700002D0284600F0DEF9B00308D55FEAC96053
:1024800005D5296810204860284600F019FAF003A5
:1024900007D55FEA097004D528684760284600F030
:1024A000D9FA300446D55FEA497040D5F00504D525
:1024B0005FEAC87001D044F00104B00504D55FEABA
:1024C000887001D544F00204700504D55FEA4870B5
:1024D00001D544F00404300529D518F0700F26D03A
:1024E00008F07000402815D006DC102809D02028FC
:1024F0000AD0302816D10AE050280ED0602811D119
:102500000EE044F008040DE044F010040AE044F04A
:10251000200407E044F0400404E044F0800401E0BB
:1025200044F480742868816921F070018161296810
:1025300004204860002C05D0686A20436862284661
:10254000FFF74AFEBDE8F09F70B5040003D094F891
:10255000200010B104E0012070BD204600F082F898
:102560002068016841F00101016000F0C3FD0546EB
:10257000052604E000F0BEFD401B0A2811D82068A3
:102580004068C007F6D02068016821F002010160B0
:1025900000F0B0FD05460BE000F0ACFD401B0A2842
:1025A00006D9606A40F40030606284F82060D2E7A7
:1025B000206840688007EFD4207E012820680168E9
:1025C0003DD021F080010160607E01282068016813
:1025D00038D021F040010160A07E01282068016808
:1025E00033D021F020010160E07E012820680168DD
:1025F0002ED041F010010160207F01282068016881
:1026000029D021F008010160607F0128206801685D
:1026100024D021F004010160D4E902010843D4E987
:102620000412114308436168491E08432168C861C8
:1026300000206062012084F82000002070BD41F07D
:102640008001C0E741F04001C5E741F02001CAE741
:1026500021F01001CFE741F00801D4E741F0040177
:10266000D9E70000F0B585B00021404A0091019102
:10267000029103913C4F51680368BC140225032664
:102680003B48491CBB4230D15160012907D1C16987
:1026900041F00071C161C16901F00071049181696B
:1026A00041F0040181618069324F00F00400049020
:1026B0004FF4006000906946384600F021FC6946FE
:1026C00038460396CDE9004500F01AFC0022114679
:1026D000132000F07BFD132000F06AFD0022012191
:1026E000142000F073FD142039E0234FBB4238D191
:1026F000C36943F08063C361C369012903F0806348
:102700000493516007D1C16941F00071C161C16991
:1027100001F000710491816941F0080181618069D3
:10272000009400F00800154C04906946204600F023
:10273000E7FB6014CDE9000569460396204600F0EA
:10274000DFFB002211463F2000F040FD3F2000F05B
:102750002FFD00220121402000F038FD402000F034
:1027600027FD05B0F0BD000000640040140000200B
:10277000001002400008014000680040000C0140C9
:1027800090F820200021012A08D0022A06D0416AB0
:1027900041F48021416201210846704700224262D3
:1027A000FAE7704710B5B4B004460AAB2CAA002172
:1027B000FFF752FD00282DD117492068884201D12A
:1027C00016A300E017A39DF82C000DF1180C9DF83E
:1027D0002F409DF82E209DF82D108CE817009DF8B5
:1027E00028000DF1080C9DF82B409DF82A209DF83B
:1027F00029108CE8170030992C98CDE900010B4A7C
:1028000080210CA8FDF7A2FD002803DD81B20CA8F1
:1028100001F032FF34B010BD0064004043414E313E
:102820000000000043414E3200000000C05100088B
:102830007047000010B5B4B004460AAB2CAA0121C1
:10284000FFF70AFD00282DD117492068884201D1E1
:1028500016A300E017A39DF82C000DF1180C9DF8AD
:102860002F409DF82E209DF82D108CE817009DF824
:1028700028000DF1080C9DF82B409DF82A209DF8AA
:1028800029108CE8170030992C98CDE900010B4AEB
:1028900080210CA8FDF75AFD002803DD81B20CA8A9
:1028A00001F0EAFE34B010BD0064004043414E31F7
:1028B0000000000043414E32000000006851000853
:1028C0007047000070B5044690F82000012804D03D
:1028D000606A40F40020606218E0022084F8200062
:1028E0002068016821F00101016000F003FC054649
:1028F0000EE000BF00F0FEFB401B0A2808D9606A0A
:1029000040F400306062052084F82000012070BD92
:1029100020684068C007EDD1606270BD704700005C
:1029200000B50068094991B0884201D108A300E0D0
:1029300009A30BA240216846FDF708FD002803DD2E
:1029400081B2684601F098FE11B000BD00640040FD
:1029500043414E310000000043414E320000000070
:102960002D2D2D202573205458202D2D2D204D61E7
:10297000696C626F783020636F6D706C6574650D83
:102980000A0000007047000000B50068094991B0D6
:10299000884201D108A300E009A30BA240216846A8
:1029A000FDF7D4FC002803DD81B2684601F064FE27
:1029B00011B000BD0064004043414E3100000000F2
:1029C00043414E32000000002D2D2D202573205450
:1029D00058202D2D2D204D61696C626F7831206358
:1029E0006F6D706C6574650D0A0000007047000023
:1029F00000B50068094991B0884201D108A300E000
:102A000009A30BA240216846FDF7A0FC002803DDC6
:102A100081B2684601F030FE11B000BD0064004094
:102A200043414E310000000043414E32000000009F
:102A30002D2D2D202573205458202D2D2D204D6116
:102A4000696C626F783220636F6D706C6574650DB0
:102A50000A000000704710B590F8211000220229EA
:102A600005D00421816380F82020012010BD016879
:102A70000B6823F00E030B6001680B6823F0010361
:102A80000B6090F84030C46B012101FA03F36360DE
:102A900080F8211080F82020104610BD2DE9F05F4D
:102AA00090F821100024022903D00421816301241D
:102AB00085E001680A6822F00E020A6001680A686F
:102AC00022F001020A603F4E3E4FB215DFF8F4C01B
:102AD000DFF8F090DFF8ECA0DFF8E8B0DFF8E4E032
:102AE0000168783F13011502ACF1640CA9F150099B
:102AF000AAF13C0AABF1280BAEF1140E4FF480188A
:102B0000B14227D9B9420ED0614512D049451DD0F6
:102B1000514518D0594518D0714501D1424615E0AC
:102B2000294EB14201D1012210E0274E1436B142A4
:102B300001D110220AE0244E2836B14206D0224AA2
:102B40003C32914201D11A4600E02A461E49091F33
:102B50000A602BE0B94213D0614517D0494522D015
:102B600051451DD059451DD0714501D142461AE04D
:102B7000B14202D14FF0807215E0134EB14201D143
:102B8000012210E0104E1436B14201D110220AE0A9
:102B90000D4E2836B14206D00B4A3C32914201D14B
:102BA0001A4600E02A46074980394A60012180F828
:102BB0002110002180F82010416B01B18847204688
:102BC000BDE8F09F80000240080402402DE9F05F5C
:102BD000C16B0A6801680B68046C4FF0040808FABE
:102BE00004F8844D844E854FDFF814C2DFF8149248
:102BF000DFF814A2DFF814B2DFF814E218EA020FCB
:102C000065D05FEA437862D50A68920603D40A6801
:102C100022F004020A60DFF8F0814FF4806201685C
:102C200008F1140813011402414524D9A9420DD01A
:102C3000B1420FD0B9421AD0614515D0494515D0DF
:102C4000514501D1120312E0594501D104220EE091
:102C5000714501D140220AE06D4D1435A94206D0DC
:102C60006B4A2832914201D11A4600E02246674958
:102C7000091F0A6029E0A94213D0B14215D0B94218
:102C800020D061451BD049451BD0514502D14FF49E
:102C9000800217E0414502D14FF0806212E05945B1
:102CA00001D104220EE0714501D140220AE0584DC5
:102CB0001435A94206D0564A2832914201D11A460B
:102CC00000E022464B4908394A60C16A71E04FF082
:102CD000020808FA04F818EA020F70D05FEA837855
:102CE0006DD50A68920606D40A6822F00A020A60C4
:102CF000012180F82110DFF810814FF40072016883
:102D000008F1140813011402414524D9A9420DD039
:102D1000B1420FD0B9421AD0614515D0494515D0FE
:102D2000514501D1120312E0594501D102220EE0B2
:102D3000714501D120220AE0354D1435A94206D053
:102D4000334A2832914201D11A4600E022462F49E7
:102D5000091F0A6029E0A94213D0B14215D0B94237
:102D600020D061451BD049451BD0514502D14FF4BD
:102D7000001217E0414502D14FF0007212E05945B0
:102D800001D102220EE0714501D120220AE0204D3E
:102D90001435A94206D01E4A2832914201D11A4662
:102DA00000E02246134908394A60002180F82010CB
:102DB000816A00291CD0BDE8F05F0847FFE70825BD
:102DC000A540154214D01A0712D50A6822F00E0247
:102DD0000A6090F84020C36B012101FA02F25A60A8
:102DE000816380F82110002180F82010016BE0E75A
:102DF000BDE8F09F080002401C0002403000024085
:102E000044000240580002406C00024008040240A6
:102E10001C04024030B560B11A4B026814219A427A
:102E200009D2194B1344B3FBF1F18900016417492E
:102E30000AE0012030BD134B5B421344B3FBF1F1B8
:102E4000890001640F490839C163022180F821100B
:102E5000136843F6F0718B43F0E901142143D0E984
:102E600002452C4321430469214344692143846979
:102E70002143194311600021416301224277017708
:102E8000084630BD08040240F8FFFDBF00000240C4
:102E900070B5044690F82000002501280CD00120D0
:102EA00084F8200094F821600020012E06D084F8D8
:102EB00020000225284670BD022070BD022684F83D
:102EC0002160A0632068066826F00106066020469F
:102ED000FEF784FEE06A00282068016802D041F015
:102EE0000E0106E021F0040101602068016841F054
:102EF0000A0101602068016841F001010160D9E721
:102F00002DE9F84FDFF8B8910024A9F1040B23460E
:102F10000F2709F1040AABF1040EC9E00125A54011
:102F20002A40AA427DD1674ED1F804C0ACEB060816
:102F3000B44532D014DCBCF1030F3AD009DCBCF14B
:102F4000000F2AD0BCF1010F1CD0BCF1020F31D10F
:102F50001DE0BCF1110F17D0BCF1120F2AD119E0FE
:102F6000B8F5881F19D006DCB8F5803F15D0B8F544
:102F7000801F1FD111E0B8F5001F0ED0B8F5041F57
:102F800018D10AE0CB6815E0CB681B1D12E0CB68B6
:102F900008330FE0CB680C330CE08B682BB1012BAE
:102FA0004FF0080303D0456104E0042302E005610B
:102FB00000E00023FF2A01D8064601E000F10406E4
:102FC0004FEA840501D9A5F12005D6F8008007FA5B
:102FD00005FC28EA0C0803FA05F548EA0508C6F8D6
:102FE00000804D68ED0062D5374DAE6946F00106B0
:102FF000AE61AD6924F0030605F001050095334D7F
:1030000006EB050CDCF80850A607360F07FA06F8A1
:1030100025EA0805DFF8B880404503D14FF00008E5
:1030200017E044E0DFF8AC80404502D14FF00108E2
:103030000FE0DFF8A480404502D14FF0020808E01D
:10304000DFF89880404502D14FF0030801E04FF0CF
:10305000040808FA06F848EA0508CCF808804D6824
:10306000D9F80060ED024D4601D5164300E09643C5
:103070002E604D68DAF80060AD02554601D5164362
:1030800000E096432E604D68DBF80060AD035D46BE
:1030900001D5164300E096432E604D68DEF80060CF
:1030A000ED03754601D5164300E096432E60641C7F
:1030B0000D682A46E5407FF431AFBDE8F88F000087
:1030C00008040140000011100010024000000140FF
:1030D00000080140000C01400010014000140140B4
:1030E0008068084000D0012070470AB10161704734
:1030F0000904FBE701488068704700001C000020BD
:103100000248816802781144816070471C000020E9
:10311000074810B5016841F010010160032000F07C
:1031200075F80F2000F006F800F024F8002010BD1C
:103130000020024070B50D4D04464FF47A71287896
:10314000B1FBF0F00A490968B1FBF0F000F022FC95
:1031500048B9102C07D200222146501E00F036F844
:1031600000206C6070BD012070BD00001C000020BC
:10317000280000200C4808B5816941F001018161F7
:10318000816901F001010091C16941F08051C16183
:10319000C06900F0805000900448416821F0E0616F
:1031A00041F00071416008BD001002400000014084
:1031B000002809DB00F01F02012191404009800036
:1031C00000F1E020C0F8001170470000F0B40E4B91
:1031D0001B680C46C3F30223C3F10705042D00D975
:1031E0000425191D072901D2002300E0DB1E01265A
:1031F00006FA05F1491E214099409E40761E164070
:103200003143F0BC01F06EBC0CED00E0064900F06B
:10321000070208684FF6FF03184040EA0220034AFD
:1032200010430860704700000CED00E00000FA0554
:103230002DE9F843044600785B4DC0074FF00109C3
:1032400051D0E8690026C00008D4E86940F08050F9
:10325000E861E869012600F0805000905348016859
:10326000C90512D40168804641F480710160FFF7FE
:1032700041FF074605E000BFFFF73CFFC01B642885
:1032800077D8D8F80000C005F6D5286A10F4407049
:103290001ED0A18801F44071814219D0286A4449A6
:1032A00020F44070C1F8009000220A602862C00734
:1032B0000ED0FFF71FFF074641F2883805E000BF38
:1032C000FFF718FFC11B414553D8286A8007F7D57F
:1032D000286A616820F44070084328621EB1E869DA
:1032E00020F08050E8612078800705D56868A168E3
:1032F00020F44040084368602078400705D5E86A1C
:10330000E16820F400300843E8622078000705D522
:10331000E86A216920F480200843E862E86A8003B3
:1033200002D4E86A400333D52868C00028D428684E
:10333000400105D5E86AA16900F0F000884225D176
:10334000E86AA16920F0F0000843E862E86A616970
:1033500020F470400843E8621649C1F87090FFF706
:10336000C9FE064608E004E0FFF7C4FE801B64289F
:1033700002D90320BDE8F88328688000F4D507E06F
:10338000E86A616900F47040884201D00120F1E7E9
:103390002078C00605D56868E16920F480000843FC
:1033A00068600020E6E70000001002400070004066
:1033B00040044242000042422DE9F0470F4605001A
:1033C00061D0434E306800F00700B84209D230683F
:1033D00020F0070038433060306800F00700B84242
:1033E00051D128683B4C810712D5400703D560684E
:1033F00040F4E06060602878000703D5606840F41E
:10340000605060606068A96820F0F0000843606068
:103410002878C00728D06868012810D021680228C1
:1034200010D0890700292EDA616821F003010143D9
:103430006160FFF75FFE804641F288390DE0216848
:103440008903EFE78901EDE7FFF754FEA0EB0801E0
:10345000494502D90320BDE8F0876068696800F03B
:103460000C00B0EB810FEFD1306800F00700B842DC
:103470000BD9306820F0070038433060306800F026
:103480000700B84201D00120E5E72878400705D5BC
:103490006068E96820F4E06008436060287800070D
:1034A00006D56068296920F4605040EAC100606078
:1034B00000F038F86168084AC1F30311515CC84054
:1034C0000649086006480068FFF734FE0020C2E79E
:1034D00000200240001002408A4F0008280000200F
:1034E000200000200448054900684968044AC1F3E7
:1034F0000221515CC84070472800002000100240A3
:103500009A4F00080448054900684968044AC1F315
:10351000C221515CC84070472800002000100240C2
:103520009A4F00082DE9F0411D494A681D4802F0F4
:103530000C03042B2ED0082B2CD11B48C2F3834341
:10354000C45CD00328D5C86A174A00F00F000E32B9
:10355000105CCA6AD20316D5CA6AC96AC2F30312DA
:10356000C1F30321521C891CA2FB0023A1FB0415FB
:103570000C4F0026A1FB070C05FB07C501FB0651FC
:10358000FCF76CFE03E007496143B1FBF0F00D2C42
:1035900000D14008BDE8F08104486043FAE700002C
:1035A0000010024000127A006C4F000800093D0034
:1035B0002DE9F84F040070D02078F14DC00749D0B4
:1035C0006868C0F38100012807D06868C0F38100F3
:1035D000022809D16868C00306D52868800339D558
:1035E000A0680028E7D035E0A068B0F5803F0BD098
:1035F00010B1B0F5A02F11D0286820F480302860D9
:10360000286820F4802002E0286840F48030286098
:10361000A06890B1FFF76EFD06460AE0286840F406
:1036200080202860F0E700BFFFF764FD801B64285E
:1036300076D828688003F7D50CE0FFF75BFD0646D7
:1036400005E000BFFFF756FD801B6428F0D828680E
:103650008003F7D42078CB4E80074FF001094FF05C
:1036600000073AD5686810F00C0F07D06868C0F3FF
:103670008100022809D16868C00306D42868800741
:1036800015D56069012808D111E06069B8B1C6F8A4
:103690000090FFF72FFD804606E042E1FFF72AFD8C
:1036A000A0EB08000228C3D828688007F6D5286850
:1036B000A16920F0F80040EAC10028600DE0376001
:1036C000FFF718FD804605E0FFF714FDA0EB0800AA
:1036D0000228ADD828688007F6D4207800072ED5B8
:1036E000A948E169E9B1C0F80090FFF703FD804601
:1036F00006E000BFFFF7FEFCA0EB0800022897D809
:10370000686A8007F6D5A1484FF4FA510068B0FB0B
:10371000F1F0009000BF0098411E0091FAD20EE037
:10372000B0E00760FFF7E6FC804605E0FFF7E2FC4B
:10373000A0EB0800022889D8686A8007F6D42078B0
:10374000400763D5E8694FF00008C00009D4E86974
:1037500040F08050E861E8694FF0010800F08050C7
:1037600000908B480168C90512D40168834641F472
:1037700080710160FFF7BEFC824605E0FFF7BAFCEE
:10378000A0EB0A0064287DD8DBF80000C005F5D561
:10379000206901280AD008B1052813D0286A20F032
:1037A00001002862286A20F0040002E0286A40F044
:1037B00001002862206941F2883B98B1FFF79AFC2A
:1037C00082460BE0286A40F004002862EEE700BF62
:1037D000FFF790FCA0EB0A01594553D8286A8007EF
:1037E000F6D50CE0FFF786FC824605E0FFF782FC89
:1037F000A0EB0A01594545D8286A8007F6D4B8F1EC
:10380000000F03D0E86920F08050E861E06AD0B38F
:103810006968C90307D56968C1F38101022902D12A
:10382000E96AC9037DD4022808D0E86A20F4803010
:10383000E862B766FFF75EFC80463BE02868C000A0
:1038400005D5E86A616B00F0F000884269D1B7667F
:10385000FFF750FC804605E0FFF74CFCA0EB0800AA
:10386000642874D828680001F6D4E86A616B20F0F7
:10387000F0000843E862E86A216B20F470600843B6
:10388000E86201E063E018E0C6F86890FFF732FCF8
:10389000804605E0FFF72EFCA0EB0800642856D810
:1038A00028680001F6D508E0FFF724FCA0EB08002B
:1038B00064284CD828680001F6D4206A90B369685F
:1038C000C1F38101022949D00228376603D0FFF7EE
:1038D00011FC04463EE0FFF70DFC074605E000BF83
:1038E000FFF708FCC01B022831D828688001F7D4F4
:1038F000606AB0F5803F09D1E86A61680843E86210
:10390000E86AE16820F00F000843E862D4E90901A1
:103910000843696821F4741108436860C6F8609030
:1039200001E028E029E0FFF7E5FB044605E000BFE1
:10393000FFF7E0FB001B022809D828688001F7D5B3
:103940001BE000BFFFF7D6FB001B022802D90320B3
:10395000BDE8F88F28688001F4D40EE00128F7D084
:103960006868626A00F48031914204D1A16A00F46F
:103970007010884201D00120EAE70020E8E700004B
:103980000010024000004242800442422800002011
:103990000070004010B5401EB0F1807F01D30120BF
:1039A00010BD4FF0E02460610F21601701F09AF81C
:1039B0000020A06107202061002010BD70477047E3
:1039C00070B590F83C20012A29D0012480F83C40B1
:1039D000022280F83D2003685A689D6822F0700634
:1039E0000A6832435A600F4B02689A420BD0B2F118
:1039F000804F08D00C4B9A4205D00C4B9A4202D013
:103A00000B4B9A4204D1496825F080031943916019
:103A100080F83D40002180F83C10084670BD02202F
:103A200070BD0000002C0140000400400008004070
:103A3000000C004010B5040003D094F83D0010B114
:103A400007E0012010BD002084F83C00204600F073
:103A50001FF8022084F83D00211D206800F092FD2F
:103A6000012084F8460084F83E0084F83F0084F882
:103A7000400084F8410084F8420084F8430084F850
:103A8000440084F8450084F83D00002010BD00008B
:103A900008B500680B49884212D10B48C16941F052
:103AA0000201C161C069002200F002000090032100
:103AB0001D20FFF78BFBBDE808401D20FFF778BBFA
:103AC00008BD0000000400400010024090F83D10C6
:103AD000012901D001207047022180F83D100168C2
:103AE000CA6842F00102CA6000680D4988420BD0E2
:103AF000B0F1804F08D00B49884205D00A4988426E
:103B000002D00A49884204D1816801F007010629E0
:103B100003D0016841F001010160002070470000FE
:103B2000002C01400004004000080040000C004050
:103B300070B5044690F83C000025012817D00126F6
:103B400084F83C60022084F83D002068826822F0FE
:103B5000770222F47F4282600868502838D00DDC5A
:103B600020284FD005DC90B3102811D14AE0022064
:103B700070BD302846D040280AD13BE060282FD0C5
:103B800070280DD0B0F5805F03D0B0F5005F12D083
:103B9000012584F83D60002084F83C00284670BD73
:103BA000CB68D1E90121206800F030FD20688168F0
:103BB00041F0770109E0CB68D1E90121206800F0EC
:103BC00025FD2068816841F480418160E1E719E0CA
:103BD000CA684968206800F02BFD5021206806E083
:103BE000CA684968206800F034FD6021206800F050
:103BF00017FDCEE7CA684968206800F019FD40212A
:103C00002068F4E7226801461046F0E770472DE986
:103C1000F04104460068C66805694FF00007A9072F
:103C200013D5B10711D5F91E016101202077206855
:103C300080698007204602D0FFF7E8FF04E000F02B
:103C40007EF8204600F07CF82777680716D57007C5
:103C500014D521686FF004000861022020772068E5
:103C6000806910F4407F204602D0FFF7CFFF04E0C8
:103C700000F065F8204600F063F82777280715D58F
:103C8000300713D521686FF0080008610420207701
:103C90002068C0698007204602D0FFF7B7FF04E024
:103CA00000F04DF8204600F04BF82777E80616D5CF
:103CB000F00614D521686FF0100008610820207705
:103CC0002068C06910F4407F204602D0FFF79EFFB5
:103CD00004E000F034F8204600F032F82777E807D7
:103CE00008D0F00706D021686FF001000861204677
:103CF00000F028F8280608D5300606D521686FF0B0
:103D0000800008612046FFF759FE680608D5700656
:103D100006D521686FF040000861204600F07AF86F
:103D2000A8060AD5B00608D521686FF02000086102
:103D30002046BDE8F041FFF742BEBDE8F081704784
:103D4000704700000068314988425DD130484FF02B
:103D500000024178491C11F0FF034370014604D072
:103D600042700B7843F001030B7083785B1CDBB26D
:103D70008370022B04D382700B7843F002030B7024
:103D8000C3785B1CDBB2C370052B04D3C2700B7805
:103D900043F004030B7003795B1CDBB203710A2B45
:103DA00004D302710B7843F008030B7043795B1C5A
:103DB000DBB24371322B04D342710B7843F0100312
:103DC0000B7083795B1CDBB28371642B04D382712B
:103DD0000B7843F020030B7003895B1C9BB20381BB
:103DE000B3F5FA7F04D302810B7843F040030B70E4
:103DF00043895B1C9BB24381B3F57A7F04D3428134
:103E0000087840F08000087070470000000400400F
:103E10002C0000207047704770470000F8B501681B
:103E200004460868CA684B6910F00F0F4FF0000590
:103E300059D003F0010602F49077374365D0C107EB
:103E400005D0D10503D5616C41F0010161644107E2
:103E500005D5D90703D0616C41F002016164810787
:103E600005D5D90703D0616C41F0040161640107F5
:103E700007D502F02001314303D0616C41F0080105
:103E80006164616C00293AD0800604D5900602D5A1
:103E9000204600F028FC20684069616CC0F3801067
:103EA000090700D460B3204600F0F6FB20684069A3
:103EB000400621D52068143050E8001F21F0400151
:103EC00040E80012002AF5D1E06BA8B16D494163CA
:103ED000E06BFEF7E3FD002811D0E06B416B01B011
:103EE000BDE8F040084783060FD593060DD5204660
:103EF000BDE8F84000F0F7BB2046FFF78DFFF8BDA6
:103F00002046FFF789FF6564F8BD266B2023012E4C
:103F10007CD1C6067AD5D60678D508684868009060
:103F200048694FF00206400640D5E16B08684068DA
:103F30000004000CE8D0A28D8242E5D9E0858869B2
:103F400020282DD020680C3050E8001F21F480710B
:103F500040E80012002AF5D12068143050E8001F14
:103F600021F0010140E80012002AF5D12068143048
:103F700050E8001F21F0400140E80012002AF5D16E
:103F800084F84230256320680C3050E8001F21F08F
:103F9000100140E80012002AF5D1E06BFEF75BFD4E
:103FA0006663A08DE18D401A81B22AE0A08DE18D7B
:103FB000401A81B2E08D0028A6D00029A4D0226842
:103FC0000C3252E8000F20F4907042E80007002FF6
:103FD000F5D12068143050E8002F22F0010240E8AB
:103FE0000027002FF5D184F84230256320680C307B
:103FF00050E8002F22F0100240E80023002BF5D1FA
:1040000066632046FFF707FFF8BDFFE705062BD5DF
:10401000150629D594F841002128F5D1A068B0F5FE
:10402000805F01D12069B0B1206A411C2162216802
:1040300000784860E08C401E0004000CE084E3D16E
:104040002068C16821F08001C1602068C16841F02A
:104050004001C160D8E7206A0088C0F308004860CA
:10406000206A801C2062E5E74006CDD55006CBD5FE
:10407000CA68204622F04002CA6084F8413000F04D
:10408000C6F8C1E78946000870B5040004D094F86A
:104090004100002510B106E0012070BD84F84050B9
:1040A000204600F023F8242084F841002068C168ED
:1040B00021F40051C160204600F076FB20680169C0
:1040C00021F4904101612068416921F02A01416198
:1040D0002068C16841F40051C1606564202084F803
:1040E000410084F842006563002070BD30B585B0A2
:1040F00000240094019402940394006818498842B3
:104100002CD11848816941F480418161816901F4B1
:1041100080410491816941F0040181618069124DFF
:1041200000F0040004904FF4007000900220019011
:104130000320039069462846FEF7E2FE2815CDE9E4
:104140000004694628460294FEF7DAFE00220F2199
:104150002520FFF73BF82520FFF72AF805B030BDF2
:1041600000380140001002400008014070472DE96E
:10417000F843044690F84100984616460D4620281C
:1041800002D00220BDE8F88385B17EB100206064D2
:10419000212084F84100FEF7ADFFA6848146E68425
:1041A000A0682027B0F5805F02D003E00120E9E796
:1041B000206910B12E4600250EE000260CE080217B
:1041C000204600F04DFBA8B9C6B116F8010B2168D6
:1041D0004860E08C401EE084E08C4B464FF00002CB
:1041E000CDF800800028EAD14FF04001204600F0D1
:1041F00037FB40B184F841700320C3E735F8020B68
:10420000C0F30800E3E784F841700020BAE7704784
:10421000FEE700003EB50021224800910191204AAE
:1042200002910260921582600124047301750425D5
:104230004FF460220561C2614160FDF77BFD08B16A
:10424000FDF7E2FC0A20CDE9000403246946154885
:104250000294FDF7DBFC08B1FDF7D6FC0C200090C2
:104260000220019069460F48FDF7D0FC08B1FDF728
:10427000CBFC0D20CDE9000469460A48FDF7C6FCD9
:1042800008B1FDF7C1FC0E20CDE9000569460548DF
:10429000FDF7BCFC002801D0FDF7B6FC3EBD0000D8
:1042A0000024014054000020114810B50F4901605E
:1042B000062141604FF08041816000214FF4E022EF
:1042C000C0E903124FF400124261017601224276E6
:1042D0008276C17601774177FEF736F9002803D060
:1042E000BDE81040FDF790BC10BD00000064004028
:1042F000C8000020114810B50F4901600621416037
:104300004FF08041816000214FF4E022C0E90312A8
:104310004FF4001242610176012242768276C17624
:1043200001774177FEF710F9002803D0BDE810406F
:10433000FDF76ABC10BD000000680040F0000020DE
:10434000094808B5416941F0010141614069002215
:1043500000F00100009011460B20FEF737FFBDE88A
:1043600008400B20FEF724BF001002402DE9F04169
:1043700086B000242F48009401940294039481692C
:1043800041F040018161816901F04001049181693E
:1043900041F010018161816901F01001049181698E
:1043A00041F008018161816901F00801049181698E
:1043B00041F020018161816901F02001049181694E
:1043C00041F0040181618069012200F004001A4F6C
:1043D0001502049029463846FEF787FEDFF85C8018
:1043E000002280214046FEF780FE01225102404615
:1043F000FEF77BFE0620CDE90004694610480294D2
:10440000FEF77EFD0095022601250396CDE90154B5
:1044100069463846FEF774FD4FF42070CDE900057B
:10442000CDE9024669464046FEF76AFD06B0BDE8A2
:10443000F08100000010024000140140000C014017
:104440000018014010B586B000241748009401946C
:1044500002940394049413490594016041F61F41AA
:10446000C0E901140921C0E903148461FFF7E2FAED
:1044700008B1FDF7C9FB4FF48050009069460A4827
:10448000FFF756FB08B1FDF7BFFB049404A90648EB
:104490000594FFF795FA002801D0FDF7B5FB06B0AB
:1044A00010BD000000040040180100200C4810B5A9
:1044B0000A4901604FF4E1314160002181600C2222
:1044C000C160C0E904128161C161FFF7DDFD002810
:1044D00003D0BDE81040FDF797BB10BD0038014088
:1044E00060010020FEE7FEE770477047FEF708BE58
:1044F00070B59CB038216846FCF7F2F814210EA87C
:10450000FCF7EEF8202113A8FCF7EAF801260024B6
:104510003004CDE902040225CDE908500096059645
:1045200001944FF4E010CDE90A046846FFF740F823
:1045300008B172B6FEE70F20CDE90E054FF480609A
:10454000CDE9104002210EA81294FEF735FF08B104
:1045500072B6FEE74FF400401590139513A8FEF7CE
:1045600067FE08B172B6FEE7014806671CB070BD71
:1045700000004242704700000148FFF748BB0000BE
:1045800018010020F0B502681C4B1D4C1D4D1E4E3D
:104590004FF08047984207D0B84205D0A04203D0E0
:1045A000A84201D0B04204D122F0700C4A6842EA1D
:1045B0000C02984207D0B84205D0A04203D0A842CE
:1045C00001D0B04203D122F44074CA6822434C693E
:1045D00022F08002224302608A68C2620A68826214
:1045E000984201D109690163012141610169C9074B
:1045F00003D0016921F001010161F0BD002C0140EF
:104600000004004000080040000C004010B5846821
:1046100042EA032224F47F440A432243826010BD0D
:10462000826822F070020A4342F0070181607047FD
:1046300010B5036A046A24F001040462846924F05A
:10464000F00444EA021423F00A020A43846102627D
:1046500010BD10B5036A046A24F010040462846972
:1046600023F0A00324F4704444EA023243EA011127
:104670008261016210BD00000A46014664230148C0
:10468000FFF775BD6001002010B5406A0021C185AB
:10469000C184FFF7C1FB10BD01680C3151E8002F48
:1046A00022F4907241E80023002BF5D10168143107
:1046B00051E8002F22F0010241E80023002BF5D140
:1046C000016B012909D101680C3151E8002F22F05A
:1046D000100241E80023002BF5D1202180F8421080
:1046E00000210163704708B590F84210222901D0DB
:1046F000022008BD82684FF480539A4201D10169BB
:1047000021B1816A9A421BD04AB10AE00268816AEB
:104710005268C2F308020A80816A891C08E00269B3
:1047200072B10268526802F07F020A70816A491C05
:104730008162C18D491E0904090CC18503D01BE0AB
:1047400002685268F1E70168CA6822F02002CA6074
:104750000168CA6822F48072CA6001684A6922F05E
:1047600001024A61202180F8421000214163026B5E
:10477000012A03D0FFF7FAFC002008BD016301689D
:104780000C3151E8002F22F0100241E80023002BE9
:10479000F5D101680A68D20602D50A684968009115
:1047A000818DFFF738FBE7E770B5044600680169C3
:1047B000E26821F44051114301612169A068084376
:1047C000616908432168CA6841F20C639A43024355
:1047D000CA6020684169A26921F4407111434161B6
:1047E0001E492068884202D1FEF78CFE01E0FEF7E8
:1047F00079FE00EBC00101EB0012606864218000CB
:10480000B2FBF0F3B3FBF1F36FF018067343B2FBA6
:10481000F0F5B2FBF0F605EB8305322303EB05154B
:10482000B5FBF1F5B6FBF1F605F0F00505EB061565
:10483000B2FBF0F6B2FBF0F0B0FBF1F06FF0180253
:10484000504306EB800003EB0010B0FBF1F0216851
:1048500000F00F002844886070BD0000003801405F
:104860002DE9F843984617460D460446089E24E075
:10487000701C22D0FEF73EFCA0EB0800B0421AD814
:10488000CEB12068C168490717D5802D15D0402DBD
:1048900013D00168C94309070FD401680025406897
:1048A00000902046FFF7F8FE0820606484F840502E
:1048B0000120BDE8F8830320FBE72068006835EAA3
:1048C000000004D00020B842D2D00020F1E701203F
:1048D000F9E700000148FFF7A1BA000060010020DD
:1048E000FEE7000010B5FCF7B7FF094BC2680948A6
:1048F0004FF480719A4201DD002203E0B2F1804F53
:1049000004DA0122BDE81040FEF7EFBB10BD000045
:104910000000A0400014014070B5144C60780028DD
:1049200023D1FCF799FF054602211148FEF7D8FB79
:10493000A0B10020EB680F4D00210122AB4200DD49
:1049400070B1E5786DB160B16270A170E170BDE8E1
:104950007040012280210848FEF7C7BB0120E9E72B
:10496000E270B3F1804F00DAE17070BD000000200A
:104970000018014000002041000C01400748417828
:1049800001290AD18178491CC9B28170032904D355
:10499000002280210248FEF7A8BB704700000020DB
:1049A000000C014010B50B4C012251022046FEF7CD
:1049B0009CFB012211020848FEF797FB0022802190
:1049C0002046FEF792FB0549002008704870887069
:1049D000C87010BD000C0140001401400000002010
:1049E00010B5084C08484FF40071227822B101221A
:1049F000FEF77BFB002003E00022FEF776FB0120A0
:104A0000207010BD00000020000C01402DE9F0478F
:104A1000ACB0FCF721FF0446006900F0D7F88146EE
:104A20008A46E06800F0D2F807468846A06800F0A1
:104A3000CDF805460E46206800F0C8F80E4A5278B8
:104A4000012A17D05FF05002CDE909A204AB83E838
:104A5000E00322798DE8070008A280210BA8FBF76C
:104A600075FC002803DD81B20BA8FFF705FE2CB012
:104A7000BDE8F0874422E7E7000000205662617439
:104A80003A252E3166562055563A256420546872D0
:104A90003A252E316625252042726B3A252E316645
:104AA0002525205374723A252E31666465672047A8
:104AB0006561723A25630D0A00000000490050EA62
:104AC000C12018BF04204A0D18BF40F0010040F279
:104AD000FF72B2EB515F08BF40F00200012808BF2F
:104AE000052070470907090E002804DB00F1E020CB
:104AF00080F80014704700F00F0000F1E02080F80B
:104B0000141D704730380A2801D201207047002058
:104B100070470000FEF7FCFAFFF7EAFCFFF726FCFF
:104B2000FFF70EFCFFF78EFCFFF774FBFFF7BEFCF0
:104B3000FFF7BAFBFFF7DEFB00F026F8FCF710FFEB
:104B4000FFF730FFFCF730FF0E4C0020FCF788FE2B
:104B50002078410604D520F040002070FFF740FF88
:104B60002078010608D520F080002070FFF706FFAE
:104B7000FFF74CFFFCF762FFFFF7CEFEFFF7B2FE38
:104B8000E3E700002C0000200148FEF79FBF000073
:104B90001801002010B500290AD00878002807D095
:104BA00005487844FCF798F9002801D0002010BD92
:104BB0000248784410BD00003A07000032070000A8
:104BC0000808A0F500114FEA3101704743004FEA91
:104BD000D30C4FEA3C0C43401FBF40070CF160511F
:104BE00013F0FE4F70471CF0006F03D100200CF053
:104BF000004170470CF0004343EA507010B540EAA2
:104C0000CC0000F066F900BF000000924FEA0001FE
:104C1000FFF7D6BF4FF000414FF00000A1F5002193
:104C2000704700004FF47F0C1CEAD0121EBF1CEA34
:104C3000D11392EA0C0F93EA0C0F00F0858090EAF2
:104C4000010F48BF42F4807240F4000C41F40000B0
:104C50002CF07F4120F07F4000B58142A2EB03029F
:104C60000FF2081CACEB504EC0F100009EF800E0C3
:104C70004FEA4E0E00FB0EFC38BF49004FEA2C1CD9
:104C800002F5FA020CFB0EF34FEACE1E4FEA112C8E
:104C90004FEAC1210EEB635E42EB22420EFB0CFC9D
:104CA0004FEA1C5300FB03114FEA112C4FEA01316C
:104CB0000EFB0CFC4FEADC4C00FB0C11C14228BF80
:104CC00009184CEB03335DF804EB10EB410143EBA7
:104CD000C250B2F57C0F38BF704729D512F0F00FE3
:104CE0001CBF00F1C04000F000407047008182838B
:104CF0008485868788898B8C8D8E8F9192939596EB
:104D000097999A9C9D9FA0A2A3A5A7A8AAACAEB074
:104D1000B2B3B5B7B9BCBEC0C2C5C7C9CCCED1D479
:104D2000D7D9DCDFE2E6E9ECF0F3F7FAFE000000A9
:104D30004FEA400C0CF1807CBCF17E4F28BF7047DD
:104D4000B0F1C04000F00BB990EA010F0CEAD113AA
:104D500048BF42F48072624538BF634507D213F4FE
:104D60007F0F16D080EA010000F00040704710B5B8
:104D700000F0AFF8097EFC3E00F005B880EA0100C3
:104D800000F00040704780EA010000F0004000F0B1
:104D9000E6B812F47F0F04BF0248704780EA0100B2
:104DA00000F0DDB80000C07FB0FA80F310FA03F223
:104DB000C3F19D030AD0D90501EB1220530638BF79
:104DC000704700F1010008BF20F0010070470000AB
:104DD0004FF47F0C1CEAD0121EBF1CEAD11392EADA
:104DE0000C0F93EA0C0F00F0478090EA010F48BFC8
:104DF00042F480724FF0004C4CEA00204CEA012152
:104E000002EB0302A0FB0113A2F50002002918BF68
:104E100043F001035B0028BF4FEA330342EB224219
:104E20005FEA132C4CEBC2502EBFBCEB436FB2F5C4
:104E30007C0F70474FEA036CBCF1004F08BF20F0B5
:104E40000100B2F57C0F38BF70470BD582F0FF022E
:104E500012F5803FC8BF704700F1C040D8BF00F0D6
:104E60000040704700F5000C5FEA4C0C48BF7047EB
:104E7000B0F1C04000F073B890EA010F0CEAD11312
:104E800048BF42F48072624538BF634504D280EA6D
:104E9000010000F00040704710B500F01AF800BFA4
:104EA0008900013E00F007B800F009B85FEA410C44
:104EB0005FEA1C6C08D080EA010000F050B85FEA9D
:104EC000400C5FEA1C6CF6D14FF00040A0F580006A
:104ED00070470EF1020E2EF0030E5EF8044B2442D2
:104EE00004D44FEA4102B2F17F4F11D84FEA400398
:104EF000B3F17F4F0CD80ED14FEAD07CB2F17F4F87
:104F00000CEB4C0C0CF1020C08BF4CEBD17C04E018
:104F10004FF0080C01E04FEAD17C0CEB4C0324FA73
:104F200003F404F00704B4F1040C06D20EEB840C75
:104F3000BDE810404CF0010C6047DFE80CF00708BA
:104F400002024FF00040A0F5800010BD084642006C
:104F500018BFD2F1807288BF00F0004010BDFF2161
:104F600041EAD050C0057047FBF716BD00000405AC
:104F70000607080900000000000D010203040506F1
:104F80000708090A0B0C0D0E0F10000000000000AE
:104F900000000102030406070809000000000102E6
:104FA00003043031323334353637383941424344E3
:104FB0004546403058003031323334353637383991
:104FC0006162636465664030780004000008000098
:104FD000000000000002000100001000024000007C
:104FE000000000A00000000005400000000000C814
:104FF000000000000C4000000000409C0000000089
:10500000194000000020BCBE000000003440000039
:10501000BFC91B8E00000004B5400000504BCFD02C
:105020006607E2CF010000006C4100003E8251AAF9
:10503000DFEEA73401000000D9420000DCB5A0E299
:105040003A301F97FFFFFFFFB4450000FD25A0C8C1
:10505000E9A3C14FFFFFFFFFFF3F000000000080FA
:1050600000000000FF3F0000000000800000000082
:105070000D0A3D3D3D3D3D3D3D3D3D3D2043414EC5
:10508000204C6F6F706261636B20546573742049AC
:105090006E6974204F4B203D3D3D3D3D3D3D3D3DC6
:1050A0003D0D0A202043414E313A204C6F6F706213
:1050B00061636B207C203530306B627073207C2004
:1050C00053746449643D3078313233207C2042612E
:1050D0006E6B20300D0A202043414E323A204C6F37
:1050E0006F706261636B207C203530306B6270734F
:1050F000207C2053746449643D3078343536207CFC
:105100002042616E6B2031340D0A20205465737487
:105110002073656E64732043414E31202B20434140
:105120004E3220657665727920313030306D732EC5
:105130002E2E0D0A3D3D3D3D3D3D3D3D3D3D3D3D20
:105140003D3D3D3D3D3D3D3D3D3D3D3D3D3D3D3D8F
:105150003D3D3D3D3D3D3D3D3D3D3D3D3D3D3D3D7F
:105160003D3D0D0A0D0A00002D2D2D2025732052E6
:10517000582D4649464F31202D2D2D20537464491A
:10518000643D30782530335820444C433D2564201D
:10519000446174613A20253032582025303258203D
:1051A00025303258202530325820253032582025DD
:1051B000303258202530325820253032580D0A0020
:1051C0002D2D2D202573205258202D2D2D20537448
:1051D0006449643D30782530335820444C433D25A4
:1051E0006420446174613A202530325820253032E1
:1051F000582025303258202530325820253032585A
:105200002025303258202530325820253032580D94
:105210000A0000002D2D2D2043414E3120545820EE
:105220002D2D2D2053746449643D3078253033583A
:1052300020444C433D256420446174613A2025306C
:10524000325820253032582025303258202530322F
:1052500058202530325820253032582025303258F9
:1052600020253032580D0A002D2D2D2043414E327D
:10527000205458202D2D2D2053746449643D3078DE
:105280002530335820444C433D25642044617461EB
:105290003A202530325820253032582025303258D7
:1052A00020253032582025303258202530325820E1
:1052B0002530325820253032580D0A00F8520008A7
:1052C00000000020380000008C0100083053000866
:1052D00038000020D0070000A80100081C000000D2
:1052E00043000000F8FFFFFF0C0000000E0000006C
:1052F0000F0000002E000000000000000000000071
:10530000000000000000000000000000000000009D
:10531000000000000100000010000000000000007C
:1053200000127A00000000000000000000000000F1
:04000005080001519D
:00000001FF
