:020000040800F2
:10000000FFFF0020555C0008792C00087B2C0008BD
:100010007D2C00087F2C0008812C000800000000C7
:10002000000000000000000000000000832C000819
:10003000852C000800000000872C0008892C00088F
:100040009D5C00089D5C00089D5C00089D5C0008AC
:100050009D5C00089D5C00089D5C00089D5C00089C
:100060009D5C00089D5C00089D5C0008912C0008C8
:100070009D5C00089D5C00089D5C00089D5C00087C
:100080009D5C00089D5C00089D5C0008A12C000898
:10009000B12C00089D5C00089D5C00089D5C000878
:1000A0009D5C00089D5C00089D5C00089D5C00084C
:1000B0009D5C0008C12C00089D5C00089D5C000848
:1000C0009D5C00089D5C00089D5C00089D5C00082C
:1000D0009D5C0008D12C00089D5C00089D5C000818
:1000E0009D5C00089D5C00089D5C0008000000000D
:1000F0000000000000000000000000000000000000
:1001000000000000000000009D5C00089D5C0008ED
:100110009D5C00089D5C00089D5C00089D5C0008DB
:100120009D5C00089D5C00089D5C00089D5C0008CB
:100130009D5C00080000000000000000E12C0008A9
:10014000F12C00089D5C00089D5C00089D5C000887
:10015000000000000000000000000000000000009F
:10016000000000000000000000000000000000008F
:10017000000000000000000000000000000000007F
:10018000000000000000000000000000000000006F
:10019000000000000000000000000000000000005F
:1001A000000000000000000000000000000000004F
:1001B000000000000000000000000000000000003F
:1001C000000000000000000000000000000000002F
:1001D000000000000000000000000000000000001F
:0401E0005FF8E0F1F3
:1001E80010B5054C237833B9044B13B10448AFF369
:1001F80000800123237010BDBC0600200000000011
:10020800709A000808B5034B1BB103490348AFF3C4
:10021800008008BD00000000C0060020709A000899
:1002280081F0004102E000BF83F0004330B54FEA9F
:1002380041044FEA430594EA050F08BF90EA020F0C
:100248001FBF54EA000C55EA020C7FEA645C7FEA9F
:10025800655C00F0E2804FEA5454D4EB5555B8BFC2
:100268006D420CDD2C4480EA020281EA030382EA33
:10027800000083EA010180EA020281EA0303362DC5
:1002880088BF30BD11F0004F4FEA01314FF4801C98
:100298004CEA113102D0404261EB410113F0004FAA
:1002A8004FEA03334CEA133302D0524263EB430361
:1002B80094EA050F00F0A780A4F10104D5F1200EFF
:1002C8000DDB02FA0EFC22FA05F2801841F100015A
:1002D80003FA0EF2801843FA05F359410EE0A5F12E
:1002E80020050EF1200E012A03FA0EFC28BF4CF05F
:1002F800020C43FA05F3C01851EBE37101F0004515
:1003080007D54FF0000EDCF1000C7EEB00006EEB21
:100318000101B1F5801F1BD3B1F5001F0CD34908AB
:100328005FEA30004FEA3C0C04F101044FEA445202
:1003380012F5800F80F09A80BCF1004F08BF5FEA89
:10034800500C50F1000041EB045141EA050130BD69
:100358005FEA4C0C404141EB0101013C28BFB1F57B
:10036800801FE9D291F0000F04BF01460020B1FAC6
:1003780081F308BF2033A3F10B03B3F120020CDA99
:100388000C3208DD02F1140CC2F10C0201FA0CF077
:1003980021FA02F10CE002F11402D8BFC2F1200CDC
:1003A80001FA02F120FA0CFCDCBF41EA0C01904092
:1003B800E41AA2BF01EB0451294330BD6FEA0404DB
:1003C8001F3C1CDA0C340EDC04F11404C4F12002C6
:1003D80020FA04F001FA02F340EA030021FA04F3D8
:1003E80045EA030130BDC4F10C04C4F1200220FA2F
:1003F80002F001FA04F340EA0300294630BD21FA6D
:1004080004F0294630BD94F0000F83F4801306BF32
:1004180081F480110134013D4EE77FEA645C18BF26
:100428007FEA655C29D094EA050F08BF90EA020FBD
:1004380005D054EA000C04BF1946104630BD91EAB5
:10044800030F1EBF0021002030BD5FEA545C05D1B8
:100458004000494128BF41F0004130BD14F58004F7
:100468003CBF01F5801130BD01F0004545F0FE416B
:1004780041F470014FF0000030BD7FEA645C1ABFA0
:10048800194610467FEA655C1CBF0B46024650EAD7
:10049800013406BF52EA033591EA030F41F4002103
:1004A80030BD00BF90F0000F04BF0021704730B589
:1004B8004FF4806404F132044FF000054FF000015E
:1004C80050E700BF90F0000F04BF0021704730B51F
:1004D8004FF4806404F1320410F0004548BF4042F4
:1004E8004FF000013EE700BF42004FEAE2014FEA49
:1004F80031014FEA02701FBF12F07F4393F07F4F24
:1005080081F06051704732F07F4208BF704793F026
:100518007F4F04BF41F40021704730B54FF4607439
:1005280001F0004521F000411CE700BF50EA01023C
:1005380008BF704730B54FF000050AE050EA0102E5
:1005480008BF704730B511F0004502D5404261EB55
:1005580041014FF4806404F132045FEA915C3FF496
:10056800D8AE4FF003025FEADC0C18BF03325FEA33
:10057800DC0C18BF033202EBDC02C2F1200300FAE4
:1005880003FC20FA02F001FA03FE40EA0E0021FA09
:1005980002F11444BDE600BF80F0004002E000BF55
:1005A80081F0004142001FBF5FEA410392EA030F56
:1005B8007FEA226C7FEA236C6AD04FEA1262D2EBA0
:1005C8001363C1BFD218414048404140B8BF5B42A5
:1005D800192B88BF704710F0004F40F4000020F03E
:1005E8007F4018BF404211F0004F41F4000121F054
:1005F8007F4118BF494292EA030F3FD0A2F101029E
:1006080041FA03FC10EB0C00C3F1200301FA03F1DB
:1006180000F0004302D5494260EB4000B0F5000FFE
:1006280013D3B0F1807F06D340084FEA310102F1BD
:100638000102FE2A51D2B1F1004F40EBC25008BF6F
:1006480020F0010040EA03007047490040EB000039
:10065800013A28BFB0F5000FEDD2B0FA80FCACF13A
:10066800080CB2EB0C0200FA0CF0AABF00EBC25067
:1006780052421843BCBFD0401843704792F0000F55
:1006880081F4000106BF80F400000132013BB5E7A8
:100698004FEA41037FEA226C18BF7FEA236C21D01E
:1006A80092EA030F04D092F0000F08BF0846704783
:1006B80090EA010F1CBF0020704712F07F4F04D151
:1006C800400028BF40F00040704712F100723CBF64
:1006D80000F50000704700F0004343F0FE4040F48E
:1006E800000070477FEA226216BF08467FEA23634C
:1006F8000146420206BF5FEA412390EA010F40F437
:10070800800070474FF0000304E000BF10F0004382
:1007180048BF40425FEA000C08BF704743F0964369
:1007280001464FF000001CE050EA010208BF704784
:100738004FF000030AE000BF50EA010208BF70470B
:1007480011F0004302D5404261EB41015FEA010C20
:1007580002BF84460146002043F0B64308BFA3F118
:100768008053A3F50003BCFA8CF2083AA3EBC253FA
:1007780010DB01FA02FC634400FA02FCC2F1200219
:10078800BCF1004F20FA02F243EB020008BF20F050
:100798000100704702F1200201FA02FCC2F12002B6
:1007A80050EA4C0021FA02F243EB020008BF20EAAB
:1007B800DC7070474FF0FF0C1CEAD0521EBF1CEAD9
:1007C800D15392EA0C0F93EA0C0F6FD01A4480EAC7
:1007D800010C400218BF5FEA41211ED04FF00063B0
:1007E80043EA501043EA5111A0FB01310CF00040DC
:1007F800B1F5000F3EBF490041EAD3715B0040EA02
:10080800010062F17F02FD2A1DD8B3F1004F40EBD1
:10081800C25008BF20F00100704790F0000F0CF0A4
:10082800004C08BF49024CEA502040EA51207F3A68
:10083800C2BFD2F1FF0340EAC250704740F4000043
:100848004FF00003013A5DDC12F1190FDCBF00F034
:1008580000407047C2F10002410021FA02F1C2F1E2
:10086800200200FA02FC5FEA310040F1000053EA7E
:100878004C0308BF20EADC70704792F0000F00F0CC
:10088800004C02BF400010F4000F013AF9D040EAD2
:100898000C0093F0000F01F0004C02BF490011F466
:1008A800000F013BF9D041EA0C018FE70CEAD15364
:1008B80092EA0C0F18BF93EA0C0F0AD030F0004CE4
:1008C80018BF31F0004CD8D180EA010000F0004098
:1008D800704790F0000F17BF90F0004F084691F056
:1008E800000F91F0004F14D092EA0C0F01D1420290
:1008F8000FD193EA0C0F03D14B0218BF084608D159
:1009080080EA010000F0004040F0FE4040F40000A2
:10091800704740F0FE4040F4400070474FF0FF0C35
:100928001CEAD0521EBF1CEAD15392EA0C0F93EA7C
:100938000C0F69D0A2EB030280EA010C49024FEACE
:10094800402037D04FF0805343EA111143EA101387
:100958000CF000408B4238BF5B0042F17D024FF43F
:10096800000C8B4224BF5B1A40EA0C00B3EB510F1A
:1009780024BFA3EB510340EA5C00B3EB910F24BF03
:10098800A3EB910340EA9C00B3EBD10F24BFA3EB88
:10099800D10340EADC001B0118BF5FEA1C1CE0D150
:1009A800FD2A3FF650AF8B4240EBC25008BF20F003
:1009B800010070470CF0004C4CEA50207F32C2BF57
:1009C800D2F1FF0340EAC250704740F400004FF0F4
:1009D8000003013A37E792F0000F00F0004C02BF25
:1009E800400010F4000F013AF9D040EA0C0093F0EF
:1009F800000F01F0004C02BF490011F4000F013B49
:100A0800F9D041EA0C0195E70CEAD15392EA0C0FB0
:100A180008D142027FF47DAF93EA0C0F7FF470AFE8
:100A2800084676E793EA0C0F04D14B023FF44CAF2B
:100A380008466EE730F0004C18BF31F0004CCAD1C0
:100A480030F000427FF45CAF31F000437FF43CAFFC
:100A58005FE700BF4FF0FF3C06E000BF4FF0010C1E
:100A680002E000BF4FF0010C4DF804CD4FEA400200
:100A78004FEA41037FEA226C18BF7FEA236C11D04A
:100A880001B052EA530C18BF90EA010F58BFB2EBFD
:100A9800030088BFC81738BF6FEAE17018BF40F07D
:100AA800010070477FEA226C02D15FEA402C05D131
:100AB8007FEA236CE4D15FEA412CE1D05DF8040BB6
:100AC800704700BF844608466146FFE70FB5FFF749
:100AD800C9FF002848BF10F1000F0FBD4DF808ED01
:100AE800FFF7F4FF0CBF012000205DF808FB00BFF2
:100AF8004DF808EDFFF7EAFF34BF012000205DF84C
:100B080008FB00BF4DF808EDFFF7E0FF94BF012098
:100B180000205DF808FB00BF4DF808EDFFF7D2FF95
:100B280094BF012000205DF808FB00BF4DF808EDD8
:100B3800FFF7C8FF34BF012000205DF808FB00BFA5
:100B480053B94AB9002908BF00281CBF4FF0FF312C
:100B58004FF0FF3000F068B9ADF1080C6DE904CE34
:100B680000F006F8DDF804E0DDE9022304B0704780
:100B78002DE9F047089D0C46002B4ED194468C4534
:100B88008646B2FA82F262D94AB1C2F12003914094
:100B980020FA03F30CFA02FC194300FA02FE4FEAAA
:100BA8001C47B1FBF7F407FB14111FFA8CF64FEA48
:100BB8001E4343EA014304FB06F199420AD91CEBA0
:100BC800030304F1FF3080F01081994240F20D8157
:100BD800023C6344591AB1FBF7F007FB101100FB04
:100BE80006F61FFA8EF343EA01439E420AD91CEB2C
:100BF800030300F1FF3180F0FA809E4240F2F78053
:100C08006344023800219B1B40EA04401DB1D340D5
:100C18000022C5E90032BDE8F0878B4205D90DB145
:100C2800C5E9000100210846F5E7B3FA83F1002978
:100C380046D1A34202D39042C0F0EE80861A64EBFC
:100C480003030120002DE6D0C5E90063E3E7002A8D
:100C580040F08F80A1EB0C0401214FEA1C481FFAD9
:100C68008CF7B4FBF8F608FB164407FB06F04FEACE
:100C78001E4343EA0443984208D91CEB030306F1D8
:100C8800FF3402D2984200F2CB8026461C1AB4FBED
:100C9800F8F008FB104400FB07F71FFA8EF343EA4D
:100CA80004439F4208D91CEB030300F1FF3402D22E
:100CB8009F4200F2AE802046DB1B40EA0640A5E7D3
:100CC800C1F120078B4022FA07FC4CEA030C24FAF6
:100CD80007F64FEA1C49B6FBF9F81FFA8CFE09FB28
:100CE800186620FA07F38C4000FA01FA08FB0EF0A8
:100CF8001C43230C43EA0643984202FA01F20AD93C
:100D08001CEB030308F1FF3680F0818098427ED9FE
:100D1800A8F1020863441E1AB6FBF9F309FB13662F
:100D280003FB0EFEA4B244EA0644A64508D91CEB10
:100D3800040403F1FF3066D2A64564D9023B64443B
:100D480043EA0840A0FB0283A4EB0E049C42C6467B
:100D58001E4650D34DD055B1BAEB0E0364EB0604D2
:100D680004FA07F7CB401F43CC40C5E900740021C3
:100D780051E70CFA02FCC2F12003D9404FEA1C48A3
:100D880020FA03F300FA02FEB1FBF8F008FB101199
:100D980094401C431FFA8CF7230C43EA014300FBE1
:100DA80007F1994208D91CEB030300F1FF362CD256
:100DB80099422AD9023863445B1AB3FBF8F108FB5D
:100DC8001133A4B244EA034401FB07F3A34208D950
:100DD8001CEB040401F1FF3613D2A34211D90239E6
:100DE8006444E41A41EA00413BE70446F2E6084657
:100DF80008E7C245AFD2B8EB020E63EB0C06013828
:100E0800A9E73146EDE703469AE73046D4E7B0460E
:100E180081E7634402384FE706462346084611E750
:100E2800023E634432E700BF704700BF034613F831
:100E3800012B002AFBD1181A0138704770B54FF002
:100E4800FF0C4CF4E06C1CEA11541DBF1CEA13554E
:100E580094EA0C0F95EA0C0F00F0DEF82C4481EAB6
:100E6800030621EA4C5123EA4C5350EA013518BFD6
:100E780052EA033541F4801143F4801338D0A0FBC3
:100E880002CE4FF00005E1FB02E506F00042E0FB70
:100E980003E54FF00006E1FB03569CF0000F18BF76
:100EA8004EF0010EA4F1FF04B6F5007F64F540741E
:100EB80004D25FEA4E0E6D4146EB060642EAC621B1
:100EC80041EA55514FEAC52040EA5E504FEACE2E1E
:100ED800B4F1FD0C88BFBCF5E06F1ED8BEF1004F21
:100EE80008BF5FEA500E50F1000041EB045170BD9D
:100EF80006F0004646EA010140EA020081EA0301E1
:100F0800B4EB5C04C2BFD4EB0C0541EA045170BDDC
:100F180041F480114FF0000E013C00F3AB8014F156
:100F2800360FDEBF002001F0004170BDC4F100049F
:100F3800203C35DA0C341BDC04F11404C4F1200520
:100F480000FA05F320FA04F001FA05F240EA02007B
:100F580001F0004221F0004110EBD37021FA04F6B1
:100F680042EB06015EEA430E08BF20EAD37070BD6B
:100F7800C4F10C04C4F1200500FA04F320FA05F0CA
:100F880001FA04F240EA020001F0004110EBD370CC
:100F980041F100015EEA430E08BF20EAD37070BD3C
:100FA800C4F1200500FA05F24EEA020E20FA04F315
:100FB80001FA05F243EA020321FA04F001F00041C4
:100FC80021FA04F220EA020000EBD3705EEA430E35
:100FD80008BF20EAD37070BD94F0000F0FD101F064
:100FE8000046400041EB010111F4801F08BF013C9D
:100FF800F7D041EA060195F0000F18BF704703F0DB
:101008000046520043EB030313F4801F08BF013D61
:10101800F7D043EA0603704794EA0C0F0CEA13551D
:1010280018BF95EA0C0F0CD050EA410618BF52EAD7
:101038004306D1D181EA030101F000414FF00000DD
:1010480070BD50EA410606BF1046194652EA4306EB
:1010580019D094EA0C0F02D150EA013613D195EA5F
:101068000C0F05D152EA03361CBF104619460AD1A7
:1010780081EA030101F0004141F0FE4141F47001B1
:101088004FF0000070BD41F0FE4141F4780170BDA1
:1010980070B54FF0FF0C4CF4E06C1CEA11541DBF06
:1010A8001CEA135594EA0C0F95EA0C0F00F0A7F808
:1010B800A4EB050481EA030E52EA03354FEA013135
:1010C80000F088804FEA03334FF0805545EA131348
:1010D80043EA12634FEA022245EA111545EA106510
:1010E8004FEA00260EF000419D4208BF964244F1A7
:1010F800FD0404F5407402D25B084FEA3202B61AC6
:1011080065EB03055B084FEA32024FF480104FF499
:10111800002CB6EB020E75EB030E22BFB61A75460D
:1011280040EA0C005B084FEA3202B6EB020E75EBA0
:10113800030E22BFB61A754640EA5C005B084FEA08
:101148003202B6EB020E75EB030E22BFB61A7546D5
:1011580040EA9C005B084FEA3202B6EB020E75EBE0
:10116800030E22BFB61A754640EADC0055EA060EA1
:1011780018D04FEA051545EA16754FEA06164FEAE4
:10118800C30343EA52734FEAC2025FEA1C1CC0D190
:1011980011F4801F0BD141EA00014FF000004FF01D
:1011A800004CB6E711F4801F04BF01430020B4F1DE
:1011B800FD0C88BFBCF5E06F3FF6AFAEB5EB030C96
:1011C80004BFB6EB020C5FEA500C50F1000041EB93
:1011D800045170BD0EF0004E4EEA113114EB5C0460
:1011E800C2BFD4EB0C0541EA045170BD41F4801133
:1011F8004FF0000E013C90E645EA060E8DE60CEA3B
:10120800135594EA0C0F08BF95EA0C0F3FF43BAF57
:1012180094EA0C0F0AD150EA01347FF434AF95EA0E
:101228000C0F7FF425AF104619462CE795EA0C0FF2
:1012380006D152EA03353FF4FDAE1046194622E7BF
:1012480050EA410618BF52EA43067FF4C5AE50EA99
:1012580041047FF40DAF52EA43057FF4EBAE12E789
:101268004FF0FF3C06E000BF4FF0010C02E000BF6A
:101278004FF0010C4DF804CD4FEA410C7FEA6C5C4D
:101288004FEA430C18BF7FEA6C5C1BD001B050EAF0
:10129800410C0CBF52EA430C91EA030F02BF90EADB
:1012A800020F0020704710F1000F91EA030F58BF9A
:1012B800994208BF90422CBFD8176FEAE37040F0FC
:1012C800010070474FEA410C7FEA6C5C02D150EA9A
:1012D800013C07D14FEA430C7FEA6C5CD6D152EA55
:1012E800033CD3D05DF8040B704700BF844610461A
:1012F80062468C461946634600E000BF01B5FFF719
:10130800B7FF002848BF10F1000F01BD4DF808EDE8
:10131800FFF7F4FF0CBF012000205DF808FB00BFB9
:101328004DF808EDFFF7EAFF34BF012000205DF813
:1013380008FB00BF4DF808EDFFF7E0FF94BF012060
:1013480000205DF808FB00BF4DF808EDFFF7CEFF61
:1013580094BF012000205DF808FB00BF4DF808EDA0
:10136800FFF7C4FF34BF012000205DF808FB00BF71
:101378004FEA410C7FEA6C5C02D150EA013C0AD189
:101388004FEA430C7FEA6C5C02D152EA033C02D17B
:101398004FF0000070474FF0010070474FEA4102DC
:1013A80012F5001215D211D56FF47873B3EB6252AF
:1013B80012D94FEAC12343F0004343EA505311F0D6
:1013C800004F23FA02F018BF404270474FF0000068
:1013D800704750EA013005D111F0004008BF6FF0A6
:1013E800004070474FF00000704700BF002310B561
:1013F8000446C0E90033C0E9043383608181436651
:10140800C2818361194608225C3000F0F4F80D4B64
:10141800E46123620C4B63620C4BA3620C4BE362E6
:101428000C4B9C4206D003F16802944202D0D033A0
:101438009C4205D104F15800BDE8104000F04EB9B7
:1014480010BD00BF791500089B150008D3150008CA
:10145800F7150008D8060020024A0349034800F09F
:1014680069B800BF00000020C51D0008100000205A
:1014780041680C4B10B59942044601D000F09EFC1F
:10148800A168094B994202D0204600F097FCE16818
:10149800064B994204D02046BDE8104000F08EBCAF
:1014A80010BD00BFD806002040070020A807002074
:1014B80010B50B4B0B4C0C4A20461A600421002235
:1014C800FFF794FF04F1680001220921FFF78EFF5E
:1014D80004F1D0000222BDE810401221FFF786BFB8
:1014E80010080020D806002061140008014800F008
:1014F800F7B800BF1A080020014800F0F2B800BF92
:101508001A08002010B50446FFF7F0FF636B1BB103
:10151800BDE81040FFF7F0BF044B6363044B1B6842
:10152800002BF5D1FFF7C4FFF2E700BF79140008DC
:10153800100800202DE9F84307468846144600267F
:10154800D4E90195B9F1010905D52468002CF7D132
:101558003046BDE8F883AB89012B07D9B5F90E30C1
:10156800013303D029463846C04706436835E9E7C2
:1015780010B50C46B1F90E1000F068F80028ABBFA2
:10158800236DA3891B1823F48053ACBF2365A38163
:1015980010BD2DE9F0411F468B890546DB050C4639
:1015A800164605D502230022B1F90E1000F03CF8CA
:1015B800A389324623F48053A38128463B46B4F9D5
:1015C8000E10BDE8F04100F053B810B50C46B1F963
:1015D8000E1000F029F8431CA38915BF206523F4D9
:1015E800805343F48053A38118BFA38110BDB1F980
:1015F8000E1000F009B803460244934200D1704728
:1016080003F8011BF9E7000038B50023054D04462F
:1016180008462B6000F048FD431C02D12B6803B13B
:10162800236038BD1408002038B504460846114622
:101638000022054D2A601A4600F03EFD431C02D1E7
:101648002B6803B1236038BD1408002038B5044660
:10165800084611460022054D2A601A4600F034FD5E
:10166800431C02D12B6803B1236038BD1408002045
:1016780038B50446084611460022054D2A601A4628
:1016880000F038FD431C02D12B6803B1236038BD3C
:101698001408002070B500260C4D0D4C641BA410D6
:1016A800A64209D108F0E0F900260A4D0A4C641B4D
:1016B800A410A64205D170BD55F8043B98470136E1
:1016C800EEE755F8043B98470136F2E7F0A1000829
:1016D800F0A10008F0A10008F8A1000870477047C1
:1016E80070477047024B13B1024800F005B87047C5
:1016F80000000000E51F0008002301461A461846AE
:1017080000F08CBC2DE9F84306460820894600F015
:1017180079FC8046234F304600F044FBBB685D6887
:1017280025F00305A5F11104A4EB09044444B4FB16
:10173800F8F4013C08FB04F4A04505DD304600F050
:1017480037FB0020BDE8F8830021304600F036FC66
:10175800BB682B449842F1D13046614200F02EFC20
:10176800013010D10021304600F028FCBA68831AF5
:101778000F2BE3DD0C4943F0010309685360401A5D
:101788000A490860DAE7BB68084A2D1B45F00105DD
:101798005D60136830461B1B136000F009FB0120D5
:1017A800D0E700BF3C0100203401002020080020C1
:1017B800F8B504460F46002900F0B18000F0F2FAAF
:1017C80057F8042C564D22F00100A7F1080303EB4B
:1017D800000CA968DCF80460614526F0030602F0F5
:1017E80001021BD106443AB957F8082C9B1A164433
:1017F800D3E90212CA60916046F001025A60AB60F8
:10180800484B1B68B34204D8474B20461968FFF77A
:1018180079FF2046BDE8F84000F0CABACCF8046069
:10182800002A38D157F8081C05F108075B1A084444
:101838009968B94231D0DF68CF60B9600CEB060116
:101848004968C9070BD4DCF8081030443ABB374E56
:10185800B14224D10122C5E90433C3E9021140F0A1
:10186800010159601850002AD3D1B0F5007F1BD26E
:101878000121C2084009814068680132014369605A
:1018880055F8320005EBC2010839C3E9020145F8F1
:101898003230C360BDE70022D0E70122CEE7DCF892
:1018A8000C60CE60B160DAE7B0F5206F4FEA5022E5
:1018B80014D282093832511C55F8311005EBC20692
:1018C8008E4225D10120921000FA02F26868024384
:1018D8006A60C3E90216B360CB609AE7142A01D89C
:1018E8005B32E8E7542A02D8020B6E32E3E7B2F51E
:1018F800AA7F02D8C20B7732DDE740F254518A4200
:1019080096BF820C7E227C32D5E789688E4204D04D
:101918004A6822F003028242F7D8CE68D9E7F8BDB8
:101928003C0100203801002050080020440100201C
:1019380001F10B03162B2DE9F74F054606D933F0B5
:10194800070704D50C232B600024A1E11027B94216
:10195800F8D8284600F026FAB7F5FC7FAE4E37D205
:1019680007F1080232445468A2F108018C424FEA98
:10197800D70302D1D468A24210D0D4E90212636816
:10198800CA6023F00303916023445A6842F00102BD
:101998005A60284600F00CFA083479E102333469B9
:1019A8009E498C4277D0626822F0030CACEB0700AA
:1019B8000F2848DDE21940F0010347F0010767608E
:1019C800C6E90422C2E90211536044F80C00E0E7BA
:1019D8007B0A2AD0042B12D8BB0938335A1C06EBD1
:1019E800C2025468A2F1080C644506D0626822F06D
:1019F8000302D01B0F281CDD013B0133CFE7142B5A
:101A080001D85B33EAE7542B02D83B0B6E33E5E78A
:101A1800B3F5AA7F02D8FB0B7733DFE740F25452C5
:101A2800934204D8BB0C7C33D8E73F23D6E77E2308
:101A3800D4E70028E16804DBA368D9608B60A318A9
:101A4800A3E70C46D0E70028C6E9041107DBA44445
:101A5800DCF8043043F00103CCF8043099E7BCF516
:101A6800007F706880F093804FEADC024FEA5C1ECA
:101A78004FF0010C0CFA0EFC4CEA0000013256F84B
:101A880032C0706006EBC2000838C4E902C046F8EC
:101A98003240CCF80C400122981082407068904285
:101AA80026D3104206D123F003035200104203F15B
:101AB8000403FAD006EBC308C1469E46D9F80C4089
:101AC8004C4540F0B7800EF1010E1EF0030F09F1EE
:101AD8000809F3D1980740F0E180736823EA02030C
:101AE800736070685200904202D3002A40F0E2808E
:101AF800D6F808A0DAF8043023F00309B94504D36E
:101B0800A9EB07020F2A00F34081454B082019680A
:101B18000AEB090B10313944019100F073FA414A7C
:101B280001991368804601331FBF01F1FF3109187D
:101B3800434219402846019100F040FA421C0446ED
:101B480000F0F68083450199364A02D9B24540F043
:101B5800EF80354BA345186808F1FF3C084418602E
:101B680040F0AA801BEA0C0F40F0A680B2684944F6
:101B780041F0010151602D4A1B6811688B4288BFF2
:101B880013602B4A11688B4288BF1360D0E0BCF504
:101B9800206F4FEA5C2218D24FEA9C12383202F1C9
:101BA800010E56F83EE006EBC208F0452BD14FF087
:101BB800010C92100CFA02F202437260C4E902E8C6
:101BC800C8F80840CEF80C4065E7142A01D85B3203
:101BD800E5E7542A03D84FEA1C326E32DFE7B2F544
:101BE800AA7F03D84FEADC327732D8E740F2545E56
:101BF800724596BF4FEA9C427E227C32CFE7DEF8E0
:101C080008E0F04505D0DEF8042022F00302624522
:101C1800F5D8DEF80C80D1E73C0100204401002013
:101C28005008002034010020200800204C08002023
:101C3800480800206068D4F80CC020F00300A0EB2E
:101C4800070ABAF10F0F12DDA368E21947F001077E
:101C58006760C3F80CC0CCF808304AF00103C6E945
:101C68000422C2E90211536044F800A091E6BAF1D7
:101C7800000F11DB2044436843F00103436054F82C
:101C8800083F2846C3F80CC0CCF8083000F090F89C
:101C9800204603B0BDE8F08F644611E758F80809FC
:101CA800013B40453FF416AF1BE704335200104296
:101CB800FBD0FFE67346FAE7D2F800E0BEF1FF3F3B
:101CC8001BBFA4EB0B0B0BEB000214601A6014F0A3
:101CD800070B0EBF5846CBF108002418621802EA19
:101CE8000C018044A8EB010808EA0C084146284684
:101CF800019200F063F9431C019A294B07D1BBF10B
:101D0800000F23D04FF00008ABF1080010441A6808
:101D1800001B4044424440F00100B245B4601A60E0
:101D280060603FF428AFB9F10F0F12D80123636048
:101D3800B3685B6823F00303BB42A3EB070201D33C
:101D48000F2A22DC284600F033F8FDE51046D84675
:101D5800DDE70521DAF80420A9F10C0929F00709C3
:101D680002F0010242EA0902CAF80420B9F10F0F91
:101D78000AEB0902C2E901117FF6FDAE28460AF115
:101D88000801FFF715FD064BF5E6B46847F00103B7
:101D980042F0010227446360B7607A60F9E500BF4A
:101DA800200800200148FFF79BBC00BF180800204E
:101DB8000148FFF796BC00BF1808002070B505461B
:101DC8000C46B1B118B1436B0BB9FFF79BFB636EBF
:101DD800DE0705D4A389980502D4A06DFFF780FC1F
:101DE800B4F90C3043B9636ED90702D4A06DFFF77C
:101DF80078FC0026304670BD2146284600F034F8AD
:101E0800E36A064633B12846E16998470028B8BF17
:101E18004FF0FF36A3891A0603D528462169FFF734
:101E2800C7FC216B41B104F14003994202D0284616
:101E3800FFF7BEFC00232363616C21B12846FFF73E
:101E4800B7FC00236364FFF751FB0023A381636E93
:101E5800DB0702D4A06DFFF744FCA06DFFF73FFC41
:101E6800FFF74AFBC6E70000F8B50546B1F90C00D4
:101E78000C46060757D440F400638B814B68002B4F
:101E880002DCCB6B002B4CDDA66A002E49D0002368
:101E980010F480522F68E1692B6034D0226DA38939
:101EA800590705D56368D21A236B0BB1E36BD21AB5
:101EB80000232846A66AE169B047431C06D12A6870
:101EC8001D2A47D8294B1341DE0743D4B4F90C30F7
:101ED80023F40062A281002262602269D904226090
:101EE80004D5421C01D12B6803B92065216B2F60F2
:101EF800B9B104F14003994202D02846FFF758FCD3
:101F0800002323630DE001232846B0470246501CF6
:101F1800C5D12B68002BC2D01D2B01D0162B19D18F
:101F28002F6000201DE00F69002FFAD0830718BF2B
:101F380000230E6808BF4B69F61B0F608B60002EEC
:101F4800EFDD33463A462846E169D4F824C0E04735
:101F5800002807DC4FF0FF30B4F90C3043F04003A1
:101F6800A381F8BD0744361AE9E700BFFEFFBFDFCB
:101F780038B50C46054618B1436B0BB9FFF7C2FAE2
:101F8800B4F90C00B8B1636EDB0704D4810502D440
:101F9800A06DFFF7A5FB28462146FFF765FF636E96
:101FA8000546DA0705D4A3899B0502D4A06DFFF77F
:101FB80098FB284638BD0546FBE7000038B50023E6
:101FC800054D044608462B6000F086F8431C02D1F4
:101FD8002B6803B1236038BD1408002038B5074DBD
:101FE800074C641BA4101CB9BDE8384007F042BD7B
:101FF800013C55F824309847F5E700BFF8A10008E0
:10200800FCA10008082808B506D000F047F81623F8
:1020180003604FF0FF3008BD8020FCE72DE9F04752
:10202800DFF86CA00646DAF8000098460F4691469D
:10203800FFF756FB174B1C680CB9174C1C606568FA
:10204800DAF800001F2D05DDFFF74BFB4FF0FF30DE
:10205800BDE8F0879EB1012204EB8501C1F88890A4
:10206800D4F88831AA401343C4F88831022EC1F845
:10207800088102BFD4F88C311343C4F88C316B1C2F
:102088000235636044F82570FFF72BFB0020DFE77B
:10209800300100201C08002054080020014B18685B
:1020A800704700BF0C0000205822024B4FF0FF3051
:1020B8001A607047140800205822024B4FF0FF3076
:1020C8001A607047140800205822024B4FF0FF3066
:1020D8001A60704714080020044A0346116809B9B9
:1020E800034911601068034413607047E409002035
:1020F800880B00205822024B4FF0FF301A607047BF
:1021080014080020FEE7000008B5FEF7FBFA0349B3
:10211800FEF750FB0249FEF701FC08BD0000204114
:1021280000008D44C8280ED908B540F251339842B2
:102138000BD8C838FEF7E6FA0549FEF73BFB054918
:10214800FEF7ECFB08BD002070470148FAE700BF26
:102158000000C84200802244C8280DD9B0F5C87FC5
:102168000CD208B5C838FEF7CDFA0549FEF722FBB0
:102178000449FEF7D3FB08BD0020704700487047AC
:102188000000C8420000484310B540F2AD739842C1
:1021980014D940F6520398421ED9A0F65200FEF711
:1021A800B1FA0E49FEF706FB0D49FEF7B7FB0446E8
:1021B8000A49FEF7BBFC68B1084C0BE0C0F5F560B6
:1021C8000630FEF79FFA0749FEF7F4FA0649FEF7CC
:1021D800A5FB0446204610BD0024FBE70000F041A3
:1021E80000A0F5440000F0C100C0F54400B585B07A
:1021F80000230193029303932548264A02604FF473
:10220800807282600122027303754FF46022C261FA
:1022180043600423036101F0CDF948BB0A2301930D
:10222800012302930323039301A9194801F01AF823
:1022380008BB0C2301930223029301A9144801F05F
:1022480011F8D8B90D2301930323029301A910486B
:1022580001F008F8A8B90E230193042302930DEBAB
:1022680003010B4800F0FEFF70B905B05DF804FBF0
:1022780000F050FCD2E700F04DFCDAE700F04AFC31
:10228800E0E700F047FCE6E700F044FCEDE700BFBC
:102298002C0A00200024014010B586B000230293C8
:1022A80003930493059302681E4B9A4201D006B02B
:1022B80010BD044603F56C439A6942F400729A61B2
:1022C8009A6902F400720092009A9A6942F0100228
:1022D8009A619B6903F010030193019B1D230293EC
:1022E8000323039302A9104802F038F90F48104B52
:1022F80003600023436083608022C2604FF48072D1
:1023080002614FF48062426120228261C36101F060
:102318004FFE18B9054B23625C62C8E700F0FAFB70
:10232800F8E700BF0024014000100140E809002040
:10233800080002400268074B9A4200D07047064ADC
:102348001188064B19805188598091889980D288C4
:10235800DA80F3E700240140800A0020780A002090
:1023680008B504220249034801F060F808BD00BF1F
:10237800800A00202C0A002040B1054A11880180FB
:102388005188418091888180D288C280704700BF7F
:10239800780A002038B50446D0B104F11400FFF7DC
:1023A800EBFFA58A2846FFF7AFFE2060B5F58D6FD5
:1023B80010D801232371E08AFFF7B4FEA060208BB8
:1023C800FFF7CAFEE060608BFFF7DEFE206138BDD4
:1023D800014CE2E70023EDE75C0A00200048704763
:1023E8005C0A002008B50F480F4B036006234360C2
:1023F8004FF0804383600023C3604FF4E022026102
:102408004FF4001242610376012242768276C37647
:102418000377437701F052F900B908BD00F07AFB61
:10242800FBE700BFB40A00200064004008B50F486D
:102438000F4B0360062343604FF080438360002303
:10244800C3604FF4E02202614FF400124261037648
:10245800012242768276C3760377437701F02EF91C
:1024680000B908BD00F056FBFBE700BF8C0A00204E
:102478000068004010B58AB00023069307930893BC
:1024880009930368474A934204D0474A934240D08D
:102498000AB010BD454A136801331360012B2DD0D3
:1024A800434B9A6942F004029A619B6903F0040362
:1024B8000293029B4FF4006306933E4C06A9204604
:1024C80002F04CF84FF4805306930223079303233A
:1024D800099306A9204602F041F80022114613206C
:1024E80001F01EFD132001F02BFD00220121142014
:1024F80001F016FD142001F023FDC9E72C4BDA6921
:1025080042F00072DA61DB6903F000730193019B0A
:10251800C6E7274BDA6942F08062DA61DB6903F0CB
:1025280080630393039B214A136801331360012BD3
:102538002DD01F4B9A6942F008029A619B6903F0FB
:1025480008030593059B4FF4805306931A4C06A97C
:10255800204602F003F84FF4005306930223079332
:102568000323099306A9204601F0F8FF002211462B
:102578003F2001F0D5FC3F2001F0E2FC00220121C0
:10258800402001F0CDFC402001F0DAFC80E7084B48
:10259800DA6942F00072DA61DB6903F000730493D0
:1025A800049BC6E70064004000680040880A0020D9
:1025B8000010024000080140000C014000B5C9B0FD
:1025C800002343934493012245923E933F934093C3
:1025D8004193429346920E2347933EA91D4801F02A
:1025E80013F920BB1B4801F0ADF918BB03211948AA
:1025F80001F000FB08BB0E2343933EA9164801F0E7
:1026080003F9E8B9144801F09DF9E0B9032112482B
:1026180001F0F0FAD0B9F7221049684603F070FBD0
:10262800F621684600F020FC49B05DF804FB00F094
:1026380071FAD7E700F06EFAD8E700F06BFADAE73C
:1026480000F068FADEE700F065FADFE700F062FA0A
:10265800E1E700BFB40A00208C0A0020889A00082D
:10266800F0B5C1B040F223133A9300233B933C9357
:102678003D9308223E928DF8FC3009E0534A1278C7
:102688001A4403F58071694401F8202C0133DBB248
:10269800072BF3D99DF8E0309DF8E1209DF8E21072
:1026A8009DF8E3009DF8E4409DF8E5509DF8E6604C
:1026B8009DF8E7700897079606950594049003918E
:1026C800029201930823009340F22313404A802189
:1026D80017A803F0E1FA412117A800F0C5FB37ABB2
:1026E80038AA3AA93B4801F05BF920B940F25643B1
:1026F8003A9300231EE00DF12C0C374C0FCCACE8BC
:102708000F000FCCACE80F0094E80F00ACE807000E
:10271800ACF800302D210BA800F0A6FBE6E72B4A09
:1027280012781A44803A03F58071694401F8202C24
:102738000133DBB2072BF2D99DF8E0309DF8E12098
:102748009DF8E2109DF8E3009DF8E4409DF8E550FF
:102758009DF8E6609DF8E77008970796069505943A
:1027680004900391029201933E9B009340F25643DA
:102778001A4A802117A803F08FFA00280CDC37AB1F
:1027880038AA3AA9164801F00BF950B90F4A13783C
:102798000133137041B0F0BD81B217A800F064FB9B
:1027A800EDE70DF12C0C0F4C0FCCACE80F000FCC63
:1027B800ACE80F0094E80F00ACE80700ACF8003074
:1027C8002D210BA800F050FBE0E700BFDC0A002039
:1027D800809B0008B40A0020309C0008D89B0008A1
:1027E8008C0A0020609C0008F0B5B5B004462BABFD
:1027F8002DAA002101F049F940BB2268184B9A42E2
:1028080026D0184B9DF8AC209DF8AD109DF8AE0071
:102818009DF8AF409DF8B0509DF8B1609DF8B2703A
:102828009DF8B3C0CDF824C008970796069505947F
:10283800049003910292319A01922D9A00920A4AC9
:1028480080210BA803F028FA002803DC35B0F0BD7E
:10285800064BD7E781B20BA800F006FBF6E700BFEE
:1028680000640040989C0008A09C0008909C000808
:10287800F0B5B5B004462BAB2DAA012101F005F93E
:1028880040BB2268184B9A4226D0184B9DF8AC20C2
:102898009DF8AD109DF8AE009DF8AF409DF8B05082
:1028A8009DF8B1609DF8B2709DF8B3C0CDF824C012
:1028B8000897079606950594049003910292319A19
:1028C80001922D9A00920A4A80210BA803F0E4F99C
:1028D800002803DC35B0F0BD064BD7E781B20BA862
:1028E80000F0C2FAF6E700BF00640040989C0008B8
:1028F800F49C0008909C000800B591B00268094B50
:102908009A420CD0084B094A4021684603F0C4F9A2
:102918002321684600F0A8FA11B05DF804FB044BC7
:10292800F1E700BF00640040989C0008509D000833
:10293800909C000800B591B00268094B9A420CD0EF
:10294800084B094A4021684603F0A6F92321684646
:1029580000F08AFA11B05DF804FB044BF1E700BF00
:1029680000640040989C0008749D0008909C000832
:1029780000B591B00268094B9A420CD0084B094A3D
:102988004021684603F088F92321684600F06CFA74
:1029980011B05DF804FB044BF1E700BF0064004090
:1029A800989C0008989D0008909C000830B597B046
:1029B800044602680C4B9A4213D00C4D204601F095
:1029C80057FA00902B460A4A502102A803F064F9EE
:1029D800292102A800F048FA204601F04BFA17B066
:1029E80030BD044DEAE700BF00640040989C000831
:1029F800BC9D0008909C000800B583B00A4B5A693A
:102A080042F001025A615B6903F001030193019BE3
:102A1800002211460B2001F083FA0B2001F090FAF6
:102A280003B05DF804FB00BF001002402DE9F0413F
:102A38008AB000240694079408940994314B9A6943
:102A480042F040029A619A6902F040020192019AAA
:102A58009A6942F010029A619A6902F01002029291
:102A6800029A9A6942F008029A619A6902F0080289
:102A78000392039A9A6942F020029A619A6902F0D5
:102A880020020492049A9A6942F004029A619B69AE
:102A980003F004030593059BDFF86C8001224FF4D3
:102AA8008071404601F06FFE184D2246802128466D
:102AB80001F069FE01224FF40071284601F063FE1F
:102AC800062306930794089406A9114801F046FDC9
:102AD8004FF48073069301270797089402260996F6
:102AE80006A9404601F03AFD4FF420730693079774
:102AF8000894099606A9284601F030FD0AB0BDE8F9
:102B0800F08100BF0010024000140140000C014099
:102B18000018014072B6FEE700B59DB038220021CA
:102B28000DEB0200FEF767FD002109910A910B9158
:102B38000C910D91202201A8FEF75DFD01220E9255
:102B48004FF48033109313920222169217934FF486
:102B5800E01318930EA801F033FEE0B90F23099390
:102B680002210A9100230B934FF480620C920D937B
:102B780009A802F0FDF880B9022301934FF400433D
:102B8800039301A802F0D0F948B9064B01221A674D
:102B98001DB05DF804FBFFF7BDFFFFF7BBFFFFF7B4
:102BA800B9FF00BF0000424208B500F0F9FAFFF78C
:102BB800B3FFFFF73BFFFFF71FFF00F09FF8FFF79A
:102BC80015FB00F0F3F8FFF70DFCFFF72FFC00F002
:102BD80025FAFFF7C5FB00F051F9FFF7EFFC14E009
:102BE800114B1A786FF386121A7000F06DF914E021
:102BF8000D4B1A786FF3C7121A7000F0B3F900F092
:102C0800CBF9FFF72DFD00F07BF90020FFF7C2FBA1
:102C1800054B1B7813F0400FE2D1034B93F90030BA
:102C2800002BE5DBEFE700BF800B002082B00E4BE6
:102C38009A6942F001029A619A6902F001020092CF
:102C4800009ADA6942F08052DA61DB6903F0805356
:102C58000193019B054A536823F0E06343F0007336
:102C6800536002B0704700BF0010024000000140EE
:102C7800FEE7FEE7FEE7FEE7FEE7704770477047AE
:102C880008B500F09FFA08BD08B5024801F0F0FA4F
:102C980008BD00BFE809002008B5024800F0C3FFDE
:102CA80008BD00BFB40A002008B5024800F0BBFF09
:102CB80008BD00BFB40A002008B5024802F088FA2F
:102CC80008BD00BFE00A002008B5024802F07CFEFB
:102CD80008BD00BF280B002008B5024800F0A3FF7C
:102CE80008BD00BF8C0A002008B5024800F09BFF11
:102CF80008BD00BF8C0A00207047000000B587B0EF
:102D080000230293039304930593009301931548BA
:102D1800154A026041F61F42426083600922C26080
:102D28000361836102F04EFB90B94FF48053029324
:102D380002A90C4802F07EFB68B9002300930193B6
:102D48006946084802F0F6FB40B907B05DF804FB95
:102D5800FFF7E0FEE9E7FFF7DDFEEEE7FFF7DAFE53
:102D6800F3E700BFE00A00200004004002680E4BB1
:102D78009A4200D0704700B583B003F50333DA698F
:102D880042F00202DA61DB6903F002030193019B5E
:102D9800002203211D2001F0C3F81D2001F0D0F806
:102DA80003B05DF804FB00BF0004004008B50A4802
:102DB8000A4B03604FF4E133436000238360C36030
:102DC80003610C2242618361C36102F0DAFC00B93D
:102DD80008BDFFF79FFEFBE7280B002000380140E5
:102DE80030B587B0002302930393049305930268D8
:102DF8001B4B9A4201D007B030BD03F558439A697E
:102E080042F480429A619A6902F480420092009AE0
:102E18009A6942F004029A619B6903F004030193E2
:102E2800019B4FF40073029302230393032305933A
:102E38000C4D02A9284601F091FB4FF480630293E0
:102E480000240394049402A9284601F087FB224633
:102E58000F21252001F064F8252001F071F8CAE758
:102E6800003801400008014008B50A4664230146BD
:102E7800014802F0B6FC08BD280B002010B50D4C27
:102E880001224FF40071204601F07DFC01224FF42D
:102E98008071094801F077FC00228021204601F06A
:102EA80072FC0023054A1370054A1370054A137013
:102EB80010BD00BF000C014000140140720B00203F
:102EC800710B0020700B002008B50B4B1B784BB121
:102ED80001224FF40071094801F055FC064B00220D
:102EE8001A7008BD00224FF40071044801F04BFC31
:102EF800014B01221A70F4E7720B0020000C01400C
:102F080010B5124B1C7804B110BD0221104801F015
:102F180033FC00B90124FFF761FA002CF4D00D4905
:102F2800C068FDF703FE0028EED00124074B1C7093
:102F38000022094B1A704FF48071084801F023FCF5
:102F480022468021064801F01EFCDDE7710B0020B7
:102F58000018014000002041700B002000140140BF
:102F6800000C014008B5094B1B78012B00D008BDA7
:102F7800074A13780133DBB21370022BF7D900220A
:102F88008021044801F0FFFBF1E700BF710B00202E
:102F9800700B0020000C01402DE9F04FADB0FFF799
:102FA8001DFA82460068FDF79FFA04460D469AF816
:102FB80004B0DAF80800FDF797FA06460F46DAF883
:102FC8000C00FDF791FA80468946DAF81000FDF703
:102FD8008BFA104B1B78012B15D050230A93CDE99F
:102FE8000801CDE90689CDE90467CDF808B0CDE937
:102FF8000045094A80210CA802F04EFE002804DC96
:103008002DB0BDE8F08F4423E8E781B20CA8FFF7A4
:103018002BFFF5E7710B0020FC9D000808B502485E
:1030280002F09AF808BD00BFE00A002002683F4B92
:103038009A4200D070473E4A13780133DBB21370CE
:103048003BB1134600221A703A4A137843F0010341
:103058001370394A13780133DBB21370012B07D987
:10306800134600221A70334A137843F00203137090
:10307800324A13780133DBB21370042B07D9134695
:1030880000221A702B4A137843F0040313702C4A59
:1030980013780133DBB21370092B07D913460022CA
:1030A8001A70244A137843F008031370254A1378DA
:1030B8000133DBB21370312B07D9134600221A7083
:1030C8001C4A137843F0100313701F4A1378013316
:1030D800DBB21370632B07D9134600221A70154A06
:1030E800137843F020031370184A138801339BB2F6
:1030F8001380B3F5FA7F07D3134600221A800D4ACE
:10310800137843F040031370114A138801339BB2BC
:103118001380B3F57A7F8DD3134600221A80054AAF
:10312800137843F08003137084E700BF0004004065
:103138007D0B0020800B00207C0B00207B0B0020E7
:103148007A0B0020790B0020780B0020760B0020EA
:10315800740B002010B504460E4B1A784FF47A739E
:10316800B3FBF2F30C4A1068B0FBF3F000F0F6FE84
:1031780068B90F2C01D901200AE0002221464FF03E
:10318800FF3000F0CDFE054B1C60002000E0012060
:1031980010BD00BF48050020440500204C05002054
:1031A80008B5074A136843F010031360032000F0C2
:1031B800A5FE0F20FFF7CEFFFFF738FD002008BD62
:1031C80000200240034A1168034B1B780B4413602C
:1031D800704700BF840B002048050020014B186889
:1031E800704700BF840B002008B5436A9A6A12F042
:1031F800500F1ED19A6A42F400729A621A68926855
:1032080002F46022B2F5602F03D01846FFF792F857
:1032180008BD1A7B002AF8D19A6A22F480729A6251
:103228009A6A12F4805FF0D19A6A42F001029A62B7
:10323800EBE71B6A1B6B9847EAE7704708B5406ADB
:10324800FFF7FBFF08BD704708B5406A836A43F083
:1032580040038362C36A43F00403C362FFF7F3FFCA
:1032680008BD000030B482B00022019290F82420FA
:10327800012A00F08F800346012280F824204A6842
:10328800062A2DD80468606B02EB8202053A4FF0DB
:103298001F0C0CFA02FC20EA0C000D6805FA02F279
:1032A800024362630A68092A38D91C68E06802EB9D
:1032B80042021E3A4FF0070C0CFA02FC20EA0C00FE
:1032C8008D6805FA02F20243E2600A68103A012AA0
:1032D80034D90020002283F8242002B030BC704783
:1032E8000C2A0DD80568286B02EB8202233A1F24AA
:1032F800944020EA04000C68944020432863D1E7F6
:103308000568E86A02EB8202413A1F24944020EAE9
:1033180004000C6894402043E862C3E71C682069F5
:1033280002EB42024FF0070C0CFA02FC20EA0C00F8
:103338008D6805FA02F202432261C6E71A68164848
:10334800824205D09A6A42F020029A620120C1E7BF
:10335800906810F4000F1BD1906840F40000906052
:103368000A68102A01D00020B4E70C4A12680C49F8
:10337800A1FB0212920C02EB82025200019202E0BF
:10338800019A013A0192019A002AF9D10020A1E795
:1033980000209FE70220A0E7002401404405002008
:1033A80083DE1B4330B583B00023019303689A681A
:1033B80012F0010F33D104469A6842F001029A6074
:1033C800184B1B68184AA2FB03239B0C019302E0CD
:1033D800019B013B0193019B002BF9D1FFF7FEFEF6
:1033E800054623689B6813F0010F16D1FFF7F6FE18
:1033F800431B022BF5D923689B6813F0010FF0D10A
:10340800A36A43F01003A362E36A43F00103E36293
:10341800002384F82430012002E0002000E000208E
:1034280003B030BD4405002083DE1B43F8B50446D5
:103438000D46164601684448814259D0434B99428B
:1034480056D094F82430012B7CD0012384F8243002
:103458002046FFF7A7FF074600286ED1A16A21F48E
:10346800706121F0010141F48071A1622268374B3B
:103478009A4244D0A36A23F48013A362536813F4D6
:10348800806F05D0A36A23F4405343F48053A362AA
:10349800A36A13F4805F48D0E36A23F00603E3626B
:1034A800002384F82430236A294A9A62236A294A25
:1034B800DA62236A284A1A6323686FF002021A60E4
:1034C8002268936843F480739360216833462A46E0
:1034D8004C31206A00F0B8FD23689A6802F4602233
:1034E800B2F5602F24D09A6842F480129A6027E0DF
:1034F800154B5B6813F4702FA3D0012720E0A3F5C8
:1035080080635B6813F4702FB4D0A36A43F480130C
:10351800A3620D4B5B6813F4806FB9D0A36A23F4E0
:10352800405343F48053A362B2E70023E362B7E752
:103538009A6842F4A0029A6002E0002384F82430DA
:103548003846F8BD0227FBE7002401400028014067
:10355800F1310008453200085132000838B50368D7
:103568009A6812F0010F01D1002038BD04469A680C
:1035780022F001029A60FFF731FE054623689B6836
:1035880013F0010F13D0FFF729FE431B022BF5D9C7
:1035980023689B6813F0010FF0D0A36A43F010036F
:1035A800A362E36A43F00103E3620120DDE7002040
:1035B800DBE7000000287BD070B50446836A002B47
:1035C8004DD02046FFF7CAFFA36A13F0100369D154
:1035D800002867D1A26A22F4885222F0020242F03F
:1035E8000202A2626268E1690A43217B42EA41025F
:1035F800A568B5F5807F02D0012D36D01D46267D01
:10360800012E35D02668716821F46941294371601B
:103618002568AE68274931401143A960A168B1F512
:10362800807F01D0012902D12369013B1B05256850
:10363800E96A21F470010B43EB62236899681E4B19
:103648000B409A4225D0A36A23F0120343F01003DB
:10365800A362E36A43F00103E362012027E0C36247
:1036680080F82430FEF718FEABE74FF48075C6E704
:1036780031B9A169013945EA413141F40065C1E731
:10368800A16A41F02001A162E16A41F00101E16211
:10369800B8E70023E362A36A23F0030343F00103BE
:1036A800A36204E0A36A43F01003A362012070BD83
:1036B80001207047FDF7E1FFFE0E1FFF002800F014
:1036C800A18038B5044690F82030D3B12268136839
:1036D80043F001031360FFF781FD054623685A682C
:1036E80012F0010F10D1FFF779FD401B0A28F5D918
:1036F800636A43F400336362052384F820300120B1
:1037080038BDFEF7B7FEE1E71A6822F002021A6038
:10371800FFF764FD054623685A6812F0020F0DD0C2
:10372800FFF75CFD401B0A28F5D9636A43F40033B0
:103738006362052384F820300120E1E7227E012A14
:103748003DD01A6822F080021A60637E012B3BD0BC
:103758002268136823F040031360A37E012B39D03D
:103768002268136823F020031360E37E012B37D00F
:103778002268136843F010031360237F012B35D0B0
:103788002268136823F008031360637F012B33D08A
:103798002268136823F004031360A368E2681343E4
:1037A80022691343626913436268013A216813432B
:1037B800CB6100206062012384F82030A0E71A68FA
:1037C80042F080021A60C0E72268136843F04003A1
:1037D8001360C2E72268136843F020031360C4E74C
:1037E8002268136823F010031360C6E72268136881
:1037F80043F008031360C8E72268136843F0040322
:103808001360CAE70120704790F82030013BDBB213
:10381800012B05D9436A43F4802343620120704792
:1038280010B5474BD3F8002242F00102C3F800223A
:10383800D3F8002222F47C52C3F80022D3F80022E5
:10384800486A42EA0022C3F800224A6902F01F02CD
:10385800012000FA02F2D3F81C026FEA020C20EAF7
:103868000200C3F81C02CB69CBB9354BD3F80C0264
:103878000CEA0000C3F80C028C884869D1F80CE007
:1038880044EA0E44483043F830408C68088840EADF
:1038980004404C6904F1480E03EBCE035860CB6931
:1038A800012B1ED08B69002B35D12548D0F8043266
:1038B8000CEA0303C0F804320B699BBB2048D0F81C
:1038C80014320CEA0303C0F814320B6A012B30D00F
:1038D8001B4AD2F8003223F00103C2F8003200205C
:1038E80010BD174BD3F80C021043C3F80C028C8898
:1038F8004869D1F800E044EA0E44483043F83040C3
:1039080088894C69D1F808E040EA0E40483403EB56
:10391800C4035860C6E70A48D0F804321343C0F815
:103928000432C9E70648D0F814321343C0F81432F9
:10393800CBE70349D1F81C321343C1F81C32C7E75F
:103948000064004070B5044690F82050EDB2012D97
:1039580006D0436A43F4002343620125284670BD1C
:10396800022380F820300268136823F001031360F3
:10397800FFF734FC064623685B6813F0010F0CD090
:10398800FFF72CFC831B0A2BF5D9636A43F4003339
:103998006362052384F82030E0E700256562DDE7EF
:1039A80030B590F820C00468A4680CF1FF3C5FFAB9
:1039B8008CFCBCF1010F62D814F0E05F59D0C4F35D
:1039C800016C012404FA0CF41C608B68002B3DD1B7
:1039D8000D68CB68046843EA45550CF118031B01D0
:1039E800E55003680C690CF1180E03EB0E135C60CC
:1039F8000B7D012B35D0D17993791B0443EA016300
:103A0800517943EA012314790168234301EB0C112E
:103A1800C1F88C31D17893781B0443EA016351785B
:103A280043EA0123117802680B4302EB0C12C2F837
:103A3800883102680CF1180C4FEA0C1C52F80C3053
:103A480043F0010342F80C3000201DE04C6843EAC3
:103A5800C403CC6823430CF11804240105682B51D6
:103A6800BFE7036803EB0E13596841F4807159608E
:103A7800C1E7436A43F400134362012004E0436A48
:103A880043F480234362012030BD90F820C00CF13C
:103A9800FF3C5FFA8CFCBCF1010F00F2A58030B44A
:103AA80051B90468E46814F0030F10D1436A43F471
:103AB8000013436201207EE00468246914F0030FB8
:103AC80005D1436A43F400134362012073E005689B
:103AD80001F11B0424012C5904F004049460002C07
:103AE8006BD1056801F11B0424012C59640D146085
:103AF800046801F11B0C4FEA0C1C54F80C4004F04C
:103B08000204D4600468A444DCF8045015F0080FDB
:103B18005BD008241461046801F11B0C04EB0C143D
:103B28006468C4F307249461046804EB0C146468A3
:103B3800240C5461026802EB0112D2F8B8211A7001
:103B4800026802EB0112D2F8B821C2F307225A70B8
:103B5800026802EB0112D2F8B821C2F307429A7048
:103B6800026802EB0112D2F8B821120EDA7002686C
:103B780002EB0112D2F8BC211A71026802EB0112A1
:103B8800D2F8BC21C2F307225A71026802EB011273
:103B9800D2F8BC21C2F307429A71026802EB011203
:103BA800D2F8BC21120EDA71C1B90268D36843F0A9
:103BB8002003D360002030BC7047056801F11B0466
:103BC80024012C59E408546092E701F11B0504EB29
:103BD8000514646804F00F0414619CE70268136913
:103BE80043F020031361E5E7436A43F4802343620B
:103BF8000120704790F82030013BDBB2012B05D93A
:103C0800436A43F480234362012070470268536982
:103C18000B435361002070477047704770477047E7
:103C28007047704770472DE9F84F054603685C698F
:103C3800D3F804809F68D3F80CB0D3F810A0D3F859
:103C4800189014F001063BD017F0010616D0012297
:103C58009A6017F0020F08D117F0040F0CD117F073
:103C6800080606D04FF4805608E0FEF745FE002609
:103C780004E0FFF7D1FF01E04FF4006617F4807FFE
:103C88000DD02B684FF480729A6017F4007F40F0D3
:103C9800868017F4806F00F0868046F4005617F48B
:103CA800803F0DD02B684FF480329A6017F4003FA4
:103CB80040F0838017F4802F00F0838046F400469C
:103CC80014F0080F07D01BF0100F04D046F400764C
:103CD8002B681022DA6014F0040F02D01BF0080FD2
:103CE80079D114F0020F04D02B68DB6813F0030FAE
:103CF80078D114F0400F07D01AF0100F04D046F412
:103D080080662B6810221A6114F0200F02D01AF076
:103D1800080F6BD114F0100F04D02B681B6913F037
:103D2800030F6AD114F4003F02D018F0100F68D1C5
:103D380014F4803F02D018F0080F69D114F4004F32
:103D48007AD018F0040F74D014F4807F04D019F0DE
:103D5800010F01D046F0010614F4007F04D019F0D9
:103D6800020F01D046F0020614F4806F04D019F057
:103D7800040F01D046F0040614F4006F59D019F06E
:103D8800700956D0B9F1400F65D058D8B9F1200F55
:103D98005ED0B9F1300F42D146F0200644E0284603
:103DA800FEF7C8FD7BE717F4006F02D046F48046A3
:103DB80075E72846FFF731FF71E72846FEF7D8FD7B
:103DC8007EE717F4002F02D046F4803678E72846BD
:103DD800FFF724FF74E72B680822DA602846FFF70C
:103DE8001EFF7EE72846FEF7FFFC82E72B680822C5
:103DF8001A612846FFF714FF8CE72846FEF738FDBE
:103E080090E72B6810225A602846FFF70AFF8FE7D1
:103E18002B6808225A602846FFF704FF8EE7B9F19D
:103E2800100F01D146F008062A68936923F0700341
:103E380093612B6804225A609EB9BDE8F88FB9F1E6
:103E4800500F0BD0B9F1600FEED146F48076EBE756
:103E580046F01006E8E746F04006E5E746F080063B
:103E6800E2E76B6A33436B622846FEF79FFDE4E79F
:103E7800406A704790F82030013BDBB2012B05D92E
:103E8800436A43F48023436201207047002343625E
:103E980018467047002808DB0901C9B200F16040E4
:103EA80000F5614080F80013704700F00F00090129
:103EB800C9B2014B1954704714ED00E000B500F089
:103EC8000700C0F1070CBCF1040F28BF4FF0040C29
:103ED800031D062B0FD9C31E4FF0FF3E0EFA0CF040
:103EE80021EA000199400EFA03FE22EA0E0241EA95
:103EF80002005DF804FB0023EEE70000074AD368E0
:103F080023F4E0631B041B0C000200F4E06003438D
:103F180043F0BF6343F40033D360704700ED00E023
:103F280010B50446054BD868C0F30220FFF7C6FF5A
:103F380001462046FFF7AEFF10BD00BF00ED00E0D0
:103F4800002807DB00F01F02400901239340024AC2
:103F580042F82030704700BF00E100E00138B0F1BE
:103F6800807F0BD24FF0E0235861054AF02182F898
:103F780023100020986107221A61704701207047BA
:103F880000ED00E030B40124056CAC40C56B6C60FA
:103F9800046863604368102B05D003689960036860
:103FA800DA6030BC704703689A600368D960F8E744
:103FB80000283AD010B4024600681D4B984229D810
:103FC8001C4B03441C49A1FB03131B099B001364EE
:103FD8001A4BD363022382F82130016821F47F5100
:103FE80021F03001536894682343D468234314694B
:103FF80023435469234394692343D46923430B43DC
:10400800036000209063012382F8213082F82000A9
:1040180010BC70470A4B03440749A1FB03131B0953
:104028009B001364074BD363D4E70120704700BF9C
:1040380007040240F8FFFDBFCDCCCCCC0000024005
:10404800F8FBFDBF0004024038B5044690F8200094
:10405800012832D0012084F8200094F82100C0B251
:10406800012804D0002384F82030022038BD022023
:1040780084F821000020A0632568286820F001004A
:1040880028602046FFF77EFFE36A5BB12268136869
:1040980043F00E0313602268136843F001031360B2
:1040A8000020E3E72268136823F004031360226802
:1040B800136843F00A031360EDE70220D6E70346CE
:1040C80090F82120D2B2022A06D00422826300226C
:1040D80080F820200120704701680A6822F00E024B
:1040E8000A6001680A6822F001020A60026CC06B6B
:1040F800012101FA02F2426083F82110002083F8BE
:104108002000704708B590F82130DBB2022B03D0AD
:1041180004238363012008BD0268136823F00E039B
:1041280013600268136823F00103136003684C4AA4
:1041380093424ED9783A934224D01432934230D0E5
:10414800143293422FD0143293422FD01432934218
:104158002FD0143293422FD0143293422FD002F52D
:10416800627293422ED0143293422DD0143293426D
:104178002CD01432934202D04FF4803203E04FF433
:10418800805200E00122374B5A60012380F8213029
:10419800002380F82030436B002B5ED09847002026
:1041A800B9E71022EFE74FF48072ECE74FF4805242
:1041B800E9E74FF48032E6E74FF48012E3E74FF087
:1041C8008072E0E70122DEE71022DCE74FF480721C
:1041D800D9E7254A934224D01432934225D0143289
:1041E800934224D01432934224D01432934224D0E0
:1041F8001432934224D01432934224D002F56272CE
:10420800934223D01432934222D01432934221D0C5
:104218001432934202D04FF4803203E04FF48052BC
:1042280000E00122114B5A60AFE71022FAE74FF481
:104238008072F7E74FF48052F4E74FF48032F1E7E9
:104248004FF48012EEE74FF08072EBE70122E9E7C6
:104258001022E7E74FF48072E4E700205BE700BF35
:1042680080000240000402400800024000000240B2
:1042780038B5C36B1A6804682568016C04238B4041
:10428800134200F09B8015F0040F00F0978023681C
:1042980013F0200F03D1236823F00403236003687D
:1042A8009A4A934246D9783A934224D01432934298
:1042B80028D01432934227D01432934227D0143294
:1042C800934227D01432934227D01432934227D0F6
:1042D80002F56272934226D01432934225D01432EA
:1042E800934224D01432934202D04FF4802203E048
:1042F8004FF4804200E00422854B5A60C36A03B140
:10430800984738BD4022F7E74FF48062F4E74FF44E
:104318008042F1E74FF48022EEE74FF48002EBE7AA
:104328004FF08062E8E70422E6E74022E4E74FF432
:104338008062E1E7774A934224D01432934225D031
:104348001432934224D01432934224D0143293422C
:1043580024D01432934224D01432934224D002F54C
:104368006272934223D01432934222D01432934281
:1043780021D01432934202D04FF4802203E04FF44C
:10438800804200E00422644B5A60B7E74022FAE713
:104398004FF48062F7E74FF48042F4E74FF480224D
:1043A800F1E74FF48002EEE74FF08062EBE704227A
:1043B800E9E74022E7E74FF48062E4E702238B4015
:1043C800134200F0AB8015F0020F00F0A7802368BD
:1043D80013F0200F06D1236823F00A03236001237A
:1043E80080F821300368494A93424BD9783A93427E
:1043F80024D0143293422DD0143293422CD014324C
:1044080093422CD0143293422CD0143293422CD0A5
:10441800143293422CD002F5627293422BD014329C
:1044280093422AD01432934229D01432934202D0B4
:104438004FF4003203E04FF4005200E00222344B04
:104448005A60002380F82030836A002B3FF459AF6C
:10445800984756E72022F2E74FF40072EFE74FF44F
:104468000052ECE74FF40032E9E74FF40012E6E7B8
:104478004FF00072E3E70222E1E72022DFE74FF482
:104488000072DCE7234A934224D01432934225D0A9
:104498001432934224D01432934224D014329342DB
:1044A80024D01432934224D01432934224D002F5FB
:1044B8006272934223D01432934222D01432934230
:1044C80021D01432934202D04FF4003203E04FF46B
:1044D800005200E00222104B5A60B2E72022FAE7AD
:1044E8004FF40072F7E74FF40052F4E74FF400324C
:1044F800F1E74FF40012EEE74FF00072EBE702220B
:10450800E9E72022E7E74FF40072E4E78000024081
:1045180000040240080002400000024008238B40CB
:1045280013423FF4EEAE15F0080F3FF4EAAE2368ED
:1045380023F00E032360026CC16B012303FA02F21D
:104548004A60836380F82130002380F82030036BB1
:10455800002B3FF4D6AE9847D3E600BF70B582B0C3
:104568000024A446A2E07E4DAB4210D007D97D4D71
:10457800AB420CD005F58035AB4208D013E0A5F569
:104588008015AB4203D005F57025AB4207D18B6887
:10459800002B55D0012B4ED04261082403E0A5F52D
:1045A8008015AB42F3D0BEF1FF0F4BD806464FEA59
:1045B8008C0233680F25954023EA050304FA02F2BA
:1045C800134333604B6813F0805F6DD0664B9A6974
:1045D80042F001029A619B6903F001030193019B78
:1045E8004FEA9C02951C614B53F825600CF00305BB
:1045F800AD000F23AB4026EA03065D4B984228D056
:1046080003F58063984200F08D8003F5806398423B
:1046180000F08A8003F58063984218D0042319E0DB
:10462800CC68C0E7CC680434BDE7CC680834BAE786
:10463800CC680C34B7E702610824B4E70024B2E779
:104648000424B0E7061DACF108029200B1E7032389
:1046580000E00023AB4033430232444D45F822309A
:104668004B6813F4801F61D0424A936843EA0E03F3
:1046780093604B6813F4001F5ED03E4AD36843EA48
:104688000E03D3604B6813F4003F5BD0394A53687C
:1046980043EA0E0353604B6813F4803F58D0354A01
:1046A800136843EA0E0313600CF1010C0B6833FA2C
:1046B8000CF253D0012202FA0CF203EA020E32EA9B
:1046C8000303F1D14B68122B3FF64DAF122B3FF687
:1046D8006AAF01A555F823F0974500082946000858
:1046E8003346000845460008AF450008AF450008B6
:1046F800AF450008AF450008AF450008AF450008C2
:10470800AF450008AF450008AF450008AF450008B1
:10471800AF450008AF450008AF4500082D46000822
:1047280039460008012395E7022393E7114A936865
:1047380023EA0E0393609CE70E4AD36823EA0E032C
:10474800D3609FE70B4A536823EA0E035360A2E73E
:10475800084A136823EA0E031360A5E702B070BD88
:10476800000022100000311000100240000001403B
:1047780000080140000401408368194201D001206B
:104788007047002070470AB1016170470904016150
:104798007047000082B0084B1B68084AA2FB03233D
:1047A8005B0A00FB03F3019300BF019B5A1E0192B1
:1047B800002BF9D102B0704744050020D34D621098
:1047C800002800F0618270B582B00446036813F0D7
:1047D800010F2CD0994B5B6803F00C03042B1DD000
:1047E800964B5B6803F00C03082B12D0A368B3F553
:1047F800803F41D0002B55D103F1804303F50433AA
:104808001A6822F480321A601A6822F480221A6028
:1048180037E08A4B5B6813F4803FE7D0874B1B680F
:1048280013F4003F03D0A368002B00F02F82236805
:1048380013F0020F75D0814B5B6813F00C0F5FD03B
:104848007E4B5B6803F00C03082B54D06369002B84
:1048580000F08A807A4B01221A60FEF7BFFC0546F9
:10486800764B1B6813F0020F75D1FEF7B7FC401B9F
:104878000228F5D9032010E2704A136843F4803304
:104888001360A36843B3FEF7A9FC05466B4B1B688E
:1048980013F4003FCBD1FEF7A1FC401B6428F5D9E7
:1048A8000320FAE1B3F5A02F09D0644B1A6822F46B
:1048B80080321A601A6822F480221A60E1E703F154
:1048C8008043A3F53C331A6842F480221A601A68C0
:1048D80042F480321A60D4E7FEF780FC0546574B55
:1048E8001B6813F4003FA2D0FEF778FC401B642835
:1048F800F5D90320D1E1514B5B6813F4803FA5D172
:104908004E4B1B6813F0020F03D06369012B40F074
:10491800BF814A4A136823F0F803A16943EAC10337
:104928001360236813F0080F33D0E369002B5CD0C1
:10493800434B0122C3F88024FEF750FC05463F4B49
:104948005B6A13F0020F21D1FEF748FC401B0228D6
:10495800F5D90320A1E1394A136823F0F803A169C6
:1049680043EAC1031360DCE7354B00221A60FEF707
:1049780035FC0546314B1B6813F0020FD1D0FEF70A
:104988002DFC401B0228F5D9032086E10120FFF702
:1049980001FF236813F0040F00F09680274BDB69B2
:1049A80013F0805F34D1254BDA6942F08052DA6126
:1049B800DB6903F080530193019B0125214B1B68A0
:1049C80013F4807F26D02369012B3DD0002B53D1CF
:1049D80003F1804303F504331A6A22F001021A62D4
:1049E8001A6A22F004021A6233E0154B0022C3F857
:1049F8008024FEF7F3FB0546104B5B6A13F0020FA9
:104A0800C7D0FEF7EBFB401B0228F5D9032044E191
:104A18000025D3E70B4A136843F480731360FEF74D
:104A2800DDFB0646074B1B6813F4807FCBD1FEF7EE
:104A3800D5FB801B6428F5D903202EE10010024025
:104A48000000424200700040984A136A43F0010394
:104A58001362236933B3FEF7C1FB0646934B1B6A07
:104A680013F0020F2FD1FEF7B9FB801B41F28833F8
:104A78009842F3D9032010E1052B09D08B4B1A6A11
:104A880022F001021A621A6A22F004021A62E0E7AE
:104A9800864B1A6A42F004021A621A6A42F001024C
:104AA8001A62D6E7FEF79AFB0646804B1B6A13F09C
:104AB800020F08D0FEF792FB801B41F28833984220
:104AC800F3D90320E9E075BBE36A002B6ED0774A7F
:104AD800526812F4803F05D0744A526802F00C0202
:104AE800082A26D0022B4AD1704B1B6813F0805F2E
:104AF80007D06E4BDB6A03F0F003626B934240F021
:104B0800C9806B4B00229A66FEF768FB0546674B27
:104B18001B6813F0006F13D0FEF760FB401B64287E
:104B2800F5D90320B9E0614AD36923F08053D361F2
:104B3800CAE75E4AD26A12F4803FD3D00120ACE0C3
:104B48005A4AD36A23F0F003616B0B43D362D36AEA
:104B580023F47063216B0B43D362554B01229A6691
:104B6800FEF73CFB0546514B1B6813F0006F1DD147
:104B7800FEF734FB401B6428F5D903208DE04B4A2F
:104B8800D36A23F48033D362494B00229A66FEF736
:104B980025FB0546454B1B6813F0006F06D0FEF752
:104BA8001DFB401B6428F5D9032076E0236A002BFF
:104BB80072D03E4A526802F00C02082A54D0022BE6
:104BC80011D03B4B00221A66FEF708FB0446374B10
:104BD8001B6813F0007F45D0FEF700FB001B02287E
:104BE800F5D9032059E0324B00221A66FEF7F6FA8F
:104BF80005462E4B1B6813F0007F06D0FEF7EEFA31
:104C0800401B0228F5D9032047E0636AB3F5803FCB
:104C18001AD026494B6823F47413626AA06A0243C7
:104C280013434B60224B01221A66FEF7D7FA04465B
:104C38001E4B1B6813F0007F12D1FEF7CFFA001B42
:104C48000228F5D9032028E0184AD36A61680B4383
:104C5800D362D36A23F00F03E1680B43D362D8E72A
:104C680000201AE0002018E0012B18D00F4B5B68D9
:104C780003F48031626A914213D103F47013A26A7B
:104C8800934210D1002008E001207047012004E081
:104C9800012002E0012000E0002002B070BD0120E8
:104CA800FBE70120F9E70120F7E700BF0010024009
:104CB80000004242294B5B6803F00C02082A01D02D
:104CC8002748704770B5C3F3834226498C5C13F4B8
:104CD800803F3FD0214AD36A03F00F032249CB5CBF
:104CE800D26A12F4803F2FD01C49CA6AC2F3031259
:104CF8000132C86AC0F303200230A0FB040E4FEA59
:104D08004E1141EAD06145012D1A61EB0E064FEABA
:104D1800861C4CEA956CA901491B6CEB060C4FEA02
:104D2800CC0C4CEA517CC90009184EEB0C0E4FEA2A
:104D38004E2EA2FB032348024EEAD151FBF700FF97
:104D48000D2C0AD1400808E0054804FB00F0B0FB30
:104D5800F3F0F5E7054804FB00F070BD00100240D1
:104D680000127A004C9E00083C9E000800093D0095
:104D7800002800F0A08070B50D460446524B1B6811
:104D880003F007038B420BD24F4A136823F0070343
:104D98000B431360136803F007038B4240F08D80C8
:104DA800236813F0020F17D013F0040F04D0474AFA
:104DB800536843F4E0635360236813F0080F04D08A
:104DC800424A536843F460535360404A536823F09F
:104DD800F003A1680B435360236813F0010F31D02F
:104DE8006368012B20D0022B25D0384A126812F0B4
:104DF800020F64D035494A6822F0030213434B601E
:104E0800FEF7ECF90646314B5B6803F00C03626869
:104E1800B3EB820F16D0FEF7E1F9801B41F288331D
:104E28009842F0D9032045E0284A126812F4003F5E
:104E3800E0D101203EE0254A126812F0007FD9D166
:104E4800012037E0204B1B6803F00703AB420AD967
:104E58001D4A136823F007032B431360136803F0FC
:104E68000703AB422DD1236813F0040F06D0174A6D
:104E7800536823F4E063E1680B435360236813F03D
:104E8800080F07D0114A536823F46053216943EA95
:104E9800C1035360FFF70EFF0C4B5B68C3F30313AA
:104EA8000B4AD35CD8400B4B18600B4B1868FEF7C5
:104EB80051F9002070BD012070470120FAE7012058
:104EC800F8E70120F6E700BF00200240001002408A
:104ED800EC9D0008440500204C050020014B186893
:104EE800704700BF4405002008B5FFF7F7FF044BE3
:104EF8005B68C3F30223034AD35CD84008BD00BFF4
:104F080000100240E49D000808B5FFF7E7FF044BD6
:104F18005B68C3F3C223034AD35CD84008BD00BF13
:104F280000100240E49D000870B582B00446036892
:104F380013F0010F39D06E4BDB6913F0805F0BD192
:104F48006B4BDA6942F08052DA61DB6903F0805317
:104F58000193019B012500E00025664B1B6813F4B3
:104F6800807F7DD0624B1B6A13F4407313D0626854
:104F780002F440729A420ED05D4A136A23F44070DC
:104F88005D490126C1F840640026C1F840641062FA
:104F980013F0010F79D1564A136A23F440736168FC
:104FA8000B431362002D40F08280236813F0020F38
:104FB80006D04F4A536823F44043A1680B4353601B
:104FC800236813F0040F06D0494AD36A23F4003348
:104FD800E1680B43D362236813F0080F06D0444AF4
:104FE800D36A23F4802321690B43D362404BDB6AE5
:104FF80013F4003F04D13E4BDB6A13F4802F62D0D8
:105008003B4B1B6813F0805F56D1394B1B6813F07C
:10501800806F06D0364BDB6A03F0F003A269934237
:105028005FD1334AD36A23F0F003A1690B43D362FB
:10503800D36A23F4704361690B43D3622E4B012278
:105048001A67FEF7CBF80546294B1B6813F0005F7B
:1050580039D1FEF7C3F8401B6428F5D903203EE098
:10506800244A136843F480731360FEF7B7F80646C2
:10507800204B1B6813F4807F7FF474AFFEF7AEF803
:10508800801B6428F4D9032029E0FEF7A7F8064618
:10509800174B1B6A13F0020F7FF47DAFFEF79EF8E3
:1050A800801B41F288339842F2D9032017E0D36974
:1050B80023F08053D36178E70D4BDB6A03F4704328
:1050C800626993420FD1236813F0100F0DD0084A7C
:1050D800536823F48003E1690B435360002002B056
:1050E80070BD0120FBE70120F9E70020F7E700BFCA
:1050F80000100240007000400000424210B4036AF1
:10510800046A24F001040462846924F0F00C4CEA77
:10511800021223F00A030B438261036210BC70473A
:1051280010B4036A046A24F010040462846924F445
:10513800704C4CEA023223F0A00343EA0113826167
:10514800036210BC7047836823F070030B4343F07D
:10515800070383607047000090F83D30DBB2012BF5
:105168002BD1022380F83D300268D36843F0010355
:10517800D3600368134A934214D0B3F1804F11D01F
:10518800A2F5943293420DD002F58062934209D081
:1051980002F58062934205D01A6842F001021A6053
:1051A800002070479A6802F00702062A07D01A689A
:1051B80042F001021A600020704701207047002069
:1051C800704700BF002C0140704770477047704718
:1051D80070B504460368DE681D6915F0020F10D02B
:1051E80016F0020F0DD06FF002021A610123037747
:1051F80003689B6913F0030F5ED0FFF7E6FF0023F7
:10520800237715F0040F12D016F0040F0FD023687F
:105218006FF004021A610223237723689B6913F451
:10522800407F4FD02046FFF7D0FF0023237715F0AB
:10523800080F12D016F0080F0FD023686FF008027D
:105248001A61042323772368DB6913F0030F40D026
:105258002046FFF7BAFF0023237715F0100F12D06E
:1052680016F0100F0FD023686FF010021A61082390
:1052780023772368DB6913F4407F31D02046FFF79A
:10528800A4FF0023237715F0010F02D016F0010FB9
:105298002DD115F0800F02D016F0800F2FD115F008
:1052A800400F02D016F0400F31D115F0200F02D078
:1052B80016F0200F33D170BDFFF786FF2046FFF7A9
:1052C80085FF9CE72046FFF77FFF2046FFF77EFF1C
:1052D800ABE72046FFF778FF2046FFF777FFBAE7EE
:1052E8002046FFF771FF2046FFF770FFC9E72368E4
:1052F8006FF001021A612046FDF798FEC9E723689E
:105308006FF080021A61204600F04FF9C7E7236862
:105318006FF040021A612046FFF759FFC5E723687E
:105328006FF020021A61204600F03EF9C3E7000042
:105338000368234A90420ED0B0F1804F0BD0A2F5FB
:105348009432904207D002F58062904203D002F571
:105358008062904203D123F070034A681343184ACD
:1053680090420ED0B0F1804F0BD0A2F5943290420B
:1053780007D002F58062904203D002F58062904225
:1053880003D123F44073CA68134323F080034A69A6
:10539800134303608B68C3620B688362084B9842AF
:1053A8000AD001234361036913F0010F03D0036995
:1053B80023F00103036170470B690363F1E700BF42
:1053C800002C014040B310B5044690F83D30F3B1CD
:1053D800022384F83D30214651F8040BFFF7A8FF5B
:1053E800012384F8463084F83E3084F83F3084F84E
:1053F800403084F8413084F8423084F8433084F8EF
:10540800443084F8453084F83D30002010BD80F8E1
:105418003C30FDF7ABFCDBE70120704710B4846833
:1054280024F47F4C42EA03220A4342EA0C028260D7
:1054380010BC704790F83C30012B78D010B504466A
:10544800012380F83C30022380F83D3002689368DD
:1054580023F47F4323F0770393600B68602B4CD0D1
:1054680029D8402B54D00CD9502B22D1CA6849686E
:105478000068FFF743FE50212068FFF764FE002014
:1054880005E0202B0DD009D9302B0AD001200123AB
:1054980084F83D30002384F83C3010BD0BB1102B4C
:1054A80005D119462068FFF74EFE0020EFE70120DE
:1054B800EDE70120EBE7B3F5805F34D0B3F5005F8B
:1054C8000CD1CB684A6889680068FFF7A7FF226893
:1054D800936843F4804393600020D8E7702B24D16D
:1054E800CB684A6889680068FFF798FF2268936864
:1054F80043F0770393600020C9E7CA6849680068E9
:10550800FFF70EFE60212068FFF71DFE0020BEE7B2
:10551800CA6849680068FFF7F1FD40212068FFF775
:1055280012FE0020B3E70020B1E70120AFE7022018
:105538007047000090F83C20012A30D010B4034690
:10554800012280F83C20022280F83D200268506841
:10555800946820F0700C086840EA0C0050601A68E3
:10556800104882420ED0B2F1804F0BD0A0F5943093
:10557800824207D000F58060824203D000F5806047
:10558800824204D124F080044968214391600122B9
:1055980083F83D20002083F83C0010BC70470220AF
:1055A800704700BF002C014070477047026802F145
:1055B8000C0353E8003F23F490730C3242E80031A7
:1055C8000029F3D1026802F1140353E8003F23F0E5
:1055D8000103143242E800310029F3D1036B012B97
:1055E80005D0202380F84230002303637047026807
:1055F80002F10C0353E8003F23F010030C3242E899
:1056080000310029F3D1ECE790F84130DBB2212BCF
:1056180001D0022070478368B3F5805F17D0036A12
:105628005A1C02621A7803685A60C38C9BB2013B09
:105638009BB2C3844BB90268D36823F08003D3605C
:105648000268D36843F04003D360002070470369C1
:10565800002BE4D1036A1B880268C3F30803536074
:10566800036A02330362E0E710B50446026813696F
:1056780023F44053C1680B431361836802691343E1
:1056880042691A430168CB6823F4B05323F00C0332
:105698001343CB600268536923F4407381690B4359
:1056A80053610268134B9A4220D0FFF71DFC024653
:1056B80002EB820202EB820263689B00B2FBF3F208
:1056C8000D48A0FB02314909642303FB11231B0188
:1056D8003233A0FB03035B0903F0F00202EB011273
:1056E80003F00F03216813448B6010BDFFF70CFC17
:1056F8000246DDE7003801401F85EB512DE9F043F4
:1057080083B005460E4617469946DDF828802B6873
:105718001C6836EA04040CBF01240024BC4228D1CA
:10572800B8F1FF3FF3D0FDF759FDA0EB0900404564
:1057380023D8B8F1000F22D02B68DA6812F0040FD2
:10574800E5D0802EE3D0402EE1D01A6812F0080F81
:10575800DDD0002401941A6801925B680193019BD3
:105768002846FFF723FF08236B6485F84040012093
:1057780000E0002003B0BDE8F0830320FAE703202F
:10578800F8E760B310B5044690F8413013B324230A
:1057980084F841302268D36823F40053D36020464C
:1057A800FFF762FF2268136923F4904313612268AC
:1057B800536923F02A0353612268D36843F40053E2
:1057C800D36000206064202384F8413084F842309C
:1057D800606310BD80F84030FDF702FBD7E7012079
:1057E80070472DE9F04182B01E4690F84130DBB297
:1057F800202B56D104460D469046002955D00AB9AB
:1058080001204FE000234364212380F84130FDF755
:10581800E5FC0746A4F82480A4F82680A368B3F51D
:10582800805F02D04FF0000814E023692BB34FF0DB
:1058380000080FE0202384F84130032032E038F8D4
:10584800023B2268C3F308035360E28C92B2013A28
:1058580092B2E284E38C9BB293B100963B4600225D
:1058680080212046FFF74AFF0028E3D1002DE6D02B
:1058780015F8012B23685A60E7E7A8460025E9E7F1
:1058880000963B46002240212046FFF737FF18B913
:10589800202384F8413005E0202384F84130032098
:1058A80000E0022002B0BDE8F0810120FAE770476D
:1058B80008B50168CA6822F04002CA60202280F850
:1058C8004120FFF7F4FF002008BD7047704708B576
:1058D800406A0023C385C384FFF7F8FF08BD7047FB
:1058E80090F84230DBB2222B69D18368B3F5805F30
:1058F8004FD0826AB3F5805F04D0002B56D103697C
:10590800002B53D103685B681370836A0133836289
:10591800C38D9BB2013B9BB2C385002B51D100B50F
:1059280083B00268D36823F02003D3600268D36889
:1059380023F48073D3600268536923F00103536131
:10594800202380F8423000234363036B012B33D1BB
:1059580000230363026802F10C0353E8003F23F0BD
:1059680010030C3242E800310029F3D103681A68A9
:1059780012F0100F06D0002201921A6801925B689B
:105988000193019B818DFFF7AAFF002003B05DF80A
:1059980004FB0269002AACD1826A03685B68C3F31E
:1059A80008031380836A02338362B1E703685B6884
:1059B80003F07F031370A8E7FFF787FFE5E70220EE
:1059C800704700207047000010B582B00446026896
:1059D8001368D068516913F00F0F09D113F0200F25
:1059E8000CD010F0200F09D02046FFF779FF16E001
:1059F80011F0010115D110F4907F12D1216B01290A
:105A080079D013F0800F03D010F0800F40F013818D
:105A180013F0400F03D010F0400F40F0108102B097
:105A280010BD13F0010F06D010F4807F03D0626C14
:105A380042F00102626413F0040F04D019B1626CE1
:105A480042F00202626413F0020F04D019B1626CD2
:105A580042F00402626413F0080F07D010F0200F20
:105A680000D119B1626C42F008026264626C002ACB
:105A7800D5D013F0200F02D010F0200F29D12368C1
:105A88005B6903F04003626C12F0080F00D163B346
:105A98002046FFF78BFD23685B6913F0400F20D089
:105AA800226802F1140353E8003F23F04003143244
:105AB80042E800310029F3D1E36B73B1624A5A63BB
:105AC800E06BFEF71FFB0028A9D0E06B436B9847FB
